{
	"contracts/ParibuHub.sol": {
		"ParibuHub": {
			"abi": [
				{
					"inputs": [],
					"stateMutability": "nonpayable",
					"type": "constructor"
				},
				{
					"inputs": [
						{
							"internalType": "address",
							"name": "",
							"type": "address"
						}
					],
					"name": "accountValues",
					"outputs": [
						{
							"internalType": "string",
							"name": "name",
							"type": "string"
						},
						{
							"internalType": "string",
							"name": "surname",
							"type": "string"
						},
						{
							"internalType": "uint256",
							"name": "balance",
							"type": "uint256"
						}
					],
					"stateMutability": "view",
					"type": "function"
				},
				{
					"inputs": [
						{
							"components": [
								{
									"internalType": "string",
									"name": "name",
									"type": "string"
								},
								{
									"internalType": "string",
									"name": "surname",
									"type": "string"
								},
								{
									"internalType": "uint256",
									"name": "balance",
									"type": "uint256"
								}
							],
							"internalType": "struct ParibuHub.Account",
							"name": "admin",
							"type": "tuple"
						}
					],
					"name": "addAdmin",
					"outputs": [],
					"stateMutability": "nonpayable",
					"type": "function"
				},
				{
					"inputs": [
						{
							"internalType": "uint256",
							"name": "",
							"type": "uint256"
						}
					],
					"name": "admins",
					"outputs": [
						{
							"internalType": "string",
							"name": "name",
							"type": "string"
						},
						{
							"internalType": "string",
							"name": "surname",
							"type": "string"
						},
						{
							"internalType": "uint256",
							"name": "balance",
							"type": "uint256"
						}
					],
					"stateMutability": "view",
					"type": "function"
				},
				{
					"inputs": [
						{
							"internalType": "address",
							"name": "",
							"type": "address"
						},
						{
							"internalType": "address",
							"name": "",
							"type": "address"
						}
					],
					"name": "allowance",
					"outputs": [
						{
							"internalType": "bool",
							"name": "",
							"type": "bool"
						}
					],
					"stateMutability": "view",
					"type": "function"
				},
				{
					"inputs": [],
					"name": "allowed",
					"outputs": [
						{
							"internalType": "bool",
							"name": "",
							"type": "bool"
						}
					],
					"stateMutability": "view",
					"type": "function"
				},
				{
					"inputs": [
						{
							"internalType": "address",
							"name": "_address",
							"type": "address"
						}
					],
					"name": "assignAllowance",
					"outputs": [],
					"stateMutability": "nonpayable",
					"type": "function"
				},
				{
					"inputs": [
						{
							"internalType": "string",
							"name": "_name",
							"type": "string"
						},
						{
							"internalType": "string",
							"name": "_surname",
							"type": "string"
						},
						{
							"internalType": "uint256",
							"name": "_balance",
							"type": "uint256"
						}
					],
					"name": "assignValue",
					"outputs": [],
					"stateMutability": "nonpayable",
					"type": "function"
				},
				{
					"inputs": [
						{
							"components": [
								{
									"internalType": "string",
									"name": "name",
									"type": "string"
								},
								{
									"internalType": "string",
									"name": "surname",
									"type": "string"
								},
								{
									"internalType": "uint256",
									"name": "balance",
									"type": "uint256"
								}
							],
							"internalType": "struct ParibuHub.Account",
							"name": "_account",
							"type": "tuple"
						}
					],
					"name": "assignValue2",
					"outputs": [],
					"stateMutability": "nonpayable",
					"type": "function"
				},
				{
					"inputs": [
						{
							"components": [
								{
									"internalType": "string",
									"name": "name",
									"type": "string"
								},
								{
									"internalType": "string",
									"name": "surname",
									"type": "string"
								},
								{
									"internalType": "uint256",
									"name": "balance",
									"type": "uint256"
								}
							],
							"internalType": "struct ParibuHub.Account",
							"name": "_account",
							"type": "tuple"
						}
					],
					"name": "assingAddressValues",
					"outputs": [],
					"stateMutability": "nonpayable",
					"type": "function"
				},
				{
					"inputs": [],
					"name": "count",
					"outputs": [
						{
							"internalType": "uint256",
							"name": "",
							"type": "uint256"
						}
					],
					"stateMutability": "view",
					"type": "function"
				},
				{
					"inputs": [
						{
							"internalType": "uint256",
							"name": "",
							"type": "uint256"
						}
					],
					"name": "errorMessages",
					"outputs": [
						{
							"internalType": "string",
							"name": "",
							"type": "string"
						}
					],
					"stateMutability": "view",
					"type": "function"
				},
				{
					"inputs": [],
					"name": "extraMethod",
					"outputs": [],
					"stateMutability": "nonpayable",
					"type": "function"
				},
				{
					"inputs": [],
					"name": "getAccount",
					"outputs": [
						{
							"components": [
								{
									"internalType": "string",
									"name": "name",
									"type": "string"
								},
								{
									"internalType": "string",
									"name": "surname",
									"type": "string"
								},
								{
									"internalType": "uint256",
									"name": "balance",
									"type": "uint256"
								}
							],
							"internalType": "struct ParibuHub.Account",
							"name": "",
							"type": "tuple"
						}
					],
					"stateMutability": "view",
					"type": "function"
				},
				{
					"inputs": [],
					"name": "getAllAdmins",
					"outputs": [
						{
							"components": [
								{
									"internalType": "string",
									"name": "name",
									"type": "string"
								},
								{
									"internalType": "string",
									"name": "surname",
									"type": "string"
								},
								{
									"internalType": "uint256",
									"name": "balance",
									"type": "uint256"
								}
							],
							"internalType": "struct ParibuHub.Account[3]",
							"name": "",
							"type": "tuple[3]"
						}
					],
					"stateMutability": "view",
					"type": "function"
				},
				{
					"inputs": [],
					"name": "getFullName",
					"outputs": [
						{
							"internalType": "string",
							"name": "",
							"type": "string"
						}
					],
					"stateMutability": "pure",
					"type": "function"
				},
				{
					"inputs": [],
					"name": "getSizeOfErrorMessages",
					"outputs": [
						{
							"internalType": "uint256",
							"name": "",
							"type": "uint256"
						}
					],
					"stateMutability": "view",
					"type": "function"
				},
				{
					"inputs": [],
					"name": "iAmReady",
					"outputs": [
						{
							"internalType": "string",
							"name": "",
							"type": "string"
						}
					],
					"stateMutability": "pure",
					"type": "function"
				},
				{
					"inputs": [
						{
							"internalType": "uint256",
							"name": "_increment",
							"type": "uint256"
						}
					],
					"name": "increment",
					"outputs": [],
					"stateMutability": "nonpayable",
					"type": "function"
				},
				{
					"inputs": [],
					"name": "oneIncrement",
					"outputs": [],
					"stateMutability": "nonpayable",
					"type": "function"
				},
				{
					"inputs": [],
					"name": "owner",
					"outputs": [
						{
							"internalType": "address",
							"name": "",
							"type": "address"
						}
					],
					"stateMutability": "view",
					"type": "function"
				},
				{
					"inputs": [
						{
							"internalType": "bool",
							"name": "_allowed",
							"type": "bool"
						}
					],
					"name": "setAllowed",
					"outputs": [],
					"stateMutability": "nonpayable",
					"type": "function"
				},
				{
					"inputs": [],
					"name": "signedCount",
					"outputs": [
						{
							"internalType": "int256",
							"name": "",
							"type": "int256"
						}
					],
					"stateMutability": "view",
					"type": "function"
				},
				{
					"inputs": [
						{
							"internalType": "int256",
							"name": "_increment",
							"type": "int256"
						}
					],
					"name": "signedIncrement",
					"outputs": [],
					"stateMutability": "nonpayable",
					"type": "function"
				},
				{
					"inputs": [],
					"name": "whoAmI",
					"outputs": [
						{
							"internalType": "string",
							"name": "",
							"type": "string"
						}
					],
					"stateMutability": "pure",
					"type": "function"
				}
			],
			"devdoc": {
				"kind": "dev",
				"methods": {},
				"version": 1
			},
			"evm": {
				"assembly": "    /* \"contracts/ParibuHub.sol\":429:3061  contract ParibuHub is IAction, Whois, VeliUysal {... */\n  mstore(0x40, 0x80)\n    /* \"contracts/ParibuHub.sol\":938:1122  constructor(){... */\n  callvalue\n  dup1\n  iszero\n  tag_1\n  jumpi\n  0x00\n  dup1\n  revert\ntag_1:\n  pop\n    /* \"contracts/ParibuHub.sol\":970:980  msg.sender */\n  caller\n    /* \"contracts/ParibuHub.sol\":962:967  owner */\n  0x03\n  0x00\n    /* \"contracts/ParibuHub.sol\":962:980  owner = msg.sender */\n  0x0100\n  exp\n  dup2\n  sload\n  dup2\n  0xffffffffffffffffffffffffffffffffffffffff\n  mul\n  not\n  and\n  swap1\n  dup4\n  0xffffffffffffffffffffffffffffffffffffffff\n  and\n  mul\n  or\n  swap1\n  sstore\n  pop\n    /* \"contracts/ParibuHub.sol\":991:1004  errorMessages */\n  0x05\n    /* \"contracts/ParibuHub.sol\":991:1027  errorMessages.push(\"is not allowed\") */\n  dup1\n  0x01\n  dup2\n  sload\n  add\n  dup1\n  dup3\n  sstore\n  dup1\n  swap2\n  pop\n  pop\n  0x01\n  swap1\n  sub\n  swap1\n  0x00\n  mstore\n  keccak256(0x00, 0x20)\n  add\n  0x00\n  mload(0x40)\n  dup1\n  0x40\n  add\n  0x40\n  mstore\n  dup1\n  0x0e\n  dup2\n  mstore\n  0x20\n  add\n  0x6973206e6f7420616c6c6f776564000000000000000000000000000000000000\n  dup2\n  mstore\n  pop\n  swap1\n  swap2\n  swap1\n  swap2\n  pop\n  swap1\n  dup2\n  tag_5\n  swap2\n  swap1\n  tag_6\n  jump\t// in\ntag_5:\n  pop\n    /* \"contracts/ParibuHub.sol\":1038:1051  errorMessages */\n  0x05\n    /* \"contracts/ParibuHub.sol\":1038:1070  errorMessages.push(\"only owner\") */\n  dup1\n  0x01\n  dup2\n  sload\n  add\n  dup1\n  dup3\n  sstore\n  dup1\n  swap2\n  pop\n  pop\n  0x01\n  swap1\n  sub\n  swap1\n  0x00\n  mstore\n  keccak256(0x00, 0x20)\n  add\n  0x00\n  mload(0x40)\n  dup1\n  0x40\n  add\n  0x40\n  mstore\n  dup1\n  0x0a\n  dup2\n  mstore\n  0x20\n  add\n  0x6f6e6c79206f776e657200000000000000000000000000000000000000000000\n  dup2\n  mstore\n  pop\n  swap1\n  swap2\n  swap1\n  swap2\n  pop\n  swap1\n  dup2\n  tag_8\n  swap2\n  swap1\n  tag_6\n  jump\t// in\ntag_8:\n  pop\n    /* \"contracts/ParibuHub.sol\":1081:1094  errorMessages */\n  0x05\n    /* \"contracts/ParibuHub.sol\":1081:1114  errorMessages.push(\"placeholder\") */\n  dup1\n  0x01\n  dup2\n  sload\n  add\n  dup1\n  dup3\n  sstore\n  dup1\n  swap2\n  pop\n  pop\n  0x01\n  swap1\n  sub\n  swap1\n  0x00\n  mstore\n  keccak256(0x00, 0x20)\n  add\n  0x00\n  mload(0x40)\n  dup1\n  0x40\n  add\n  0x40\n  mstore\n  dup1\n  0x0b\n  dup2\n  mstore\n  0x20\n  add\n  0x706c616365686f6c646572000000000000000000000000000000000000000000\n  dup2\n  mstore\n  pop\n  swap1\n  swap2\n  swap1\n  swap2\n  pop\n  swap1\n  dup2\n  tag_10\n  swap2\n  swap1\n  tag_6\n  jump\t// in\ntag_10:\n  pop\n    /* \"contracts/ParibuHub.sol\":429:3061  contract ParibuHub is IAction, Whois, VeliUysal {... */\n  jump(tag_11)\n    /* \"#utility.yul\":7:106   */\ntag_12:\n    /* \"#utility.yul\":59:65   */\n  0x00\n    /* \"#utility.yul\":93:98   */\n  dup2\n    /* \"#utility.yul\":87:99   */\n  mload\n    /* \"#utility.yul\":77:99   */\n  swap1\n  pop\n    /* \"#utility.yul\":7:106   */\n  swap2\n  swap1\n  pop\n  jump\t// out\n    /* \"#utility.yul\":112:292   */\ntag_13:\n    /* \"#utility.yul\":160:237   */\n  0x4e487b7100000000000000000000000000000000000000000000000000000000\n    /* \"#utility.yul\":157:158   */\n  0x00\n    /* \"#utility.yul\":150:238   */\n  mstore\n    /* \"#utility.yul\":257:261   */\n  0x41\n    /* \"#utility.yul\":254:255   */\n  0x04\n    /* \"#utility.yul\":247:262   */\n  mstore\n    /* \"#utility.yul\":281:285   */\n  0x24\n    /* \"#utility.yul\":278:279   */\n  0x00\n    /* \"#utility.yul\":271:286   */\n  revert\n    /* \"#utility.yul\":298:478   */\ntag_14:\n    /* \"#utility.yul\":346:423   */\n  0x4e487b7100000000000000000000000000000000000000000000000000000000\n    /* \"#utility.yul\":343:344   */\n  0x00\n    /* \"#utility.yul\":336:424   */\n  mstore\n    /* \"#utility.yul\":443:447   */\n  0x22\n    /* \"#utility.yul\":440:441   */\n  0x04\n    /* \"#utility.yul\":433:448   */\n  mstore\n    /* \"#utility.yul\":467:471   */\n  0x24\n    /* \"#utility.yul\":464:465   */\n  0x00\n    /* \"#utility.yul\":457:472   */\n  revert\n    /* \"#utility.yul\":484:804   */\ntag_15:\n    /* \"#utility.yul\":528:534   */\n  0x00\n    /* \"#utility.yul\":565:566   */\n  0x02\n    /* \"#utility.yul\":559:563   */\n  dup3\n    /* \"#utility.yul\":555:567   */\n  div\n    /* \"#utility.yul\":545:567   */\n  swap1\n  pop\n    /* \"#utility.yul\":612:613   */\n  0x01\n    /* \"#utility.yul\":606:610   */\n  dup3\n    /* \"#utility.yul\":602:614   */\n  and\n    /* \"#utility.yul\":633:651   */\n  dup1\n    /* \"#utility.yul\":623:704   */\n  tag_37\n  jumpi\n    /* \"#utility.yul\":689:693   */\n  0x7f\n    /* \"#utility.yul\":681:687   */\n  dup3\n    /* \"#utility.yul\":677:694   */\n  and\n    /* \"#utility.yul\":667:694   */\n  swap2\n  pop\n    /* \"#utility.yul\":623:704   */\ntag_37:\n    /* \"#utility.yul\":751:753   */\n  0x20\n    /* \"#utility.yul\":743:749   */\n  dup3\n    /* \"#utility.yul\":740:754   */\n  lt\n    /* \"#utility.yul\":720:738   */\n  dup2\n    /* \"#utility.yul\":717:755   */\n  sub\n    /* \"#utility.yul\":714:798   */\n  tag_38\n  jumpi\n    /* \"#utility.yul\":770:788   */\n  tag_39\n  tag_14\n  jump\t// in\ntag_39:\n    /* \"#utility.yul\":714:798   */\ntag_38:\n    /* \"#utility.yul\":535:804   */\n  pop\n    /* \"#utility.yul\":484:804   */\n  swap2\n  swap1\n  pop\n  jump\t// out\n    /* \"#utility.yul\":810:951   */\ntag_16:\n    /* \"#utility.yul\":859:863   */\n  0x00\n    /* \"#utility.yul\":882:885   */\n  dup2\n    /* \"#utility.yul\":874:885   */\n  swap1\n  pop\n    /* \"#utility.yul\":905:908   */\n  dup2\n    /* \"#utility.yul\":902:903   */\n  0x00\n    /* \"#utility.yul\":895:909   */\n  mstore\n    /* \"#utility.yul\":939:943   */\n  0x20\n    /* \"#utility.yul\":936:937   */\n  0x00\n    /* \"#utility.yul\":926:944   */\n  keccak256\n    /* \"#utility.yul\":918:944   */\n  swap1\n  pop\n    /* \"#utility.yul\":810:951   */\n  swap2\n  swap1\n  pop\n  jump\t// out\n    /* \"#utility.yul\":957:1050   */\ntag_17:\n    /* \"#utility.yul\":994:1000   */\n  0x00\n    /* \"#utility.yul\":1041:1043   */\n  0x20\n    /* \"#utility.yul\":1036:1038   */\n  0x1f\n    /* \"#utility.yul\":1029:1034   */\n  dup4\n    /* \"#utility.yul\":1025:1039   */\n  add\n    /* \"#utility.yul\":1021:1044   */\n  div\n    /* \"#utility.yul\":1011:1044   */\n  swap1\n  pop\n    /* \"#utility.yul\":957:1050   */\n  swap2\n  swap1\n  pop\n  jump\t// out\n    /* \"#utility.yul\":1056:1163   */\ntag_18:\n    /* \"#utility.yul\":1100:1108   */\n  0x00\n    /* \"#utility.yul\":1150:1155   */\n  dup3\n    /* \"#utility.yul\":1144:1148   */\n  dup3\n    /* \"#utility.yul\":1140:1156   */\n  shl\n    /* \"#utility.yul\":1119:1156   */\n  swap1\n  pop\n    /* \"#utility.yul\":1056:1163   */\n  swap3\n  swap2\n  pop\n  pop\n  jump\t// out\n    /* \"#utility.yul\":1169:1562   */\ntag_19:\n    /* \"#utility.yul\":1238:1244   */\n  0x00\n    /* \"#utility.yul\":1288:1289   */\n  0x08\n    /* \"#utility.yul\":1276:1286   */\n  dup4\n    /* \"#utility.yul\":1272:1290   */\n  mul\n    /* \"#utility.yul\":1311:1408   */\n  tag_44\n    /* \"#utility.yul\":1341:1407   */\n  0xffffffffffffffffffffffffffffffffffffffffffffffffffffffffffffffff\n    /* \"#utility.yul\":1330:1339   */\n  dup3\n    /* \"#utility.yul\":1311:1408   */\n  tag_18\n  jump\t// in\ntag_44:\n    /* \"#utility.yul\":1429:1468   */\n  tag_45\n    /* \"#utility.yul\":1459:1467   */\n  dup7\n    /* \"#utility.yul\":1448:1457   */\n  dup4\n    /* \"#utility.yul\":1429:1468   */\n  tag_18\n  jump\t// in\ntag_45:\n    /* \"#utility.yul\":1417:1468   */\n  swap6\n  pop\n    /* \"#utility.yul\":1501:1505   */\n  dup1\n    /* \"#utility.yul\":1497:1506   */\n  not\n    /* \"#utility.yul\":1490:1495   */\n  dup5\n    /* \"#utility.yul\":1486:1507   */\n  and\n    /* \"#utility.yul\":1477:1507   */\n  swap4\n  pop\n    /* \"#utility.yul\":1550:1554   */\n  dup1\n    /* \"#utility.yul\":1540:1548   */\n  dup7\n    /* \"#utility.yul\":1536:1555   */\n  and\n    /* \"#utility.yul\":1529:1534   */\n  dup5\n    /* \"#utility.yul\":1526:1556   */\n  or\n    /* \"#utility.yul\":1516:1556   */\n  swap3\n  pop\n    /* \"#utility.yul\":1245:1562   */\n  pop\n  pop\n    /* \"#utility.yul\":1169:1562   */\n  swap4\n  swap3\n  pop\n  pop\n  pop\n  jump\t// out\n    /* \"#utility.yul\":1568:1645   */\ntag_20:\n    /* \"#utility.yul\":1605:1612   */\n  0x00\n    /* \"#utility.yul\":1634:1639   */\n  dup2\n    /* \"#utility.yul\":1623:1639   */\n  swap1\n  pop\n    /* \"#utility.yul\":1568:1645   */\n  swap2\n  swap1\n  pop\n  jump\t// out\n    /* \"#utility.yul\":1651:1711   */\ntag_21:\n    /* \"#utility.yul\":1679:1682   */\n  0x00\n    /* \"#utility.yul\":1700:1705   */\n  dup2\n    /* \"#utility.yul\":1693:1705   */\n  swap1\n  pop\n    /* \"#utility.yul\":1651:1711   */\n  swap2\n  swap1\n  pop\n  jump\t// out\n    /* \"#utility.yul\":1717:1859   */\ntag_22:\n    /* \"#utility.yul\":1767:1776   */\n  0x00\n    /* \"#utility.yul\":1800:1853   */\n  tag_49\n    /* \"#utility.yul\":1818:1852   */\n  tag_50\n    /* \"#utility.yul\":1827:1851   */\n  tag_51\n    /* \"#utility.yul\":1845:1850   */\n  dup5\n    /* \"#utility.yul\":1827:1851   */\n  tag_20\n  jump\t// in\ntag_51:\n    /* \"#utility.yul\":1818:1852   */\n  tag_21\n  jump\t// in\ntag_50:\n    /* \"#utility.yul\":1800:1853   */\n  tag_20\n  jump\t// in\ntag_49:\n    /* \"#utility.yul\":1787:1853   */\n  swap1\n  pop\n    /* \"#utility.yul\":1717:1859   */\n  swap2\n  swap1\n  pop\n  jump\t// out\n    /* \"#utility.yul\":1865:1940   */\ntag_23:\n    /* \"#utility.yul\":1908:1911   */\n  0x00\n    /* \"#utility.yul\":1929:1934   */\n  dup2\n    /* \"#utility.yul\":1922:1934   */\n  swap1\n  pop\n    /* \"#utility.yul\":1865:1940   */\n  swap2\n  swap1\n  pop\n  jump\t// out\n    /* \"#utility.yul\":1946:2215   */\ntag_24:\n    /* \"#utility.yul\":2056:2095   */\n  tag_54\n    /* \"#utility.yul\":2087:2094   */\n  dup4\n    /* \"#utility.yul\":2056:2095   */\n  tag_22\n  jump\t// in\ntag_54:\n    /* \"#utility.yul\":2117:2208   */\n  tag_55\n    /* \"#utility.yul\":2166:2207   */\n  tag_56\n    /* \"#utility.yul\":2190:2206   */\n  dup3\n    /* \"#utility.yul\":2166:2207   */\n  tag_23\n  jump\t// in\ntag_56:\n    /* \"#utility.yul\":2158:2164   */\n  dup5\n    /* \"#utility.yul\":2151:2155   */\n  dup5\n    /* \"#utility.yul\":2145:2156   */\n  sload\n    /* \"#utility.yul\":2117:2208   */\n  tag_19\n  jump\t// in\ntag_55:\n    /* \"#utility.yul\":2111:2115   */\n  dup3\n    /* \"#utility.yul\":2104:2209   */\n  sstore\n    /* \"#utility.yul\":2022:2215   */\n  pop\n    /* \"#utility.yul\":1946:2215   */\n  pop\n  pop\n  pop\n  jump\t// out\n    /* \"#utility.yul\":2221:2294   */\ntag_25:\n    /* \"#utility.yul\":2266:2269   */\n  0x00\n    /* \"#utility.yul\":2221:2294   */\n  swap1\n  jump\t// out\n    /* \"#utility.yul\":2300:2489   */\ntag_26:\n    /* \"#utility.yul\":2377:2409   */\n  tag_59\n  tag_25\n  jump\t// in\ntag_59:\n    /* \"#utility.yul\":2418:2483   */\n  tag_60\n    /* \"#utility.yul\":2476:2482   */\n  dup2\n    /* \"#utility.yul\":2468:2474   */\n  dup5\n    /* \"#utility.yul\":2462:2466   */\n  dup5\n    /* \"#utility.yul\":2418:2483   */\n  tag_24\n  jump\t// in\ntag_60:\n    /* \"#utility.yul\":2353:2489   */\n  pop\n    /* \"#utility.yul\":2300:2489   */\n  pop\n  pop\n  jump\t// out\n    /* \"#utility.yul\":2495:2681   */\ntag_27:\n    /* \"#utility.yul\":2555:2675   */\ntag_62:\n    /* \"#utility.yul\":2572:2575   */\n  dup2\n    /* \"#utility.yul\":2565:2570   */\n  dup2\n    /* \"#utility.yul\":2562:2576   */\n  lt\n    /* \"#utility.yul\":2555:2675   */\n  iszero\n  tag_64\n  jumpi\n    /* \"#utility.yul\":2626:2665   */\n  tag_65\n    /* \"#utility.yul\":2663:2664   */\n  0x00\n    /* \"#utility.yul\":2656:2661   */\n  dup3\n    /* \"#utility.yul\":2626:2665   */\n  tag_26\n  jump\t// in\ntag_65:\n    /* \"#utility.yul\":2599:2600   */\n  0x01\n    /* \"#utility.yul\":2592:2597   */\n  dup2\n    /* \"#utility.yul\":2588:2601   */\n  add\n    /* \"#utility.yul\":2579:2601   */\n  swap1\n  pop\n    /* \"#utility.yul\":2555:2675   */\n  jump(tag_62)\ntag_64:\n    /* \"#utility.yul\":2495:2681   */\n  pop\n  pop\n  jump\t// out\n    /* \"#utility.yul\":2687:3230   */\ntag_28:\n    /* \"#utility.yul\":2788:2790   */\n  0x1f\n    /* \"#utility.yul\":2783:2786   */\n  dup3\n    /* \"#utility.yul\":2780:2791   */\n  gt\n    /* \"#utility.yul\":2777:3223   */\n  iszero\n  tag_67\n  jumpi\n    /* \"#utility.yul\":2822:2860   */\n  tag_68\n    /* \"#utility.yul\":2854:2859   */\n  dup2\n    /* \"#utility.yul\":2822:2860   */\n  tag_16\n  jump\t// in\ntag_68:\n    /* \"#utility.yul\":2906:2935   */\n  tag_69\n    /* \"#utility.yul\":2924:2934   */\n  dup5\n    /* \"#utility.yul\":2906:2935   */\n  tag_17\n  jump\t// in\ntag_69:\n    /* \"#utility.yul\":2896:2904   */\n  dup2\n    /* \"#utility.yul\":2892:2936   */\n  add\n    /* \"#utility.yul\":3089:3091   */\n  0x20\n    /* \"#utility.yul\":3077:3087   */\n  dup6\n    /* \"#utility.yul\":3074:3092   */\n  lt\n    /* \"#utility.yul\":3071:3120   */\n  iszero\n  tag_70\n  jumpi\n    /* \"#utility.yul\":3110:3118   */\n  dup2\n    /* \"#utility.yul\":3095:3118   */\n  swap1\n  pop\n    /* \"#utility.yul\":3071:3120   */\ntag_70:\n    /* \"#utility.yul\":3133:3213   */\n  tag_71\n    /* \"#utility.yul\":3189:3211   */\n  tag_72\n    /* \"#utility.yul\":3207:3210   */\n  dup6\n    /* \"#utility.yul\":3189:3211   */\n  tag_17\n  jump\t// in\ntag_72:\n    /* \"#utility.yul\":3179:3187   */\n  dup4\n    /* \"#utility.yul\":3175:3212   */\n  add\n    /* \"#utility.yul\":3162:3173   */\n  dup3\n    /* \"#utility.yul\":3133:3213   */\n  tag_27\n  jump\t// in\ntag_71:\n    /* \"#utility.yul\":2792:3223   */\n  pop\n  pop\n    /* \"#utility.yul\":2777:3223   */\ntag_67:\n    /* \"#utility.yul\":2687:3230   */\n  pop\n  pop\n  pop\n  jump\t// out\n    /* \"#utility.yul\":3236:3353   */\ntag_29:\n    /* \"#utility.yul\":3290:3298   */\n  0x00\n    /* \"#utility.yul\":3340:3345   */\n  dup3\n    /* \"#utility.yul\":3334:3338   */\n  dup3\n    /* \"#utility.yul\":3330:3346   */\n  shr\n    /* \"#utility.yul\":3309:3346   */\n  swap1\n  pop\n    /* \"#utility.yul\":3236:3353   */\n  swap3\n  swap2\n  pop\n  pop\n  jump\t// out\n    /* \"#utility.yul\":3359:3528   */\ntag_30:\n    /* \"#utility.yul\":3403:3409   */\n  0x00\n    /* \"#utility.yul\":3436:3487   */\n  tag_75\n    /* \"#utility.yul\":3484:3485   */\n  0x00\n    /* \"#utility.yul\":3480:3486   */\n  not\n    /* \"#utility.yul\":3472:3477   */\n  dup5\n    /* \"#utility.yul\":3469:3470   */\n  0x08\n    /* \"#utility.yul\":3465:3478   */\n  mul\n    /* \"#utility.yul\":3436:3487   */\n  tag_29\n  jump\t// in\ntag_75:\n    /* \"#utility.yul\":3432:3488   */\n  not\n    /* \"#utility.yul\":3517:3521   */\n  dup1\n    /* \"#utility.yul\":3511:3515   */\n  dup4\n    /* \"#utility.yul\":3507:3522   */\n  and\n    /* \"#utility.yul\":3497:3522   */\n  swap2\n  pop\n    /* \"#utility.yul\":3410:3528   */\n  pop\n    /* \"#utility.yul\":3359:3528   */\n  swap3\n  swap2\n  pop\n  pop\n  jump\t// out\n    /* \"#utility.yul\":3533:3828   */\ntag_31:\n    /* \"#utility.yul\":3609:3613   */\n  0x00\n    /* \"#utility.yul\":3755:3784   */\n  tag_77\n    /* \"#utility.yul\":3780:3783   */\n  dup4\n    /* \"#utility.yul\":3774:3778   */\n  dup4\n    /* \"#utility.yul\":3755:3784   */\n  tag_30\n  jump\t// in\ntag_77:\n    /* \"#utility.yul\":3747:3784   */\n  swap2\n  pop\n    /* \"#utility.yul\":3817:3820   */\n  dup3\n    /* \"#utility.yul\":3814:3815   */\n  0x02\n    /* \"#utility.yul\":3810:3821   */\n  mul\n    /* \"#utility.yul\":3804:3808   */\n  dup3\n    /* \"#utility.yul\":3801:3822   */\n  or\n    /* \"#utility.yul\":3793:3822   */\n  swap1\n  pop\n    /* \"#utility.yul\":3533:3828   */\n  swap3\n  swap2\n  pop\n  pop\n  jump\t// out\n    /* \"#utility.yul\":3833:5228   */\ntag_6:\n    /* \"#utility.yul\":3950:3987   */\n  tag_79\n    /* \"#utility.yul\":3983:3986   */\n  dup3\n    /* \"#utility.yul\":3950:3987   */\n  tag_12\n  jump\t// in\ntag_79:\n    /* \"#utility.yul\":4052:4070   */\n  0xffffffffffffffff\n    /* \"#utility.yul\":4044:4050   */\n  dup2\n    /* \"#utility.yul\":4041:4071   */\n  gt\n    /* \"#utility.yul\":4038:4094   */\n  iszero\n  tag_80\n  jumpi\n    /* \"#utility.yul\":4074:4092   */\n  tag_81\n  tag_13\n  jump\t// in\ntag_81:\n    /* \"#utility.yul\":4038:4094   */\ntag_80:\n    /* \"#utility.yul\":4118:4156   */\n  tag_82\n    /* \"#utility.yul\":4150:4154   */\n  dup3\n    /* \"#utility.yul\":4144:4155   */\n  sload\n    /* \"#utility.yul\":4118:4156   */\n  tag_15\n  jump\t// in\ntag_82:\n    /* \"#utility.yul\":4203:4270   */\n  tag_83\n    /* \"#utility.yul\":4263:4269   */\n  dup3\n    /* \"#utility.yul\":4255:4261   */\n  dup3\n    /* \"#utility.yul\":4249:4253   */\n  dup6\n    /* \"#utility.yul\":4203:4270   */\n  tag_28\n  jump\t// in\ntag_83:\n    /* \"#utility.yul\":4297:4298   */\n  0x00\n    /* \"#utility.yul\":4321:4325   */\n  0x20\n    /* \"#utility.yul\":4308:4325   */\n  swap1\n  pop\n    /* \"#utility.yul\":4353:4355   */\n  0x1f\n    /* \"#utility.yul\":4345:4351   */\n  dup4\n    /* \"#utility.yul\":4342:4356   */\n  gt\n    /* \"#utility.yul\":4370:4371   */\n  0x01\n    /* \"#utility.yul\":4365:4983   */\n  dup2\n  eq\n  tag_85\n  jumpi\n    /* \"#utility.yul\":5027:5028   */\n  0x00\n    /* \"#utility.yul\":5044:5050   */\n  dup5\n    /* \"#utility.yul\":5041:5118   */\n  iszero\n  tag_86\n  jumpi\n    /* \"#utility.yul\":5093:5102   */\n  dup3\n    /* \"#utility.yul\":5088:5091   */\n  dup8\n    /* \"#utility.yul\":5084:5103   */\n  add\n    /* \"#utility.yul\":5078:5104   */\n  mload\n    /* \"#utility.yul\":5069:5104   */\n  swap1\n  pop\n    /* \"#utility.yul\":5041:5118   */\ntag_86:\n    /* \"#utility.yul\":5144:5211   */\n  tag_87\n    /* \"#utility.yul\":5204:5210   */\n  dup6\n    /* \"#utility.yul\":5197:5202   */\n  dup3\n    /* \"#utility.yul\":5144:5211   */\n  tag_31\n  jump\t// in\ntag_87:\n    /* \"#utility.yul\":5138:5142   */\n  dup7\n    /* \"#utility.yul\":5131:5212   */\n  sstore\n    /* \"#utility.yul\":5000:5222   */\n  pop\n    /* \"#utility.yul\":4335:5222   */\n  jump(tag_84)\n    /* \"#utility.yul\":4365:4983   */\ntag_85:\n    /* \"#utility.yul\":4417:4421   */\n  0x1f\n    /* \"#utility.yul\":4413:4422   */\n  not\n    /* \"#utility.yul\":4405:4411   */\n  dup5\n    /* \"#utility.yul\":4401:4423   */\n  and\n    /* \"#utility.yul\":4451:4488   */\n  tag_88\n    /* \"#utility.yul\":4483:4487   */\n  dup7\n    /* \"#utility.yul\":4451:4488   */\n  tag_16\n  jump\t// in\ntag_88:\n    /* \"#utility.yul\":4510:4511   */\n  0x00\n    /* \"#utility.yul\":4524:4732   */\ntag_89:\n    /* \"#utility.yul\":4538:4545   */\n  dup3\n    /* \"#utility.yul\":4535:4536   */\n  dup2\n    /* \"#utility.yul\":4532:4546   */\n  lt\n    /* \"#utility.yul\":4524:4732   */\n  iszero\n  tag_91\n  jumpi\n    /* \"#utility.yul\":4617:4626   */\n  dup5\n    /* \"#utility.yul\":4612:4615   */\n  dup10\n    /* \"#utility.yul\":4608:4627   */\n  add\n    /* \"#utility.yul\":4602:4628   */\n  mload\n    /* \"#utility.yul\":4594:4600   */\n  dup3\n    /* \"#utility.yul\":4587:4629   */\n  sstore\n    /* \"#utility.yul\":4668:4669   */\n  0x01\n    /* \"#utility.yul\":4660:4666   */\n  dup3\n    /* \"#utility.yul\":4656:4670   */\n  add\n    /* \"#utility.yul\":4646:4670   */\n  swap2\n  pop\n    /* \"#utility.yul\":4715:4717   */\n  0x20\n    /* \"#utility.yul\":4704:4713   */\n  dup6\n    /* \"#utility.yul\":4700:4718   */\n  add\n    /* \"#utility.yul\":4687:4718   */\n  swap5\n  pop\n    /* \"#utility.yul\":4561:4565   */\n  0x20\n    /* \"#utility.yul\":4558:4559   */\n  dup2\n    /* \"#utility.yul\":4554:4566   */\n  add\n    /* \"#utility.yul\":4549:4566   */\n  swap1\n  pop\n    /* \"#utility.yul\":4524:4732   */\n  jump(tag_89)\ntag_91:\n    /* \"#utility.yul\":4760:4766   */\n  dup7\n    /* \"#utility.yul\":4751:4758   */\n  dup4\n    /* \"#utility.yul\":4748:4767   */\n  lt\n    /* \"#utility.yul\":4745:4924   */\n  iszero\n  tag_92\n  jumpi\n    /* \"#utility.yul\":4818:4827   */\n  dup5\n    /* \"#utility.yul\":4813:4816   */\n  dup10\n    /* \"#utility.yul\":4809:4828   */\n  add\n    /* \"#utility.yul\":4803:4829   */\n  mload\n    /* \"#utility.yul\":4861:4909   */\n  tag_93\n    /* \"#utility.yul\":4903:4907   */\n  0x1f\n    /* \"#utility.yul\":4895:4901   */\n  dup10\n    /* \"#utility.yul\":4891:4908   */\n  and\n    /* \"#utility.yul\":4880:4889   */\n  dup3\n    /* \"#utility.yul\":4861:4909   */\n  tag_30\n  jump\t// in\ntag_93:\n    /* \"#utility.yul\":4853:4859   */\n  dup4\n    /* \"#utility.yul\":4846:4910   */\n  sstore\n    /* \"#utility.yul\":4768:4924   */\n  pop\n    /* \"#utility.yul\":4745:4924   */\ntag_92:\n    /* \"#utility.yul\":4970:4971   */\n  0x01\n    /* \"#utility.yul\":4966:4967   */\n  0x02\n    /* \"#utility.yul\":4958:4964   */\n  dup9\n    /* \"#utility.yul\":4954:4968   */\n  mul\n    /* \"#utility.yul\":4950:4972   */\n  add\n    /* \"#utility.yul\":4944:4948   */\n  dup9\n    /* \"#utility.yul\":4937:4973   */\n  sstore\n    /* \"#utility.yul\":4372:4983   */\n  pop\n  pop\n  pop\n    /* \"#utility.yul\":4335:5222   */\ntag_84:\n  pop\n    /* \"#utility.yul\":3925:5228   */\n  pop\n  pop\n  pop\n    /* \"#utility.yul\":3833:5228   */\n  pop\n  pop\n  jump\t// out\n    /* \"contracts/ParibuHub.sol\":429:3061  contract ParibuHub is IAction, Whois, VeliUysal {... */\ntag_11:\n  dataSize(sub_0)\n  dup1\n  dataOffset(sub_0)\n  0x00\n  codecopy\n  0x00\n  return\nstop\n\nsub_0: assembly {\n        /* \"contracts/ParibuHub.sol\":429:3061  contract ParibuHub is IAction, Whois, VeliUysal {... */\n      mstore(0x40, 0x80)\n      callvalue\n      dup1\n      iszero\n      tag_1\n      jumpi\n      0x00\n      dup1\n      revert\n    tag_1:\n      pop\n      jumpi(tag_2, lt(calldatasize, 0x04))\n      shr(0xe0, calldataload(0x00))\n      dup1\n      0x8c160186\n      gt\n      tag_27\n      jumpi\n      dup1\n      0xdb613e81\n      gt\n      tag_28\n      jumpi\n      dup1\n      0xdb613e81\n      eq\n      tag_21\n      jumpi\n      dup1\n      0xdd62ed3e\n      eq\n      tag_22\n      jumpi\n      dup1\n      0xe9523c97\n      eq\n      tag_23\n      jumpi\n      dup1\n      0xf3009c90\n      eq\n      tag_24\n      jumpi\n      dup1\n      0xf6ace8d7\n      eq\n      tag_25\n      jumpi\n      dup1\n      0xffac3b1d\n      eq\n      tag_26\n      jumpi\n      jump(tag_2)\n    tag_28:\n      dup1\n      0x8c160186\n      eq\n      tag_15\n      jumpi\n      dup1\n      0x8da5cb5b\n      eq\n      tag_16\n      jumpi\n      dup1\n      0x9bead1f8\n      eq\n      tag_17\n      jumpi\n      dup1\n      0xbe7cb506\n      eq\n      tag_18\n      jumpi\n      dup1\n      0xc539ab78\n      eq\n      tag_19\n      jumpi\n      dup1\n      0xda91254c\n      eq\n      tag_20\n      jumpi\n      jump(tag_2)\n    tag_27:\n      dup1\n      0x5f3d8f4a\n      gt\n      tag_29\n      jumpi\n      dup1\n      0x5f3d8f4a\n      eq\n      tag_9\n      jumpi\n      dup1\n      0x5faaf352\n      eq\n      tag_10\n      jumpi\n      dup1\n      0x6710a559\n      eq\n      tag_11\n      jumpi\n      dup1\n      0x702051f0\n      eq\n      tag_12\n      jumpi\n      dup1\n      0x7c85cfc2\n      eq\n      tag_13\n      jumpi\n      dup1\n      0x7cf5dab0\n      eq\n      tag_14\n      jumpi\n      jump(tag_2)\n    tag_29:\n      dup1\n      0x942a94\n      eq\n      tag_3\n      jumpi\n      dup1\n      0x06661abd\n      eq\n      tag_4\n      jumpi\n      dup1\n      0x14bfd6d0\n      eq\n      tag_5\n      jumpi\n      dup1\n      0x19e1fca4\n      eq\n      tag_6\n      jumpi\n      dup1\n      0x2babac22\n      eq\n      tag_7\n      jumpi\n      dup1\n      0x4fab2bc9\n      eq\n      tag_8\n      jumpi\n    tag_2:\n      0x00\n      dup1\n      revert\n        /* \"contracts/ParibuHub.sol\":2419:2535  function assingAddressValues(Account memory _account) public {... */\n    tag_3:\n      tag_30\n      0x04\n      dup1\n      calldatasize\n      sub\n      dup2\n      add\n      swap1\n      tag_31\n      swap2\n      swap1\n      tag_32\n      jump\t// in\n    tag_31:\n      tag_33\n      jump\t// in\n    tag_30:\n      stop\n        /* \"contracts/ParibuHub.sol\":513:530  uint public count */\n    tag_4:\n      tag_34\n      tag_35\n      jump\t// in\n    tag_34:\n      mload(0x40)\n      tag_36\n      swap2\n      swap1\n      tag_37\n      jump\t// in\n    tag_36:\n      mload(0x40)\n      dup1\n      swap2\n      sub\n      swap1\n      return\n        /* \"contracts/ParibuHub.sol\":880:904  Account[3] public admins */\n    tag_5:\n      tag_38\n      0x04\n      dup1\n      calldatasize\n      sub\n      dup2\n      add\n      swap1\n      tag_39\n      swap2\n      swap1\n      tag_40\n      jump\t// in\n    tag_39:\n      tag_41\n      jump\t// in\n    tag_38:\n      mload(0x40)\n      tag_42\n      swap4\n      swap3\n      swap2\n      swap1\n      tag_43\n      jump\t// in\n    tag_42:\n      mload(0x40)\n      dup1\n      swap2\n      sub\n      swap1\n      return\n        /* \"contracts/ParibuHub.sol\":486:505  bool public allowed */\n    tag_6:\n      tag_44\n      tag_45\n      jump\t// in\n    tag_44:\n      mload(0x40)\n      tag_46\n      swap2\n      swap1\n      tag_47\n      jump\t// in\n    tag_46:\n      mload(0x40)\n      dup1\n      swap2\n      sub\n      swap1\n      return\n        /* \"contracts/ParibuHub.sol\":1250:1329  function setAllowed(bool _allowed) public {... */\n    tag_7:\n      tag_48\n      0x04\n      dup1\n      calldatasize\n      sub\n      dup2\n      add\n      swap1\n      tag_49\n      swap2\n      swap1\n      tag_50\n      jump\t// in\n    tag_49:\n      tag_51\n      jump\t// in\n    tag_48:\n      stop\n        /* \"contracts/ParibuHub.sol\":825:873  mapping(address => Account) public accountValues */\n    tag_8:\n      tag_52\n      0x04\n      dup1\n      calldatasize\n      sub\n      dup2\n      add\n      swap1\n      tag_53\n      swap2\n      swap1\n      tag_54\n      jump\t// in\n    tag_53:\n      tag_55\n      jump\t// in\n    tag_52:\n      mload(0x40)\n      tag_56\n      swap4\n      swap3\n      swap2\n      swap1\n      tag_43\n      jump\t// in\n    tag_56:\n      mload(0x40)\n      dup1\n      swap2\n      sub\n      swap1\n      return\n        /* \"contracts/ParibuHub.sol\":537:559  int public signedCount */\n    tag_9:\n      tag_57\n      tag_58\n      jump\t// in\n    tag_57:\n      mload(0x40)\n      tag_59\n      swap2\n      swap1\n      tag_60\n      jump\t// in\n    tag_59:\n      mload(0x40)\n      dup1\n      swap2\n      sub\n      swap1\n      return\n        /* \"contracts/ParibuHub.sol\":2543:2673  function addAdmin(Account memory admin) public {... */\n    tag_10:\n      tag_61\n      0x04\n      dup1\n      calldatasize\n      sub\n      dup2\n      add\n      swap1\n      tag_62\n      swap2\n      swap1\n      tag_32\n      jump\t// in\n    tag_62:\n      tag_63\n      jump\t// in\n    tag_61:\n      stop\n        /* \"contracts/ParibuHub.sol\":254:294  function extraMethod() public {... */\n    tag_11:\n      tag_64\n      tag_65\n      jump\t// in\n    tag_64:\n      stop\n        /* \"contracts/ParibuHub.sol\":1130:1238  function getSizeOfErrorMessages() public view returns(uint256){... */\n    tag_12:\n      tag_66\n      tag_67\n      jump\t// in\n    tag_66:\n      mload(0x40)\n      tag_68\n      swap2\n      swap1\n      tag_37\n      jump\t// in\n    tag_68:\n      mload(0x40)\n      dup1\n      swap2\n      sub\n      swap1\n      return\n        /* \"contracts/ParibuHub.sol\":2872:2960  function iAmReady() external pure returns(string memory){... */\n    tag_13:\n      tag_69\n      tag_70\n      jump\t// in\n    tag_69:\n      mload(0x40)\n      tag_71\n      swap2\n      swap1\n      tag_72\n      jump\t// in\n    tag_71:\n      mload(0x40)\n      dup1\n      swap2\n      sub\n      swap1\n      return\n        /* \"contracts/ParibuHub.sol\":1626:1724  function increment(uint _increment) public isAllowed {... */\n    tag_14:\n      tag_73\n      0x04\n      dup1\n      calldatasize\n      sub\n      dup2\n      add\n      swap1\n      tag_74\n      swap2\n      swap1\n      tag_40\n      jump\t// in\n    tag_74:\n      tag_75\n      jump\t// in\n    tag_73:\n      stop\n        /* \"contracts/ParibuHub.sol\":327:422  function getFullName() public pure returns(string memory){... */\n    tag_15:\n      tag_76\n      tag_77\n      jump\t// in\n    tag_76:\n      mload(0x40)\n      tag_78\n      swap2\n      swap1\n      tag_72\n      jump\t// in\n    tag_78:\n      mload(0x40)\n      dup1\n      swap2\n      sub\n      swap1\n      return\n        /* \"contracts/ParibuHub.sol\":566:586  address public owner */\n    tag_16:\n      tag_79\n      tag_80\n      jump\t// in\n    tag_79:\n      mload(0x40)\n      tag_81\n      swap2\n      swap1\n      tag_82\n      jump\t// in\n    tag_81:\n      mload(0x40)\n      dup1\n      swap2\n      sub\n      swap1\n      return\n        /* \"contracts/ParibuHub.sol\":1965:2169  function assignValue(string memory _name, string memory _surname, uint256 _balance) public {... */\n    tag_17:\n      tag_83\n      0x04\n      dup1\n      calldatasize\n      sub\n      dup2\n      add\n      swap1\n      tag_84\n      swap2\n      swap1\n      tag_85\n      jump\t// in\n    tag_84:\n      tag_86\n      jump\t// in\n    tag_83:\n      stop\n        /* \"contracts/ParibuHub.sol\":1732:1837  function signedIncrement(int _increment) public {... */\n    tag_18:\n      tag_87\n      0x04\n      dup1\n      calldatasize\n      sub\n      dup2\n      add\n      swap1\n      tag_88\n      swap2\n      swap1\n      tag_89\n      jump\t// in\n    tag_88:\n      tag_90\n      jump\t// in\n    tag_87:\n      stop\n        /* \"contracts/ParibuHub.sol\":661:690  string[] public errorMessages */\n    tag_19:\n      tag_91\n      0x04\n      dup1\n      calldatasize\n      sub\n      dup2\n      add\n      swap1\n      tag_92\n      swap2\n      swap1\n      tag_40\n      jump\t// in\n    tag_92:\n      tag_93\n      jump\t// in\n    tag_91:\n      mload(0x40)\n      tag_94\n      swap2\n      swap1\n      tag_72\n      jump\t// in\n    tag_94:\n      mload(0x40)\n      dup1\n      swap2\n      sub\n      swap1\n      return\n        /* \"contracts/ParibuHub.sol\":2965:3058  function whoAmI() public override pure returns(string memory){... */\n    tag_20:\n      tag_95\n      tag_96\n      jump\t// in\n    tag_95:\n      mload(0x40)\n      tag_97\n      swap2\n      swap1\n      tag_72\n      jump\t// in\n    tag_97:\n      mload(0x40)\n      dup1\n      swap2\n      sub\n      swap1\n      return\n        /* \"contracts/ParibuHub.sol\":2276:2411  function getAccount() public view returns(Account memory){... */\n    tag_21:\n      tag_98\n      tag_99\n      jump\t// in\n    tag_98:\n      mload(0x40)\n      tag_100\n      swap2\n      swap1\n      tag_101\n      jump\t// in\n    tag_100:\n      mload(0x40)\n      dup1\n      swap2\n      sub\n      swap1\n      return\n        /* \"contracts/ParibuHub.sol\":593:654  mapping(address => mapping(address => bool)) public allowance */\n    tag_22:\n      tag_102\n      0x04\n      dup1\n      calldatasize\n      sub\n      dup2\n      add\n      swap1\n      tag_103\n      swap2\n      swap1\n      tag_104\n      jump\t// in\n    tag_103:\n      tag_105\n      jump\t// in\n    tag_102:\n      mload(0x40)\n      tag_106\n      swap2\n      swap1\n      tag_47\n      jump\t// in\n    tag_106:\n      mload(0x40)\n      dup1\n      swap2\n      sub\n      swap1\n      return\n        /* \"contracts/ParibuHub.sol\":2677:2867  function getAllAdmins() public view returns(Account[3] memory) {... */\n    tag_23:\n      tag_107\n      tag_108\n      jump\t// in\n    tag_107:\n      mload(0x40)\n      tag_109\n      swap2\n      swap1\n      tag_110\n      jump\t// in\n    tag_109:\n      mload(0x40)\n      dup1\n      swap2\n      sub\n      swap1\n      return\n        /* \"contracts/ParibuHub.sol\":2177:2268  function assignValue2(Account memory _account) public {... */\n    tag_24:\n      tag_111\n      0x04\n      dup1\n      calldatasize\n      sub\n      dup2\n      add\n      swap1\n      tag_112\n      swap2\n      swap1\n      tag_32\n      jump\t// in\n    tag_112:\n      tag_113\n      jump\t// in\n    tag_111:\n      stop\n        /* \"contracts/ParibuHub.sol\":1845:1957  function assignAllowance(address _address) public onlyOwner {... */\n    tag_25:\n      tag_114\n      0x04\n      dup1\n      calldatasize\n      sub\n      dup2\n      add\n      swap1\n      tag_115\n      swap2\n      swap1\n      tag_54\n      jump\t// in\n    tag_115:\n      tag_116\n      jump\t// in\n    tag_114:\n      stop\n        /* \"contracts/ParibuHub.sol\":1561:1618  function oneIncrement() public {... */\n    tag_26:\n      tag_117\n      tag_118\n      jump\t// in\n    tag_117:\n      stop\n        /* \"contracts/ParibuHub.sol\":2419:2535  function assingAddressValues(Account memory _account) public {... */\n    tag_33:\n        /* \"contracts/ParibuHub.sol\":2519:2527  _account */\n      dup1\n        /* \"contracts/ParibuHub.sol\":2491:2504  accountValues */\n      0x09\n        /* \"contracts/ParibuHub.sol\":2491:2516  accountValues[msg.sender] */\n      0x00\n        /* \"contracts/ParibuHub.sol\":2505:2515  msg.sender */\n      caller\n        /* \"contracts/ParibuHub.sol\":2491:2516  accountValues[msg.sender] */\n      0xffffffffffffffffffffffffffffffffffffffff\n      and\n      0xffffffffffffffffffffffffffffffffffffffff\n      and\n      dup2\n      mstore\n      0x20\n      add\n      swap1\n      dup2\n      mstore\n      0x20\n      add\n      0x00\n      keccak256\n        /* \"contracts/ParibuHub.sol\":2491:2527  accountValues[msg.sender] = _account */\n      0x00\n      dup3\n      add\n      mload\n      dup2\n      0x00\n      add\n      swap1\n      dup2\n      tag_120\n      swap2\n      swap1\n      tag_121\n      jump\t// in\n    tag_120:\n      pop\n      0x20\n      dup3\n      add\n      mload\n      dup2\n      0x01\n      add\n      swap1\n      dup2\n      tag_122\n      swap2\n      swap1\n      tag_121\n      jump\t// in\n    tag_122:\n      pop\n      0x40\n      dup3\n      add\n      mload\n      dup2\n      0x02\n      add\n      sstore\n      swap1\n      pop\n      pop\n        /* \"contracts/ParibuHub.sol\":2419:2535  function assingAddressValues(Account memory _account) public {... */\n      pop\n      jump\t// out\n        /* \"contracts/ParibuHub.sol\":513:530  uint public count */\n    tag_35:\n      sload(0x01)\n      dup2\n      jump\t// out\n        /* \"contracts/ParibuHub.sol\":880:904  Account[3] public admins */\n    tag_41:\n      0x0a\n      dup2\n      0x03\n      dup2\n      lt\n      tag_123\n      jumpi\n      0x00\n      dup1\n      revert\n    tag_123:\n      0x03\n      mul\n      add\n      0x00\n      swap2\n      pop\n      swap1\n      pop\n      dup1\n      0x00\n      add\n      dup1\n      sload\n      tag_125\n      swap1\n      tag_126\n      jump\t// in\n    tag_125:\n      dup1\n      0x1f\n      add\n      0x20\n      dup1\n      swap2\n      div\n      mul\n      0x20\n      add\n      mload(0x40)\n      swap1\n      dup2\n      add\n      0x40\n      mstore\n      dup1\n      swap3\n      swap2\n      swap1\n      dup2\n      dup2\n      mstore\n      0x20\n      add\n      dup3\n      dup1\n      sload\n      tag_127\n      swap1\n      tag_126\n      jump\t// in\n    tag_127:\n      dup1\n      iszero\n      tag_128\n      jumpi\n      dup1\n      0x1f\n      lt\n      tag_129\n      jumpi\n      0x0100\n      dup1\n      dup4\n      sload\n      div\n      mul\n      dup4\n      mstore\n      swap2\n      0x20\n      add\n      swap2\n      jump(tag_128)\n    tag_129:\n      dup3\n      add\n      swap2\n      swap1\n      0x00\n      mstore\n      keccak256(0x00, 0x20)\n      swap1\n    tag_130:\n      dup2\n      sload\n      dup2\n      mstore\n      swap1\n      0x01\n      add\n      swap1\n      0x20\n      add\n      dup1\n      dup4\n      gt\n      tag_130\n      jumpi\n      dup3\n      swap1\n      sub\n      0x1f\n      and\n      dup3\n      add\n      swap2\n    tag_128:\n      pop\n      pop\n      pop\n      pop\n      pop\n      swap1\n      dup1\n      0x01\n      add\n      dup1\n      sload\n      tag_131\n      swap1\n      tag_126\n      jump\t// in\n    tag_131:\n      dup1\n      0x1f\n      add\n      0x20\n      dup1\n      swap2\n      div\n      mul\n      0x20\n      add\n      mload(0x40)\n      swap1\n      dup2\n      add\n      0x40\n      mstore\n      dup1\n      swap3\n      swap2\n      swap1\n      dup2\n      dup2\n      mstore\n      0x20\n      add\n      dup3\n      dup1\n      sload\n      tag_132\n      swap1\n      tag_126\n      jump\t// in\n    tag_132:\n      dup1\n      iszero\n      tag_133\n      jumpi\n      dup1\n      0x1f\n      lt\n      tag_134\n      jumpi\n      0x0100\n      dup1\n      dup4\n      sload\n      div\n      mul\n      dup4\n      mstore\n      swap2\n      0x20\n      add\n      swap2\n      jump(tag_133)\n    tag_134:\n      dup3\n      add\n      swap2\n      swap1\n      0x00\n      mstore\n      keccak256(0x00, 0x20)\n      swap1\n    tag_135:\n      dup2\n      sload\n      dup2\n      mstore\n      swap1\n      0x01\n      add\n      swap1\n      0x20\n      add\n      dup1\n      dup4\n      gt\n      tag_135\n      jumpi\n      dup3\n      swap1\n      sub\n      0x1f\n      and\n      dup3\n      add\n      swap2\n    tag_133:\n      pop\n      pop\n      pop\n      pop\n      pop\n      swap1\n      dup1\n      0x02\n      add\n      sload\n      swap1\n      pop\n      dup4\n      jump\t// out\n        /* \"contracts/ParibuHub.sol\":486:505  bool public allowed */\n    tag_45:\n      0x00\n      dup1\n      sload\n      swap1\n      0x0100\n      exp\n      swap1\n      div\n      0xff\n      and\n      dup2\n      jump\t// out\n        /* \"contracts/ParibuHub.sol\":1250:1329  function setAllowed(bool _allowed) public {... */\n    tag_51:\n        /* \"contracts/ParibuHub.sol\":1313:1321  _allowed */\n      dup1\n        /* \"contracts/ParibuHub.sol\":1303:1310  allowed */\n      0x00\n      dup1\n        /* \"contracts/ParibuHub.sol\":1303:1321  allowed = _allowed */\n      0x0100\n      exp\n      dup2\n      sload\n      dup2\n      0xff\n      mul\n      not\n      and\n      swap1\n      dup4\n      iszero\n      iszero\n      mul\n      or\n      swap1\n      sstore\n      pop\n        /* \"contracts/ParibuHub.sol\":1250:1329  function setAllowed(bool _allowed) public {... */\n      pop\n      jump\t// out\n        /* \"contracts/ParibuHub.sol\":825:873  mapping(address => Account) public accountValues */\n    tag_55:\n      mstore(0x20, 0x09)\n      dup1\n      0x00\n      mstore\n      keccak256(0x00, 0x40)\n      0x00\n      swap2\n      pop\n      swap1\n      pop\n      dup1\n      0x00\n      add\n      dup1\n      sload\n      tag_137\n      swap1\n      tag_126\n      jump\t// in\n    tag_137:\n      dup1\n      0x1f\n      add\n      0x20\n      dup1\n      swap2\n      div\n      mul\n      0x20\n      add\n      mload(0x40)\n      swap1\n      dup2\n      add\n      0x40\n      mstore\n      dup1\n      swap3\n      swap2\n      swap1\n      dup2\n      dup2\n      mstore\n      0x20\n      add\n      dup3\n      dup1\n      sload\n      tag_138\n      swap1\n      tag_126\n      jump\t// in\n    tag_138:\n      dup1\n      iszero\n      tag_139\n      jumpi\n      dup1\n      0x1f\n      lt\n      tag_140\n      jumpi\n      0x0100\n      dup1\n      dup4\n      sload\n      div\n      mul\n      dup4\n      mstore\n      swap2\n      0x20\n      add\n      swap2\n      jump(tag_139)\n    tag_140:\n      dup3\n      add\n      swap2\n      swap1\n      0x00\n      mstore\n      keccak256(0x00, 0x20)\n      swap1\n    tag_141:\n      dup2\n      sload\n      dup2\n      mstore\n      swap1\n      0x01\n      add\n      swap1\n      0x20\n      add\n      dup1\n      dup4\n      gt\n      tag_141\n      jumpi\n      dup3\n      swap1\n      sub\n      0x1f\n      and\n      dup3\n      add\n      swap2\n    tag_139:\n      pop\n      pop\n      pop\n      pop\n      pop\n      swap1\n      dup1\n      0x01\n      add\n      dup1\n      sload\n      tag_142\n      swap1\n      tag_126\n      jump\t// in\n    tag_142:\n      dup1\n      0x1f\n      add\n      0x20\n      dup1\n      swap2\n      div\n      mul\n      0x20\n      add\n      mload(0x40)\n      swap1\n      dup2\n      add\n      0x40\n      mstore\n      dup1\n      swap3\n      swap2\n      swap1\n      dup2\n      dup2\n      mstore\n      0x20\n      add\n      dup3\n      dup1\n      sload\n      tag_143\n      swap1\n      tag_126\n      jump\t// in\n    tag_143:\n      dup1\n      iszero\n      tag_144\n      jumpi\n      dup1\n      0x1f\n      lt\n      tag_145\n      jumpi\n      0x0100\n      dup1\n      dup4\n      sload\n      div\n      mul\n      dup4\n      mstore\n      swap2\n      0x20\n      add\n      swap2\n      jump(tag_144)\n    tag_145:\n      dup3\n      add\n      swap2\n      swap1\n      0x00\n      mstore\n      keccak256(0x00, 0x20)\n      swap1\n    tag_146:\n      dup2\n      sload\n      dup2\n      mstore\n      swap1\n      0x01\n      add\n      swap1\n      0x20\n      add\n      dup1\n      dup4\n      gt\n      tag_146\n      jumpi\n      dup3\n      swap1\n      sub\n      0x1f\n      and\n      dup3\n      add\n      swap2\n    tag_144:\n      pop\n      pop\n      pop\n      pop\n      pop\n      swap1\n      dup1\n      0x02\n      add\n      sload\n      swap1\n      pop\n      dup4\n      jump\t// out\n        /* \"contracts/ParibuHub.sol\":537:559  int public signedCount */\n    tag_58:\n      sload(0x02)\n      dup2\n      jump\t// out\n        /* \"contracts/ParibuHub.sol\":2543:2673  function addAdmin(Account memory admin) public {... */\n    tag_63:\n        /* \"contracts/ParibuHub.sol\":2614:2615  3 */\n      0x03\n        /* \"contracts/ParibuHub.sol\":2608:2613  index */\n      sload(0x13)\n        /* \"contracts/ParibuHub.sol\":2608:2615  index<3 */\n      lt\n        /* \"contracts/ParibuHub.sol\":2600:2631  require(index<3, \"Has no slot\") */\n      tag_148\n      jumpi\n      mload(0x40)\n      0x08c379a000000000000000000000000000000000000000000000000000000000\n      dup2\n      mstore\n      0x04\n      add\n      tag_149\n      swap1\n      tag_150\n      jump\t// in\n    tag_149:\n      mload(0x40)\n      dup1\n      swap2\n      sub\n      swap1\n      revert\n    tag_148:\n        /* \"contracts/ParibuHub.sol\":2660:2665  admin */\n      dup1\n        /* \"contracts/ParibuHub.sol\":2642:2648  admins */\n      0x0a\n        /* \"contracts/ParibuHub.sol\":2649:2654  index */\n      0x13\n      0x00\n        /* \"contracts/ParibuHub.sol\":2649:2656  index++ */\n      dup2\n      sload\n      dup1\n      swap3\n      swap2\n      swap1\n      tag_151\n      swap1\n      tag_152\n      jump\t// in\n    tag_151:\n      swap2\n      swap1\n      pop\n      sstore\n        /* \"contracts/ParibuHub.sol\":2642:2657  admins[index++] */\n      0x03\n      dup2\n      lt\n      tag_153\n      jumpi\n      tag_154\n      tag_155\n      jump\t// in\n    tag_154:\n    tag_153:\n      0x03\n      mul\n      add\n        /* \"contracts/ParibuHub.sol\":2642:2665  admins[index++] = admin */\n      0x00\n      dup3\n      add\n      mload\n      dup2\n      0x00\n      add\n      swap1\n      dup2\n      tag_157\n      swap2\n      swap1\n      tag_121\n      jump\t// in\n    tag_157:\n      pop\n      0x20\n      dup3\n      add\n      mload\n      dup2\n      0x01\n      add\n      swap1\n      dup2\n      tag_158\n      swap2\n      swap1\n      tag_121\n      jump\t// in\n    tag_158:\n      pop\n      0x40\n      dup3\n      add\n      mload\n      dup2\n      0x02\n      add\n      sstore\n      swap1\n      pop\n      pop\n        /* \"contracts/ParibuHub.sol\":2543:2673  function addAdmin(Account memory admin) public {... */\n      pop\n      jump\t// out\n        /* \"contracts/ParibuHub.sol\":254:294  function extraMethod() public {... */\n    tag_65:\n      jump\t// out\n        /* \"contracts/ParibuHub.sol\":1130:1238  function getSizeOfErrorMessages() public view returns(uint256){... */\n    tag_67:\n        /* \"contracts/ParibuHub.sol\":1184:1191  uint256 */\n      0x00\n        /* \"contracts/ParibuHub.sol\":1210:1223  errorMessages */\n      0x05\n        /* \"contracts/ParibuHub.sol\":1210:1230  errorMessages.length */\n      dup1\n      sload\n      swap1\n      pop\n        /* \"contracts/ParibuHub.sol\":1203:1230  return errorMessages.length */\n      swap1\n      pop\n        /* \"contracts/ParibuHub.sol\":1130:1238  function getSizeOfErrorMessages() public view returns(uint256){... */\n      swap1\n      jump\t// out\n        /* \"contracts/ParibuHub.sol\":2872:2960  function iAmReady() external pure returns(string memory){... */\n    tag_70:\n        /* \"contracts/ParibuHub.sol\":2914:2927  string memory */\n      0x60\n        /* \"contracts/ParibuHub.sol\":2935:2955  return \"I am ready!\" */\n      mload(0x40)\n      dup1\n      0x40\n      add\n      0x40\n      mstore\n      dup1\n      0x0b\n      dup2\n      mstore\n      0x20\n      add\n      0x4920616d20726561647921000000000000000000000000000000000000000000\n      dup2\n      mstore\n      pop\n      swap1\n      pop\n        /* \"contracts/ParibuHub.sol\":2872:2960  function iAmReady() external pure returns(string memory){... */\n      swap1\n      jump\t// out\n        /* \"contracts/ParibuHub.sol\":1626:1724  function increment(uint _increment) public isAllowed {... */\n    tag_75:\n        /* \"contracts/ParibuHub.sol\":1378:1387  allowance */\n      0x04\n        /* \"contracts/ParibuHub.sol\":1378:1394  allowance[owner] */\n      0x00\n        /* \"contracts/ParibuHub.sol\":1388:1393  owner */\n      0x03\n      0x00\n      swap1\n      sload\n      swap1\n      0x0100\n      exp\n      swap1\n      div\n      0xffffffffffffffffffffffffffffffffffffffff\n      and\n        /* \"contracts/ParibuHub.sol\":1378:1394  allowance[owner] */\n      0xffffffffffffffffffffffffffffffffffffffff\n      and\n      0xffffffffffffffffffffffffffffffffffffffff\n      and\n      dup2\n      mstore\n      0x20\n      add\n      swap1\n      dup2\n      mstore\n      0x20\n      add\n      0x00\n      keccak256\n        /* \"contracts/ParibuHub.sol\":1378:1406  allowance[owner][msg.sender] */\n      0x00\n        /* \"contracts/ParibuHub.sol\":1395:1405  msg.sender */\n      caller\n        /* \"contracts/ParibuHub.sol\":1378:1406  allowance[owner][msg.sender] */\n      0xffffffffffffffffffffffffffffffffffffffff\n      and\n      0xffffffffffffffffffffffffffffffffffffffff\n      and\n      dup2\n      mstore\n      0x20\n      add\n      swap1\n      dup2\n      mstore\n      0x20\n      add\n      0x00\n      keccak256\n      0x00\n      swap1\n      sload\n      swap1\n      0x0100\n      exp\n      swap1\n      div\n      0xff\n      and\n        /* \"contracts/ParibuHub.sol\":1408:1421  errorMessages */\n      0x05\n        /* \"contracts/ParibuHub.sol\":1422:1423  0 */\n      0x00\n        /* \"contracts/ParibuHub.sol\":1408:1424  errorMessages[0] */\n      dup2\n      sload\n      dup2\n      lt\n      tag_163\n      jumpi\n      tag_164\n      tag_155\n      jump\t// in\n    tag_164:\n    tag_163:\n      swap1\n      0x00\n      mstore\n      keccak256(0x00, 0x20)\n      add\n        /* \"contracts/ParibuHub.sol\":1370:1425  require(allowance[owner][msg.sender], errorMessages[0]) */\n      swap1\n      tag_166\n      jumpi\n      mload(0x40)\n      0x08c379a000000000000000000000000000000000000000000000000000000000\n      dup2\n      mstore\n      0x04\n      add\n      tag_167\n      swap2\n      swap1\n      tag_168\n      jump\t// in\n    tag_167:\n      mload(0x40)\n      dup1\n      swap2\n      sub\n      swap1\n      revert\n    tag_166:\n      pop\n        /* \"contracts/ParibuHub.sol\":1706:1716  _increment */\n      dup1\n        /* \"contracts/ParibuHub.sol\":1698:1703  count */\n      sload(0x01)\n        /* \"contracts/ParibuHub.sol\":1698:1716  count + _increment */\n      tag_170\n      swap2\n      swap1\n      tag_171\n      jump\t// in\n    tag_170:\n        /* \"contracts/ParibuHub.sol\":1690:1695  count */\n      0x01\n        /* \"contracts/ParibuHub.sol\":1690:1716  count = count + _increment */\n      dup2\n      swap1\n      sstore\n      pop\n        /* \"contracts/ParibuHub.sol\":1626:1724  function increment(uint _increment) public isAllowed {... */\n      pop\n      jump\t// out\n        /* \"contracts/ParibuHub.sol\":327:422  function getFullName() public pure returns(string memory){... */\n    tag_77:\n        /* \"contracts/ParibuHub.sol\":370:383  string memory */\n      0x60\n        /* \"contracts/ParibuHub.sol\":395:414  return \"Veli Uysal\" */\n      mload(0x40)\n      dup1\n      0x40\n      add\n      0x40\n      mstore\n      dup1\n      0x0a\n      dup2\n      mstore\n      0x20\n      add\n      0x56656c6920557973616c00000000000000000000000000000000000000000000\n      dup2\n      mstore\n      pop\n      swap1\n      pop\n        /* \"contracts/ParibuHub.sol\":327:422  function getFullName() public pure returns(string memory){... */\n      swap1\n      jump\t// out\n        /* \"contracts/ParibuHub.sol\":566:586  address public owner */\n    tag_80:\n      0x03\n      0x00\n      swap1\n      sload\n      swap1\n      0x0100\n      exp\n      swap1\n      div\n      0xffffffffffffffffffffffffffffffffffffffff\n      and\n      dup2\n      jump\t// out\n        /* \"contracts/ParibuHub.sol\":1965:2169  function assignValue(string memory _name, string memory _surname, uint256 _balance) public {... */\n    tag_86:\n        /* \"contracts/ParibuHub.sol\":2082:2087  _name */\n      dup3\n        /* \"contracts/ParibuHub.sol\":2067:2074  account */\n      0x06\n        /* \"contracts/ParibuHub.sol\":2067:2079  account.name */\n      0x00\n      add\n        /* \"contracts/ParibuHub.sol\":2067:2087  account.name = _name */\n      swap1\n      dup2\n      tag_174\n      swap2\n      swap1\n      tag_121\n      jump\t// in\n    tag_174:\n      pop\n        /* \"contracts/ParibuHub.sol\":2116:2124  _surname */\n      dup2\n        /* \"contracts/ParibuHub.sol\":2098:2105  account */\n      0x06\n        /* \"contracts/ParibuHub.sol\":2098:2113  account.surname */\n      0x01\n      add\n        /* \"contracts/ParibuHub.sol\":2098:2124  account.surname = _surname */\n      swap1\n      dup2\n      tag_175\n      swap2\n      swap1\n      tag_121\n      jump\t// in\n    tag_175:\n      pop\n        /* \"contracts/ParibuHub.sol\":2153:2161  _balance */\n      dup1\n        /* \"contracts/ParibuHub.sol\":2135:2142  account */\n      0x06\n        /* \"contracts/ParibuHub.sol\":2135:2150  account.balance */\n      0x02\n      add\n        /* \"contracts/ParibuHub.sol\":2135:2161  account.balance = _balance */\n      dup2\n      swap1\n      sstore\n      pop\n        /* \"contracts/ParibuHub.sol\":1965:2169  function assignValue(string memory _name, string memory _surname, uint256 _balance) public {... */\n      pop\n      pop\n      pop\n      jump\t// out\n        /* \"contracts/ParibuHub.sol\":1732:1837  function signedIncrement(int _increment) public {... */\n    tag_90:\n        /* \"contracts/ParibuHub.sol\":1819:1829  _increment */\n      dup1\n        /* \"contracts/ParibuHub.sol\":1805:1816  signedCount */\n      sload(0x02)\n        /* \"contracts/ParibuHub.sol\":1805:1829  signedCount + _increment */\n      tag_177\n      swap2\n      swap1\n      tag_178\n      jump\t// in\n    tag_177:\n        /* \"contracts/ParibuHub.sol\":1791:1802  signedCount */\n      0x02\n        /* \"contracts/ParibuHub.sol\":1791:1829  signedCount = signedCount + _increment */\n      dup2\n      swap1\n      sstore\n      pop\n        /* \"contracts/ParibuHub.sol\":1732:1837  function signedIncrement(int _increment) public {... */\n      pop\n      jump\t// out\n        /* \"contracts/ParibuHub.sol\":661:690  string[] public errorMessages */\n    tag_93:\n      0x05\n      dup2\n      dup2\n      sload\n      dup2\n      lt\n      tag_179\n      jumpi\n      0x00\n      dup1\n      revert\n    tag_179:\n      swap1\n      0x00\n      mstore\n      keccak256(0x00, 0x20)\n      add\n      0x00\n      swap2\n      pop\n      swap1\n      pop\n      dup1\n      sload\n      tag_181\n      swap1\n      tag_126\n      jump\t// in\n    tag_181:\n      dup1\n      0x1f\n      add\n      0x20\n      dup1\n      swap2\n      div\n      mul\n      0x20\n      add\n      mload(0x40)\n      swap1\n      dup2\n      add\n      0x40\n      mstore\n      dup1\n      swap3\n      swap2\n      swap1\n      dup2\n      dup2\n      mstore\n      0x20\n      add\n      dup3\n      dup1\n      sload\n      tag_182\n      swap1\n      tag_126\n      jump\t// in\n    tag_182:\n      dup1\n      iszero\n      tag_183\n      jumpi\n      dup1\n      0x1f\n      lt\n      tag_184\n      jumpi\n      0x0100\n      dup1\n      dup4\n      sload\n      div\n      mul\n      dup4\n      mstore\n      swap2\n      0x20\n      add\n      swap2\n      jump(tag_183)\n    tag_184:\n      dup3\n      add\n      swap2\n      swap1\n      0x00\n      mstore\n      keccak256(0x00, 0x20)\n      swap1\n    tag_185:\n      dup2\n      sload\n      dup2\n      mstore\n      swap1\n      0x01\n      add\n      swap1\n      0x20\n      add\n      dup1\n      dup4\n      gt\n      tag_185\n      jumpi\n      dup3\n      swap1\n      sub\n      0x1f\n      and\n      dup3\n      add\n      swap2\n    tag_183:\n      pop\n      pop\n      pop\n      pop\n      pop\n      dup2\n      jump\t// out\n        /* \"contracts/ParibuHub.sol\":2965:3058  function whoAmI() public override pure returns(string memory){... */\n    tag_96:\n        /* \"contracts/ParibuHub.sol\":3012:3025  string memory */\n      0x60\n        /* \"contracts/ParibuHub.sol\":3033:3053  return \"0xVeliUysal\" */\n      mload(0x40)\n      dup1\n      0x40\n      add\n      0x40\n      mstore\n      dup1\n      0x0b\n      dup2\n      mstore\n      0x20\n      add\n      0x307856656c69557973616c000000000000000000000000000000000000000000\n      dup2\n      mstore\n      pop\n      swap1\n      pop\n        /* \"contracts/ParibuHub.sol\":2965:3058  function whoAmI() public override pure returns(string memory){... */\n      swap1\n      jump\t// out\n        /* \"contracts/ParibuHub.sol\":2276:2411  function getAccount() public view returns(Account memory){... */\n    tag_99:\n        /* \"contracts/ParibuHub.sol\":2318:2332  Account memory */\n      tag_187\n      tag_188\n      jump\t// in\n    tag_187:\n        /* \"contracts/ParibuHub.sol\":2344:2367  Account memory _account */\n      0x00\n        /* \"contracts/ParibuHub.sol\":2370:2377  account */\n      0x06\n        /* \"contracts/ParibuHub.sol\":2344:2377  Account memory _account = account */\n      mload(0x40)\n      dup1\n      0x60\n      add\n      0x40\n      mstore\n      swap1\n      dup2\n      0x00\n      dup3\n      add\n      dup1\n      sload\n      tag_190\n      swap1\n      tag_126\n      jump\t// in\n    tag_190:\n      dup1\n      0x1f\n      add\n      0x20\n      dup1\n      swap2\n      div\n      mul\n      0x20\n      add\n      mload(0x40)\n      swap1\n      dup2\n      add\n      0x40\n      mstore\n      dup1\n      swap3\n      swap2\n      swap1\n      dup2\n      dup2\n      mstore\n      0x20\n      add\n      dup3\n      dup1\n      sload\n      tag_191\n      swap1\n      tag_126\n      jump\t// in\n    tag_191:\n      dup1\n      iszero\n      tag_192\n      jumpi\n      dup1\n      0x1f\n      lt\n      tag_193\n      jumpi\n      0x0100\n      dup1\n      dup4\n      sload\n      div\n      mul\n      dup4\n      mstore\n      swap2\n      0x20\n      add\n      swap2\n      jump(tag_192)\n    tag_193:\n      dup3\n      add\n      swap2\n      swap1\n      0x00\n      mstore\n      keccak256(0x00, 0x20)\n      swap1\n    tag_194:\n      dup2\n      sload\n      dup2\n      mstore\n      swap1\n      0x01\n      add\n      swap1\n      0x20\n      add\n      dup1\n      dup4\n      gt\n      tag_194\n      jumpi\n      dup3\n      swap1\n      sub\n      0x1f\n      and\n      dup3\n      add\n      swap2\n    tag_192:\n      pop\n      pop\n      pop\n      pop\n      pop\n      dup2\n      mstore\n      0x20\n      add\n      0x01\n      dup3\n      add\n      dup1\n      sload\n      tag_195\n      swap1\n      tag_126\n      jump\t// in\n    tag_195:\n      dup1\n      0x1f\n      add\n      0x20\n      dup1\n      swap2\n      div\n      mul\n      0x20\n      add\n      mload(0x40)\n      swap1\n      dup2\n      add\n      0x40\n      mstore\n      dup1\n      swap3\n      swap2\n      swap1\n      dup2\n      dup2\n      mstore\n      0x20\n      add\n      dup3\n      dup1\n      sload\n      tag_196\n      swap1\n      tag_126\n      jump\t// in\n    tag_196:\n      dup1\n      iszero\n      tag_197\n      jumpi\n      dup1\n      0x1f\n      lt\n      tag_198\n      jumpi\n      0x0100\n      dup1\n      dup4\n      sload\n      div\n      mul\n      dup4\n      mstore\n      swap2\n      0x20\n      add\n      swap2\n      jump(tag_197)\n    tag_198:\n      dup3\n      add\n      swap2\n      swap1\n      0x00\n      mstore\n      keccak256(0x00, 0x20)\n      swap1\n    tag_199:\n      dup2\n      sload\n      dup2\n      mstore\n      swap1\n      0x01\n      add\n      swap1\n      0x20\n      add\n      dup1\n      dup4\n      gt\n      tag_199\n      jumpi\n      dup3\n      swap1\n      sub\n      0x1f\n      and\n      dup3\n      add\n      swap2\n    tag_197:\n      pop\n      pop\n      pop\n      pop\n      pop\n      dup2\n      mstore\n      0x20\n      add\n      0x02\n      dup3\n      add\n      sload\n      dup2\n      mstore\n      pop\n      pop\n      swap1\n      pop\n        /* \"contracts/ParibuHub.sol\":2395:2403  _account */\n      dup1\n        /* \"contracts/ParibuHub.sol\":2388:2403  return _account */\n      swap2\n      pop\n      pop\n        /* \"contracts/ParibuHub.sol\":2276:2411  function getAccount() public view returns(Account memory){... */\n      swap1\n      jump\t// out\n        /* \"contracts/ParibuHub.sol\":593:654  mapping(address => mapping(address => bool)) public allowance */\n    tag_105:\n      mstore(0x20, 0x04)\n      dup2\n      0x00\n      mstore\n      mstore(0x20, keccak256(0x00, 0x40))\n      dup1\n      0x00\n      mstore\n      keccak256(0x00, 0x40)\n      0x00\n      swap2\n      pop\n      swap2\n      pop\n      swap1\n      sload\n      swap1\n      0x0100\n      exp\n      swap1\n      div\n      0xff\n      and\n      dup2\n      jump\t// out\n        /* \"contracts/ParibuHub.sol\":2677:2867  function getAllAdmins() public view returns(Account[3] memory) {... */\n    tag_108:\n        /* \"contracts/ParibuHub.sol\":2721:2738  Account[3] memory */\n      tag_200\n      tag_201\n      jump\t// in\n    tag_200:\n        /* \"contracts/ParibuHub.sol\":2747:2772  Account[3] memory _admins */\n      tag_203\n      tag_201\n      jump\t// in\n    tag_203:\n        /* \"contracts/ParibuHub.sol\":2783:2789  uint i */\n      0x00\n        /* \"contracts/ParibuHub.sol\":2779:2841  for(uint i=0;i<3;i++){... */\n    tag_204:\n        /* \"contracts/ParibuHub.sol\":2794:2795  3 */\n      0x03\n        /* \"contracts/ParibuHub.sol\":2792:2793  i */\n      dup2\n        /* \"contracts/ParibuHub.sol\":2792:2795  i<3 */\n      lt\n        /* \"contracts/ParibuHub.sol\":2779:2841  for(uint i=0;i<3;i++){... */\n      iszero\n      tag_205\n      jumpi\n        /* \"contracts/ParibuHub.sol\":2824:2830  admins */\n      0x0a\n        /* \"contracts/ParibuHub.sol\":2831:2832  i */\n      dup2\n        /* \"contracts/ParibuHub.sol\":2824:2833  admins[i] */\n      0x03\n      dup2\n      lt\n      tag_207\n      jumpi\n      tag_208\n      tag_155\n      jump\t// in\n    tag_208:\n    tag_207:\n      0x03\n      mul\n      add\n        /* \"contracts/ParibuHub.sol\":2811:2833  _admins[i] = admins[i] */\n      mload(0x40)\n      dup1\n      0x60\n      add\n      0x40\n      mstore\n      swap1\n      dup2\n      0x00\n      dup3\n      add\n      dup1\n      sload\n      tag_210\n      swap1\n      tag_126\n      jump\t// in\n    tag_210:\n      dup1\n      0x1f\n      add\n      0x20\n      dup1\n      swap2\n      div\n      mul\n      0x20\n      add\n      mload(0x40)\n      swap1\n      dup2\n      add\n      0x40\n      mstore\n      dup1\n      swap3\n      swap2\n      swap1\n      dup2\n      dup2\n      mstore\n      0x20\n      add\n      dup3\n      dup1\n      sload\n      tag_211\n      swap1\n      tag_126\n      jump\t// in\n    tag_211:\n      dup1\n      iszero\n      tag_212\n      jumpi\n      dup1\n      0x1f\n      lt\n      tag_213\n      jumpi\n      0x0100\n      dup1\n      dup4\n      sload\n      div\n      mul\n      dup4\n      mstore\n      swap2\n      0x20\n      add\n      swap2\n      jump(tag_212)\n    tag_213:\n      dup3\n      add\n      swap2\n      swap1\n      0x00\n      mstore\n      keccak256(0x00, 0x20)\n      swap1\n    tag_214:\n      dup2\n      sload\n      dup2\n      mstore\n      swap1\n      0x01\n      add\n      swap1\n      0x20\n      add\n      dup1\n      dup4\n      gt\n      tag_214\n      jumpi\n      dup3\n      swap1\n      sub\n      0x1f\n      and\n      dup3\n      add\n      swap2\n    tag_212:\n      pop\n      pop\n      pop\n      pop\n      pop\n      dup2\n      mstore\n      0x20\n      add\n      0x01\n      dup3\n      add\n      dup1\n      sload\n      tag_215\n      swap1\n      tag_126\n      jump\t// in\n    tag_215:\n      dup1\n      0x1f\n      add\n      0x20\n      dup1\n      swap2\n      div\n      mul\n      0x20\n      add\n      mload(0x40)\n      swap1\n      dup2\n      add\n      0x40\n      mstore\n      dup1\n      swap3\n      swap2\n      swap1\n      dup2\n      dup2\n      mstore\n      0x20\n      add\n      dup3\n      dup1\n      sload\n      tag_216\n      swap1\n      tag_126\n      jump\t// in\n    tag_216:\n      dup1\n      iszero\n      tag_217\n      jumpi\n      dup1\n      0x1f\n      lt\n      tag_218\n      jumpi\n      0x0100\n      dup1\n      dup4\n      sload\n      div\n      mul\n      dup4\n      mstore\n      swap2\n      0x20\n      add\n      swap2\n      jump(tag_217)\n    tag_218:\n      dup3\n      add\n      swap2\n      swap1\n      0x00\n      mstore\n      keccak256(0x00, 0x20)\n      swap1\n    tag_219:\n      dup2\n      sload\n      dup2\n      mstore\n      swap1\n      0x01\n      add\n      swap1\n      0x20\n      add\n      dup1\n      dup4\n      gt\n      tag_219\n      jumpi\n      dup3\n      swap1\n      sub\n      0x1f\n      and\n      dup3\n      add\n      swap2\n    tag_217:\n      pop\n      pop\n      pop\n      pop\n      pop\n      dup2\n      mstore\n      0x20\n      add\n      0x02\n      dup3\n      add\n      sload\n      dup2\n      mstore\n      pop\n      pop\n        /* \"contracts/ParibuHub.sol\":2811:2818  _admins */\n      dup3\n        /* \"contracts/ParibuHub.sol\":2819:2820  i */\n      dup3\n        /* \"contracts/ParibuHub.sol\":2811:2821  _admins[i] */\n      0x03\n      dup2\n      lt\n      tag_220\n      jumpi\n      tag_221\n      tag_155\n      jump\t// in\n    tag_221:\n    tag_220:\n      0x20\n      mul\n      add\n        /* \"contracts/ParibuHub.sol\":2811:2833  _admins[i] = admins[i] */\n      dup2\n      swap1\n      mstore\n      pop\n        /* \"contracts/ParibuHub.sol\":2796:2799  i++ */\n      dup1\n      dup1\n      tag_222\n      swap1\n      tag_152\n      jump\t// in\n    tag_222:\n      swap2\n      pop\n      pop\n        /* \"contracts/ParibuHub.sol\":2779:2841  for(uint i=0;i<3;i++){... */\n      jump(tag_204)\n    tag_205:\n      pop\n        /* \"contracts/ParibuHub.sol\":2856:2863  _admins */\n      dup1\n        /* \"contracts/ParibuHub.sol\":2849:2863  return _admins */\n      swap2\n      pop\n      pop\n        /* \"contracts/ParibuHub.sol\":2677:2867  function getAllAdmins() public view returns(Account[3] memory) {... */\n      swap1\n      jump\t// out\n        /* \"contracts/ParibuHub.sol\":2177:2268  function assignValue2(Account memory _account) public {... */\n    tag_113:\n        /* \"contracts/ParibuHub.sol\":2252:2260  _account */\n      dup1\n        /* \"contracts/ParibuHub.sol\":2242:2249  account */\n      0x06\n        /* \"contracts/ParibuHub.sol\":2242:2260  account = _account */\n      0x00\n      dup3\n      add\n      mload\n      dup2\n      0x00\n      add\n      swap1\n      dup2\n      tag_224\n      swap2\n      swap1\n      tag_121\n      jump\t// in\n    tag_224:\n      pop\n      0x20\n      dup3\n      add\n      mload\n      dup2\n      0x01\n      add\n      swap1\n      dup2\n      tag_225\n      swap2\n      swap1\n      tag_121\n      jump\t// in\n    tag_225:\n      pop\n      0x40\n      dup3\n      add\n      mload\n      dup2\n      0x02\n      add\n      sstore\n      swap1\n      pop\n      pop\n        /* \"contracts/ParibuHub.sol\":2177:2268  function assignValue2(Account memory _account) public {... */\n      pop\n      jump\t// out\n        /* \"contracts/ParibuHub.sol\":1845:1957  function assignAllowance(address _address) public onlyOwner {... */\n    tag_116:\n        /* \"contracts/ParibuHub.sol\":1504:1514  msg.sender */\n      caller\n        /* \"contracts/ParibuHub.sol\":1495:1514  owner == msg.sender */\n      0xffffffffffffffffffffffffffffffffffffffff\n      and\n        /* \"contracts/ParibuHub.sol\":1495:1500  owner */\n      0x03\n      0x00\n      swap1\n      sload\n      swap1\n      0x0100\n      exp\n      swap1\n      div\n      0xffffffffffffffffffffffffffffffffffffffff\n      and\n        /* \"contracts/ParibuHub.sol\":1495:1514  owner == msg.sender */\n      0xffffffffffffffffffffffffffffffffffffffff\n      and\n      eq\n        /* \"contracts/ParibuHub.sol\":1516:1529  errorMessages */\n      0x05\n        /* \"contracts/ParibuHub.sol\":1530:1531  1 */\n      0x01\n        /* \"contracts/ParibuHub.sol\":1516:1532  errorMessages[1] */\n      dup2\n      sload\n      dup2\n      lt\n      tag_227\n      jumpi\n      tag_228\n      tag_155\n      jump\t// in\n    tag_228:\n    tag_227:\n      swap1\n      0x00\n      mstore\n      keccak256(0x00, 0x20)\n      add\n        /* \"contracts/ParibuHub.sol\":1487:1533  require(owner == msg.sender, errorMessages[1]) */\n      swap1\n      tag_230\n      jumpi\n      mload(0x40)\n      0x08c379a000000000000000000000000000000000000000000000000000000000\n      dup2\n      mstore\n      0x04\n      add\n      tag_231\n      swap2\n      swap1\n      tag_168\n      jump\t// in\n    tag_231:\n      mload(0x40)\n      dup1\n      swap2\n      sub\n      swap1\n      revert\n    tag_230:\n      pop\n        /* \"contracts/ParibuHub.sol\":1945:1949  true */\n      0x01\n        /* \"contracts/ParibuHub.sol\":1916:1925  allowance */\n      0x04\n        /* \"contracts/ParibuHub.sol\":1916:1932  allowance[owner] */\n      0x00\n        /* \"contracts/ParibuHub.sol\":1926:1931  owner */\n      0x03\n      0x00\n      swap1\n      sload\n      swap1\n      0x0100\n      exp\n      swap1\n      div\n      0xffffffffffffffffffffffffffffffffffffffff\n      and\n        /* \"contracts/ParibuHub.sol\":1916:1932  allowance[owner] */\n      0xffffffffffffffffffffffffffffffffffffffff\n      and\n      0xffffffffffffffffffffffffffffffffffffffff\n      and\n      dup2\n      mstore\n      0x20\n      add\n      swap1\n      dup2\n      mstore\n      0x20\n      add\n      0x00\n      keccak256\n        /* \"contracts/ParibuHub.sol\":1916:1942  allowance[owner][_address] */\n      0x00\n        /* \"contracts/ParibuHub.sol\":1933:1941  _address */\n      dup4\n        /* \"contracts/ParibuHub.sol\":1916:1942  allowance[owner][_address] */\n      0xffffffffffffffffffffffffffffffffffffffff\n      and\n      0xffffffffffffffffffffffffffffffffffffffff\n      and\n      dup2\n      mstore\n      0x20\n      add\n      swap1\n      dup2\n      mstore\n      0x20\n      add\n      0x00\n      keccak256\n      0x00\n        /* \"contracts/ParibuHub.sol\":1916:1949  allowance[owner][_address] = true */\n      0x0100\n      exp\n      dup2\n      sload\n      dup2\n      0xff\n      mul\n      not\n      and\n      swap1\n      dup4\n      iszero\n      iszero\n      mul\n      or\n      swap1\n      sstore\n      pop\n        /* \"contracts/ParibuHub.sol\":1845:1957  function assignAllowance(address _address) public onlyOwner {... */\n      pop\n      jump\t// out\n        /* \"contracts/ParibuHub.sol\":1561:1618  function oneIncrement() public {... */\n    tag_118:\n        /* \"contracts/ParibuHub.sol\":1605:1610  count */\n      0x01\n      0x00\n        /* \"contracts/ParibuHub.sol\":1603:1610  ++count */\n      dup2\n      sload\n      tag_234\n      swap1\n      tag_152\n      jump\t// in\n    tag_234:\n      swap2\n      swap1\n      pop\n      dup2\n      swap1\n      sstore\n      pop\n        /* \"contracts/ParibuHub.sol\":1561:1618  function oneIncrement() public {... */\n      jump\t// out\n    tag_188:\n      mload(0x40)\n      dup1\n      0x60\n      add\n      0x40\n      mstore\n      dup1\n      0x60\n      dup2\n      mstore\n      0x20\n      add\n      0x60\n      dup2\n      mstore\n      0x20\n      add\n      0x00\n      dup2\n      mstore\n      pop\n      swap1\n      jump\t// out\n    tag_201:\n      mload(0x40)\n      dup1\n      0x60\n      add\n      0x40\n      mstore\n      dup1\n      0x03\n      swap1\n    tag_235:\n      tag_236\n      tag_188\n      jump\t// in\n    tag_236:\n      dup2\n      mstore\n      0x20\n      add\n      swap1\n      0x01\n      swap1\n      sub\n      swap1\n      dup2\n      tag_235\n      jumpi\n      swap1\n      pop\n      pop\n      swap1\n      jump\t// out\n        /* \"#utility.yul\":7:82   */\n    tag_237:\n        /* \"#utility.yul\":40:46   */\n      0x00\n        /* \"#utility.yul\":73:75   */\n      0x40\n        /* \"#utility.yul\":67:76   */\n      mload\n        /* \"#utility.yul\":57:76   */\n      swap1\n      pop\n        /* \"#utility.yul\":7:82   */\n      swap1\n      jump\t// out\n        /* \"#utility.yul\":88:205   */\n    tag_238:\n        /* \"#utility.yul\":197:198   */\n      0x00\n        /* \"#utility.yul\":194:195   */\n      dup1\n        /* \"#utility.yul\":187:199   */\n      revert\n        /* \"#utility.yul\":211:328   */\n    tag_239:\n        /* \"#utility.yul\":320:321   */\n      0x00\n        /* \"#utility.yul\":317:318   */\n      dup1\n        /* \"#utility.yul\":310:322   */\n      revert\n        /* \"#utility.yul\":334:451   */\n    tag_240:\n        /* \"#utility.yul\":443:444   */\n      0x00\n        /* \"#utility.yul\":440:441   */\n      dup1\n        /* \"#utility.yul\":433:445   */\n      revert\n        /* \"#utility.yul\":457:559   */\n    tag_241:\n        /* \"#utility.yul\":498:504   */\n      0x00\n        /* \"#utility.yul\":549:551   */\n      0x1f\n        /* \"#utility.yul\":545:552   */\n      not\n        /* \"#utility.yul\":540:542   */\n      0x1f\n        /* \"#utility.yul\":533:538   */\n      dup4\n        /* \"#utility.yul\":529:543   */\n      add\n        /* \"#utility.yul\":525:553   */\n      and\n        /* \"#utility.yul\":515:553   */\n      swap1\n      pop\n        /* \"#utility.yul\":457:559   */\n      swap2\n      swap1\n      pop\n      jump\t// out\n        /* \"#utility.yul\":565:745   */\n    tag_242:\n        /* \"#utility.yul\":613:690   */\n      0x4e487b7100000000000000000000000000000000000000000000000000000000\n        /* \"#utility.yul\":610:611   */\n      0x00\n        /* \"#utility.yul\":603:691   */\n      mstore\n        /* \"#utility.yul\":710:714   */\n      0x41\n        /* \"#utility.yul\":707:708   */\n      0x04\n        /* \"#utility.yul\":700:715   */\n      mstore\n        /* \"#utility.yul\":734:738   */\n      0x24\n        /* \"#utility.yul\":731:732   */\n      0x00\n        /* \"#utility.yul\":724:739   */\n      revert\n        /* \"#utility.yul\":751:1032   */\n    tag_243:\n        /* \"#utility.yul\":834:861   */\n      tag_313\n        /* \"#utility.yul\":856:860   */\n      dup3\n        /* \"#utility.yul\":834:861   */\n      tag_241\n      jump\t// in\n    tag_313:\n        /* \"#utility.yul\":826:832   */\n      dup2\n        /* \"#utility.yul\":822:862   */\n      add\n        /* \"#utility.yul\":964:970   */\n      dup2\n        /* \"#utility.yul\":952:962   */\n      dup2\n        /* \"#utility.yul\":949:971   */\n      lt\n        /* \"#utility.yul\":928:946   */\n      0xffffffffffffffff\n        /* \"#utility.yul\":916:926   */\n      dup3\n        /* \"#utility.yul\":913:947   */\n      gt\n        /* \"#utility.yul\":910:972   */\n      or\n        /* \"#utility.yul\":907:995   */\n      iszero\n      tag_314\n      jumpi\n        /* \"#utility.yul\":975:993   */\n      tag_315\n      tag_242\n      jump\t// in\n    tag_315:\n        /* \"#utility.yul\":907:995   */\n    tag_314:\n        /* \"#utility.yul\":1015:1025   */\n      dup1\n        /* \"#utility.yul\":1011:1013   */\n      0x40\n        /* \"#utility.yul\":1004:1026   */\n      mstore\n        /* \"#utility.yul\":794:1032   */\n      pop\n        /* \"#utility.yul\":751:1032   */\n      pop\n      pop\n      jump\t// out\n        /* \"#utility.yul\":1038:1167   */\n    tag_244:\n        /* \"#utility.yul\":1072:1078   */\n      0x00\n        /* \"#utility.yul\":1099:1119   */\n      tag_317\n      tag_237\n      jump\t// in\n    tag_317:\n        /* \"#utility.yul\":1089:1119   */\n      swap1\n      pop\n        /* \"#utility.yul\":1128:1161   */\n      tag_318\n        /* \"#utility.yul\":1156:1160   */\n      dup3\n        /* \"#utility.yul\":1148:1154   */\n      dup3\n        /* \"#utility.yul\":1128:1161   */\n      tag_243\n      jump\t// in\n    tag_318:\n        /* \"#utility.yul\":1038:1167   */\n      swap2\n      swap1\n      pop\n      jump\t// out\n        /* \"#utility.yul\":1173:1290   */\n    tag_245:\n        /* \"#utility.yul\":1282:1283   */\n      0x00\n        /* \"#utility.yul\":1279:1280   */\n      dup1\n        /* \"#utility.yul\":1272:1284   */\n      revert\n        /* \"#utility.yul\":1296:1413   */\n    tag_246:\n        /* \"#utility.yul\":1405:1406   */\n      0x00\n        /* \"#utility.yul\":1402:1403   */\n      dup1\n        /* \"#utility.yul\":1395:1407   */\n      revert\n        /* \"#utility.yul\":1419:1536   */\n    tag_247:\n        /* \"#utility.yul\":1528:1529   */\n      0x00\n        /* \"#utility.yul\":1525:1526   */\n      dup1\n        /* \"#utility.yul\":1518:1530   */\n      revert\n        /* \"#utility.yul\":1542:1850   */\n    tag_248:\n        /* \"#utility.yul\":1604:1608   */\n      0x00\n        /* \"#utility.yul\":1694:1712   */\n      0xffffffffffffffff\n        /* \"#utility.yul\":1686:1692   */\n      dup3\n        /* \"#utility.yul\":1683:1713   */\n      gt\n        /* \"#utility.yul\":1680:1736   */\n      iszero\n      tag_323\n      jumpi\n        /* \"#utility.yul\":1716:1734   */\n      tag_324\n      tag_242\n      jump\t// in\n    tag_324:\n        /* \"#utility.yul\":1680:1736   */\n    tag_323:\n        /* \"#utility.yul\":1754:1783   */\n      tag_325\n        /* \"#utility.yul\":1776:1782   */\n      dup3\n        /* \"#utility.yul\":1754:1783   */\n      tag_241\n      jump\t// in\n    tag_325:\n        /* \"#utility.yul\":1746:1783   */\n      swap1\n      pop\n        /* \"#utility.yul\":1838:1842   */\n      0x20\n        /* \"#utility.yul\":1832:1836   */\n      dup2\n        /* \"#utility.yul\":1828:1843   */\n      add\n        /* \"#utility.yul\":1820:1843   */\n      swap1\n      pop\n        /* \"#utility.yul\":1542:1850   */\n      swap2\n      swap1\n      pop\n      jump\t// out\n        /* \"#utility.yul\":1856:2002   */\n    tag_249:\n        /* \"#utility.yul\":1953:1959   */\n      dup3\n        /* \"#utility.yul\":1948:1951   */\n      dup2\n        /* \"#utility.yul\":1943:1946   */\n      dup4\n        /* \"#utility.yul\":1930:1960   */\n      calldatacopy\n        /* \"#utility.yul\":1994:1995   */\n      0x00\n        /* \"#utility.yul\":1985:1991   */\n      dup4\n        /* \"#utility.yul\":1980:1983   */\n      dup4\n        /* \"#utility.yul\":1976:1992   */\n      add\n        /* \"#utility.yul\":1969:1996   */\n      mstore\n        /* \"#utility.yul\":1856:2002   */\n      pop\n      pop\n      pop\n      jump\t// out\n        /* \"#utility.yul\":2008:2433   */\n    tag_250:\n        /* \"#utility.yul\":2086:2091   */\n      0x00\n        /* \"#utility.yul\":2111:2177   */\n      tag_328\n        /* \"#utility.yul\":2127:2176   */\n      tag_329\n        /* \"#utility.yul\":2169:2175   */\n      dup5\n        /* \"#utility.yul\":2127:2176   */\n      tag_248\n      jump\t// in\n    tag_329:\n        /* \"#utility.yul\":2111:2177   */\n      tag_244\n      jump\t// in\n    tag_328:\n        /* \"#utility.yul\":2102:2177   */\n      swap1\n      pop\n        /* \"#utility.yul\":2200:2206   */\n      dup3\n        /* \"#utility.yul\":2193:2198   */\n      dup2\n        /* \"#utility.yul\":2186:2207   */\n      mstore\n        /* \"#utility.yul\":2238:2242   */\n      0x20\n        /* \"#utility.yul\":2231:2236   */\n      dup2\n        /* \"#utility.yul\":2227:2243   */\n      add\n        /* \"#utility.yul\":2276:2279   */\n      dup5\n        /* \"#utility.yul\":2267:2273   */\n      dup5\n        /* \"#utility.yul\":2262:2265   */\n      dup5\n        /* \"#utility.yul\":2258:2274   */\n      add\n        /* \"#utility.yul\":2255:2280   */\n      gt\n        /* \"#utility.yul\":2252:2364   */\n      iszero\n      tag_330\n      jumpi\n        /* \"#utility.yul\":2283:2362   */\n      tag_331\n      tag_247\n      jump\t// in\n    tag_331:\n        /* \"#utility.yul\":2252:2364   */\n    tag_330:\n        /* \"#utility.yul\":2373:2427   */\n      tag_332\n        /* \"#utility.yul\":2420:2426   */\n      dup5\n        /* \"#utility.yul\":2415:2418   */\n      dup3\n        /* \"#utility.yul\":2410:2413   */\n      dup6\n        /* \"#utility.yul\":2373:2427   */\n      tag_249\n      jump\t// in\n    tag_332:\n        /* \"#utility.yul\":2092:2433   */\n      pop\n        /* \"#utility.yul\":2008:2433   */\n      swap4\n      swap3\n      pop\n      pop\n      pop\n      jump\t// out\n        /* \"#utility.yul\":2453:2793   */\n    tag_251:\n        /* \"#utility.yul\":2509:2514   */\n      0x00\n        /* \"#utility.yul\":2558:2561   */\n      dup3\n        /* \"#utility.yul\":2551:2555   */\n      0x1f\n        /* \"#utility.yul\":2543:2549   */\n      dup4\n        /* \"#utility.yul\":2539:2556   */\n      add\n        /* \"#utility.yul\":2535:2562   */\n      slt\n        /* \"#utility.yul\":2525:2647   */\n      tag_334\n      jumpi\n        /* \"#utility.yul\":2566:2645   */\n      tag_335\n      tag_246\n      jump\t// in\n    tag_335:\n        /* \"#utility.yul\":2525:2647   */\n    tag_334:\n        /* \"#utility.yul\":2683:2689   */\n      dup2\n        /* \"#utility.yul\":2670:2690   */\n      calldataload\n        /* \"#utility.yul\":2708:2787   */\n      tag_336\n        /* \"#utility.yul\":2783:2786   */\n      dup5\n        /* \"#utility.yul\":2775:2781   */\n      dup3\n        /* \"#utility.yul\":2768:2772   */\n      0x20\n        /* \"#utility.yul\":2760:2766   */\n      dup7\n        /* \"#utility.yul\":2756:2773   */\n      add\n        /* \"#utility.yul\":2708:2787   */\n      tag_250\n      jump\t// in\n    tag_336:\n        /* \"#utility.yul\":2699:2787   */\n      swap2\n      pop\n        /* \"#utility.yul\":2515:2793   */\n      pop\n        /* \"#utility.yul\":2453:2793   */\n      swap3\n      swap2\n      pop\n      pop\n      jump\t// out\n        /* \"#utility.yul\":2799:2876   */\n    tag_252:\n        /* \"#utility.yul\":2836:2843   */\n      0x00\n        /* \"#utility.yul\":2865:2870   */\n      dup2\n        /* \"#utility.yul\":2854:2870   */\n      swap1\n      pop\n        /* \"#utility.yul\":2799:2876   */\n      swap2\n      swap1\n      pop\n      jump\t// out\n        /* \"#utility.yul\":2882:3004   */\n    tag_253:\n        /* \"#utility.yul\":2955:2979   */\n      tag_339\n        /* \"#utility.yul\":2973:2978   */\n      dup2\n        /* \"#utility.yul\":2955:2979   */\n      tag_252\n      jump\t// in\n    tag_339:\n        /* \"#utility.yul\":2948:2953   */\n      dup2\n        /* \"#utility.yul\":2945:2980   */\n      eq\n        /* \"#utility.yul\":2935:2998   */\n      tag_340\n      jumpi\n        /* \"#utility.yul\":2994:2995   */\n      0x00\n        /* \"#utility.yul\":2991:2992   */\n      dup1\n        /* \"#utility.yul\":2984:2996   */\n      revert\n        /* \"#utility.yul\":2935:2998   */\n    tag_340:\n        /* \"#utility.yul\":2882:3004   */\n      pop\n      jump\t// out\n        /* \"#utility.yul\":3010:3149   */\n    tag_254:\n        /* \"#utility.yul\":3056:3061   */\n      0x00\n        /* \"#utility.yul\":3094:3100   */\n      dup2\n        /* \"#utility.yul\":3081:3101   */\n      calldataload\n        /* \"#utility.yul\":3072:3101   */\n      swap1\n      pop\n        /* \"#utility.yul\":3110:3143   */\n      tag_342\n        /* \"#utility.yul\":3137:3142   */\n      dup2\n        /* \"#utility.yul\":3110:3143   */\n      tag_253\n      jump\t// in\n    tag_342:\n        /* \"#utility.yul\":3010:3149   */\n      swap3\n      swap2\n      pop\n      pop\n      jump\t// out\n        /* \"#utility.yul\":3187:4266   */\n    tag_255:\n        /* \"#utility.yul\":3259:3264   */\n      0x00\n        /* \"#utility.yul\":3303:3307   */\n      0x60\n        /* \"#utility.yul\":3291:3300   */\n      dup3\n        /* \"#utility.yul\":3286:3289   */\n      dup5\n        /* \"#utility.yul\":3282:3301   */\n      sub\n        /* \"#utility.yul\":3278:3308   */\n      slt\n        /* \"#utility.yul\":3275:3392   */\n      iszero\n      tag_344\n      jumpi\n        /* \"#utility.yul\":3311:3390   */\n      tag_345\n      tag_240\n      jump\t// in\n    tag_345:\n        /* \"#utility.yul\":3275:3392   */\n    tag_344:\n        /* \"#utility.yul\":3410:3431   */\n      tag_346\n        /* \"#utility.yul\":3426:3430   */\n      0x60\n        /* \"#utility.yul\":3410:3431   */\n      tag_244\n      jump\t// in\n    tag_346:\n        /* \"#utility.yul\":3401:3431   */\n      swap1\n      pop\n        /* \"#utility.yul\":3518:3519   */\n      0x00\n        /* \"#utility.yul\":3507:3516   */\n      dup3\n        /* \"#utility.yul\":3503:3520   */\n      add\n        /* \"#utility.yul\":3490:3521   */\n      calldataload\n        /* \"#utility.yul\":3548:3566   */\n      0xffffffffffffffff\n        /* \"#utility.yul\":3540:3546   */\n      dup2\n        /* \"#utility.yul\":3537:3567   */\n      gt\n        /* \"#utility.yul\":3534:3651   */\n      iszero\n      tag_347\n      jumpi\n        /* \"#utility.yul\":3570:3649   */\n      tag_348\n      tag_245\n      jump\t// in\n    tag_348:\n        /* \"#utility.yul\":3534:3651   */\n    tag_347:\n        /* \"#utility.yul\":3690:3749   */\n      tag_349\n        /* \"#utility.yul\":3745:3748   */\n      dup5\n        /* \"#utility.yul\":3736:3742   */\n      dup3\n        /* \"#utility.yul\":3725:3734   */\n      dup6\n        /* \"#utility.yul\":3721:3743   */\n      add\n        /* \"#utility.yul\":3690:3749   */\n      tag_251\n      jump\t// in\n    tag_349:\n        /* \"#utility.yul\":3683:3687   */\n      0x00\n        /* \"#utility.yul\":3676:3681   */\n      dup4\n        /* \"#utility.yul\":3672:3688   */\n      add\n        /* \"#utility.yul\":3665:3750   */\n      mstore\n        /* \"#utility.yul\":3441:3761   */\n      pop\n        /* \"#utility.yul\":3851:3853   */\n      0x20\n        /* \"#utility.yul\":3840:3849   */\n      dup3\n        /* \"#utility.yul\":3836:3854   */\n      add\n        /* \"#utility.yul\":3823:3855   */\n      calldataload\n        /* \"#utility.yul\":3882:3900   */\n      0xffffffffffffffff\n        /* \"#utility.yul\":3874:3880   */\n      dup2\n        /* \"#utility.yul\":3871:3901   */\n      gt\n        /* \"#utility.yul\":3868:3985   */\n      iszero\n      tag_350\n      jumpi\n        /* \"#utility.yul\":3904:3983   */\n      tag_351\n      tag_245\n      jump\t// in\n    tag_351:\n        /* \"#utility.yul\":3868:3985   */\n    tag_350:\n        /* \"#utility.yul\":4024:4083   */\n      tag_352\n        /* \"#utility.yul\":4079:4082   */\n      dup5\n        /* \"#utility.yul\":4070:4076   */\n      dup3\n        /* \"#utility.yul\":4059:4068   */\n      dup6\n        /* \"#utility.yul\":4055:4077   */\n      add\n        /* \"#utility.yul\":4024:4083   */\n      tag_251\n      jump\t// in\n    tag_352:\n        /* \"#utility.yul\":4017:4021   */\n      0x20\n        /* \"#utility.yul\":4010:4015   */\n      dup4\n        /* \"#utility.yul\":4006:4022   */\n      add\n        /* \"#utility.yul\":3999:4084   */\n      mstore\n        /* \"#utility.yul\":3771:4095   */\n      pop\n        /* \"#utility.yul\":4157:4159   */\n      0x40\n        /* \"#utility.yul\":4198:4247   */\n      tag_353\n        /* \"#utility.yul\":4243:4246   */\n      dup5\n        /* \"#utility.yul\":4234:4240   */\n      dup3\n        /* \"#utility.yul\":4223:4232   */\n      dup6\n        /* \"#utility.yul\":4219:4241   */\n      add\n        /* \"#utility.yul\":4198:4247   */\n      tag_254\n      jump\t// in\n    tag_353:\n        /* \"#utility.yul\":4191:4195   */\n      0x40\n        /* \"#utility.yul\":4184:4189   */\n      dup4\n        /* \"#utility.yul\":4180:4196   */\n      add\n        /* \"#utility.yul\":4173:4248   */\n      mstore\n        /* \"#utility.yul\":4105:4259   */\n      pop\n        /* \"#utility.yul\":3187:4266   */\n      swap3\n      swap2\n      pop\n      pop\n      jump\t// out\n        /* \"#utility.yul\":4272:4807   */\n    tag_32:\n        /* \"#utility.yul\":4354:4360   */\n      0x00\n        /* \"#utility.yul\":4403:4405   */\n      0x20\n        /* \"#utility.yul\":4391:4400   */\n      dup3\n        /* \"#utility.yul\":4382:4389   */\n      dup5\n        /* \"#utility.yul\":4378:4401   */\n      sub\n        /* \"#utility.yul\":4374:4406   */\n      slt\n        /* \"#utility.yul\":4371:4490   */\n      iszero\n      tag_355\n      jumpi\n        /* \"#utility.yul\":4409:4488   */\n      tag_356\n      tag_238\n      jump\t// in\n    tag_356:\n        /* \"#utility.yul\":4371:4490   */\n    tag_355:\n        /* \"#utility.yul\":4557:4558   */\n      0x00\n        /* \"#utility.yul\":4546:4555   */\n      dup3\n        /* \"#utility.yul\":4542:4559   */\n      add\n        /* \"#utility.yul\":4529:4560   */\n      calldataload\n        /* \"#utility.yul\":4587:4605   */\n      0xffffffffffffffff\n        /* \"#utility.yul\":4579:4585   */\n      dup2\n        /* \"#utility.yul\":4576:4606   */\n      gt\n        /* \"#utility.yul\":4573:4690   */\n      iszero\n      tag_357\n      jumpi\n        /* \"#utility.yul\":4609:4688   */\n      tag_358\n      tag_239\n      jump\t// in\n    tag_358:\n        /* \"#utility.yul\":4573:4690   */\n    tag_357:\n        /* \"#utility.yul\":4714:4790   */\n      tag_359\n        /* \"#utility.yul\":4782:4789   */\n      dup5\n        /* \"#utility.yul\":4773:4779   */\n      dup3\n        /* \"#utility.yul\":4762:4771   */\n      dup6\n        /* \"#utility.yul\":4758:4780   */\n      add\n        /* \"#utility.yul\":4714:4790   */\n      tag_255\n      jump\t// in\n    tag_359:\n        /* \"#utility.yul\":4704:4790   */\n      swap2\n      pop\n        /* \"#utility.yul\":4500:4800   */\n      pop\n        /* \"#utility.yul\":4272:4807   */\n      swap3\n      swap2\n      pop\n      pop\n      jump\t// out\n        /* \"#utility.yul\":4813:4931   */\n    tag_256:\n        /* \"#utility.yul\":4900:4924   */\n      tag_361\n        /* \"#utility.yul\":4918:4923   */\n      dup2\n        /* \"#utility.yul\":4900:4924   */\n      tag_252\n      jump\t// in\n    tag_361:\n        /* \"#utility.yul\":4895:4898   */\n      dup3\n        /* \"#utility.yul\":4888:4925   */\n      mstore\n        /* \"#utility.yul\":4813:4931   */\n      pop\n      pop\n      jump\t// out\n        /* \"#utility.yul\":4937:5159   */\n    tag_37:\n        /* \"#utility.yul\":5030:5034   */\n      0x00\n        /* \"#utility.yul\":5068:5070   */\n      0x20\n        /* \"#utility.yul\":5057:5066   */\n      dup3\n        /* \"#utility.yul\":5053:5071   */\n      add\n        /* \"#utility.yul\":5045:5071   */\n      swap1\n      pop\n        /* \"#utility.yul\":5081:5152   */\n      tag_363\n        /* \"#utility.yul\":5149:5150   */\n      0x00\n        /* \"#utility.yul\":5138:5147   */\n      dup4\n        /* \"#utility.yul\":5134:5151   */\n      add\n        /* \"#utility.yul\":5125:5131   */\n      dup5\n        /* \"#utility.yul\":5081:5152   */\n      tag_256\n      jump\t// in\n    tag_363:\n        /* \"#utility.yul\":4937:5159   */\n      swap3\n      swap2\n      pop\n      pop\n      jump\t// out\n        /* \"#utility.yul\":5165:5494   */\n    tag_40:\n        /* \"#utility.yul\":5224:5230   */\n      0x00\n        /* \"#utility.yul\":5273:5275   */\n      0x20\n        /* \"#utility.yul\":5261:5270   */\n      dup3\n        /* \"#utility.yul\":5252:5259   */\n      dup5\n        /* \"#utility.yul\":5248:5271   */\n      sub\n        /* \"#utility.yul\":5244:5276   */\n      slt\n        /* \"#utility.yul\":5241:5360   */\n      iszero\n      tag_365\n      jumpi\n        /* \"#utility.yul\":5279:5358   */\n      tag_366\n      tag_238\n      jump\t// in\n    tag_366:\n        /* \"#utility.yul\":5241:5360   */\n    tag_365:\n        /* \"#utility.yul\":5399:5400   */\n      0x00\n        /* \"#utility.yul\":5424:5477   */\n      tag_367\n        /* \"#utility.yul\":5469:5476   */\n      dup5\n        /* \"#utility.yul\":5460:5466   */\n      dup3\n        /* \"#utility.yul\":5449:5458   */\n      dup6\n        /* \"#utility.yul\":5445:5467   */\n      add\n        /* \"#utility.yul\":5424:5477   */\n      tag_254\n      jump\t// in\n    tag_367:\n        /* \"#utility.yul\":5414:5477   */\n      swap2\n      pop\n        /* \"#utility.yul\":5370:5487   */\n      pop\n        /* \"#utility.yul\":5165:5494   */\n      swap3\n      swap2\n      pop\n      pop\n      jump\t// out\n        /* \"#utility.yul\":5500:5599   */\n    tag_257:\n        /* \"#utility.yul\":5552:5558   */\n      0x00\n        /* \"#utility.yul\":5586:5591   */\n      dup2\n        /* \"#utility.yul\":5580:5592   */\n      mload\n        /* \"#utility.yul\":5570:5592   */\n      swap1\n      pop\n        /* \"#utility.yul\":5500:5599   */\n      swap2\n      swap1\n      pop\n      jump\t// out\n        /* \"#utility.yul\":5605:5774   */\n    tag_258:\n        /* \"#utility.yul\":5689:5700   */\n      0x00\n        /* \"#utility.yul\":5723:5729   */\n      dup3\n        /* \"#utility.yul\":5718:5721   */\n      dup3\n        /* \"#utility.yul\":5711:5730   */\n      mstore\n        /* \"#utility.yul\":5763:5767   */\n      0x20\n        /* \"#utility.yul\":5758:5761   */\n      dup3\n        /* \"#utility.yul\":5754:5768   */\n      add\n        /* \"#utility.yul\":5739:5768   */\n      swap1\n      pop\n        /* \"#utility.yul\":5605:5774   */\n      swap3\n      swap2\n      pop\n      pop\n      jump\t// out\n        /* \"#utility.yul\":5780:6026   */\n    tag_259:\n        /* \"#utility.yul\":5861:5862   */\n      0x00\n        /* \"#utility.yul\":5871:5984   */\n    tag_371:\n        /* \"#utility.yul\":5885:5891   */\n      dup4\n        /* \"#utility.yul\":5882:5883   */\n      dup2\n        /* \"#utility.yul\":5879:5892   */\n      lt\n        /* \"#utility.yul\":5871:5984   */\n      iszero\n      tag_373\n      jumpi\n        /* \"#utility.yul\":5970:5971   */\n      dup1\n        /* \"#utility.yul\":5965:5968   */\n      dup3\n        /* \"#utility.yul\":5961:5972   */\n      add\n        /* \"#utility.yul\":5955:5973   */\n      mload\n        /* \"#utility.yul\":5951:5952   */\n      dup2\n        /* \"#utility.yul\":5946:5949   */\n      dup5\n        /* \"#utility.yul\":5942:5953   */\n      add\n        /* \"#utility.yul\":5935:5974   */\n      mstore\n        /* \"#utility.yul\":5907:5909   */\n      0x20\n        /* \"#utility.yul\":5904:5905   */\n      dup2\n        /* \"#utility.yul\":5900:5910   */\n      add\n        /* \"#utility.yul\":5895:5910   */\n      swap1\n      pop\n        /* \"#utility.yul\":5871:5984   */\n      jump(tag_371)\n    tag_373:\n        /* \"#utility.yul\":6018:6019   */\n      0x00\n        /* \"#utility.yul\":6009:6015   */\n      dup5\n        /* \"#utility.yul\":6004:6007   */\n      dup5\n        /* \"#utility.yul\":6000:6016   */\n      add\n        /* \"#utility.yul\":5993:6020   */\n      mstore\n        /* \"#utility.yul\":5842:6026   */\n      pop\n        /* \"#utility.yul\":5780:6026   */\n      pop\n      pop\n      pop\n      jump\t// out\n        /* \"#utility.yul\":6032:6409   */\n    tag_260:\n        /* \"#utility.yul\":6120:6123   */\n      0x00\n        /* \"#utility.yul\":6148:6187   */\n      tag_375\n        /* \"#utility.yul\":6181:6186   */\n      dup3\n        /* \"#utility.yul\":6148:6187   */\n      tag_257\n      jump\t// in\n    tag_375:\n        /* \"#utility.yul\":6203:6274   */\n      tag_376\n        /* \"#utility.yul\":6267:6273   */\n      dup2\n        /* \"#utility.yul\":6262:6265   */\n      dup6\n        /* \"#utility.yul\":6203:6274   */\n      tag_258\n      jump\t// in\n    tag_376:\n        /* \"#utility.yul\":6196:6274   */\n      swap4\n      pop\n        /* \"#utility.yul\":6283:6348   */\n      tag_377\n        /* \"#utility.yul\":6341:6347   */\n      dup2\n        /* \"#utility.yul\":6336:6339   */\n      dup6\n        /* \"#utility.yul\":6329:6333   */\n      0x20\n        /* \"#utility.yul\":6322:6327   */\n      dup7\n        /* \"#utility.yul\":6318:6334   */\n      add\n        /* \"#utility.yul\":6283:6348   */\n      tag_259\n      jump\t// in\n    tag_377:\n        /* \"#utility.yul\":6373:6402   */\n      tag_378\n        /* \"#utility.yul\":6395:6401   */\n      dup2\n        /* \"#utility.yul\":6373:6402   */\n      tag_241\n      jump\t// in\n    tag_378:\n        /* \"#utility.yul\":6368:6371   */\n      dup5\n        /* \"#utility.yul\":6364:6403   */\n      add\n        /* \"#utility.yul\":6357:6403   */\n      swap2\n      pop\n        /* \"#utility.yul\":6124:6409   */\n      pop\n        /* \"#utility.yul\":6032:6409   */\n      swap3\n      swap2\n      pop\n      pop\n      jump\t// out\n        /* \"#utility.yul\":6415:7039   */\n    tag_43:\n        /* \"#utility.yul\":6604:6608   */\n      0x00\n        /* \"#utility.yul\":6642:6644   */\n      0x60\n        /* \"#utility.yul\":6631:6640   */\n      dup3\n        /* \"#utility.yul\":6627:6645   */\n      add\n        /* \"#utility.yul\":6619:6645   */\n      swap1\n      pop\n        /* \"#utility.yul\":6691:6700   */\n      dup2\n        /* \"#utility.yul\":6685:6689   */\n      dup2\n        /* \"#utility.yul\":6681:6701   */\n      sub\n        /* \"#utility.yul\":6677:6678   */\n      0x00\n        /* \"#utility.yul\":6666:6675   */\n      dup4\n        /* \"#utility.yul\":6662:6679   */\n      add\n        /* \"#utility.yul\":6655:6702   */\n      mstore\n        /* \"#utility.yul\":6719:6797   */\n      tag_380\n        /* \"#utility.yul\":6792:6796   */\n      dup2\n        /* \"#utility.yul\":6783:6789   */\n      dup7\n        /* \"#utility.yul\":6719:6797   */\n      tag_260\n      jump\t// in\n    tag_380:\n        /* \"#utility.yul\":6711:6797   */\n      swap1\n      pop\n        /* \"#utility.yul\":6844:6853   */\n      dup2\n        /* \"#utility.yul\":6838:6842   */\n      dup2\n        /* \"#utility.yul\":6834:6854   */\n      sub\n        /* \"#utility.yul\":6829:6831   */\n      0x20\n        /* \"#utility.yul\":6818:6827   */\n      dup4\n        /* \"#utility.yul\":6814:6832   */\n      add\n        /* \"#utility.yul\":6807:6855   */\n      mstore\n        /* \"#utility.yul\":6872:6950   */\n      tag_381\n        /* \"#utility.yul\":6945:6949   */\n      dup2\n        /* \"#utility.yul\":6936:6942   */\n      dup6\n        /* \"#utility.yul\":6872:6950   */\n      tag_260\n      jump\t// in\n    tag_381:\n        /* \"#utility.yul\":6864:6950   */\n      swap1\n      pop\n        /* \"#utility.yul\":6960:7032   */\n      tag_382\n        /* \"#utility.yul\":7028:7030   */\n      0x40\n        /* \"#utility.yul\":7017:7026   */\n      dup4\n        /* \"#utility.yul\":7013:7031   */\n      add\n        /* \"#utility.yul\":7004:7010   */\n      dup5\n        /* \"#utility.yul\":6960:7032   */\n      tag_256\n      jump\t// in\n    tag_382:\n        /* \"#utility.yul\":6415:7039   */\n      swap5\n      swap4\n      pop\n      pop\n      pop\n      pop\n      jump\t// out\n        /* \"#utility.yul\":7045:7135   */\n    tag_261:\n        /* \"#utility.yul\":7079:7086   */\n      0x00\n        /* \"#utility.yul\":7122:7127   */\n      dup2\n        /* \"#utility.yul\":7115:7128   */\n      iszero\n        /* \"#utility.yul\":7108:7129   */\n      iszero\n        /* \"#utility.yul\":7097:7129   */\n      swap1\n      pop\n        /* \"#utility.yul\":7045:7135   */\n      swap2\n      swap1\n      pop\n      jump\t// out\n        /* \"#utility.yul\":7141:7250   */\n    tag_262:\n        /* \"#utility.yul\":7222:7243   */\n      tag_385\n        /* \"#utility.yul\":7237:7242   */\n      dup2\n        /* \"#utility.yul\":7222:7243   */\n      tag_261\n      jump\t// in\n    tag_385:\n        /* \"#utility.yul\":7217:7220   */\n      dup3\n        /* \"#utility.yul\":7210:7244   */\n      mstore\n        /* \"#utility.yul\":7141:7250   */\n      pop\n      pop\n      jump\t// out\n        /* \"#utility.yul\":7256:7466   */\n    tag_47:\n        /* \"#utility.yul\":7343:7347   */\n      0x00\n        /* \"#utility.yul\":7381:7383   */\n      0x20\n        /* \"#utility.yul\":7370:7379   */\n      dup3\n        /* \"#utility.yul\":7366:7384   */\n      add\n        /* \"#utility.yul\":7358:7384   */\n      swap1\n      pop\n        /* \"#utility.yul\":7394:7459   */\n      tag_387\n        /* \"#utility.yul\":7456:7457   */\n      0x00\n        /* \"#utility.yul\":7445:7454   */\n      dup4\n        /* \"#utility.yul\":7441:7458   */\n      add\n        /* \"#utility.yul\":7432:7438   */\n      dup5\n        /* \"#utility.yul\":7394:7459   */\n      tag_262\n      jump\t// in\n    tag_387:\n        /* \"#utility.yul\":7256:7466   */\n      swap3\n      swap2\n      pop\n      pop\n      jump\t// out\n        /* \"#utility.yul\":7472:7588   */\n    tag_263:\n        /* \"#utility.yul\":7542:7563   */\n      tag_389\n        /* \"#utility.yul\":7557:7562   */\n      dup2\n        /* \"#utility.yul\":7542:7563   */\n      tag_261\n      jump\t// in\n    tag_389:\n        /* \"#utility.yul\":7535:7540   */\n      dup2\n        /* \"#utility.yul\":7532:7564   */\n      eq\n        /* \"#utility.yul\":7522:7582   */\n      tag_390\n      jumpi\n        /* \"#utility.yul\":7578:7579   */\n      0x00\n        /* \"#utility.yul\":7575:7576   */\n      dup1\n        /* \"#utility.yul\":7568:7580   */\n      revert\n        /* \"#utility.yul\":7522:7582   */\n    tag_390:\n        /* \"#utility.yul\":7472:7588   */\n      pop\n      jump\t// out\n        /* \"#utility.yul\":7594:7727   */\n    tag_264:\n        /* \"#utility.yul\":7637:7642   */\n      0x00\n        /* \"#utility.yul\":7675:7681   */\n      dup2\n        /* \"#utility.yul\":7662:7682   */\n      calldataload\n        /* \"#utility.yul\":7653:7682   */\n      swap1\n      pop\n        /* \"#utility.yul\":7691:7721   */\n      tag_392\n        /* \"#utility.yul\":7715:7720   */\n      dup2\n        /* \"#utility.yul\":7691:7721   */\n      tag_263\n      jump\t// in\n    tag_392:\n        /* \"#utility.yul\":7594:7727   */\n      swap3\n      swap2\n      pop\n      pop\n      jump\t// out\n        /* \"#utility.yul\":7733:8056   */\n    tag_50:\n        /* \"#utility.yul\":7789:7795   */\n      0x00\n        /* \"#utility.yul\":7838:7840   */\n      0x20\n        /* \"#utility.yul\":7826:7835   */\n      dup3\n        /* \"#utility.yul\":7817:7824   */\n      dup5\n        /* \"#utility.yul\":7813:7836   */\n      sub\n        /* \"#utility.yul\":7809:7841   */\n      slt\n        /* \"#utility.yul\":7806:7925   */\n      iszero\n      tag_394\n      jumpi\n        /* \"#utility.yul\":7844:7923   */\n      tag_395\n      tag_238\n      jump\t// in\n    tag_395:\n        /* \"#utility.yul\":7806:7925   */\n    tag_394:\n        /* \"#utility.yul\":7964:7965   */\n      0x00\n        /* \"#utility.yul\":7989:8039   */\n      tag_396\n        /* \"#utility.yul\":8031:8038   */\n      dup5\n        /* \"#utility.yul\":8022:8028   */\n      dup3\n        /* \"#utility.yul\":8011:8020   */\n      dup6\n        /* \"#utility.yul\":8007:8029   */\n      add\n        /* \"#utility.yul\":7989:8039   */\n      tag_264\n      jump\t// in\n    tag_396:\n        /* \"#utility.yul\":7979:8039   */\n      swap2\n      pop\n        /* \"#utility.yul\":7935:8049   */\n      pop\n        /* \"#utility.yul\":7733:8056   */\n      swap3\n      swap2\n      pop\n      pop\n      jump\t// out\n        /* \"#utility.yul\":8062:8188   */\n    tag_265:\n        /* \"#utility.yul\":8099:8106   */\n      0x00\n        /* \"#utility.yul\":8139:8181   */\n      0xffffffffffffffffffffffffffffffffffffffff\n        /* \"#utility.yul\":8132:8137   */\n      dup3\n        /* \"#utility.yul\":8128:8182   */\n      and\n        /* \"#utility.yul\":8117:8182   */\n      swap1\n      pop\n        /* \"#utility.yul\":8062:8188   */\n      swap2\n      swap1\n      pop\n      jump\t// out\n        /* \"#utility.yul\":8194:8290   */\n    tag_266:\n        /* \"#utility.yul\":8231:8238   */\n      0x00\n        /* \"#utility.yul\":8260:8284   */\n      tag_399\n        /* \"#utility.yul\":8278:8283   */\n      dup3\n        /* \"#utility.yul\":8260:8284   */\n      tag_265\n      jump\t// in\n    tag_399:\n        /* \"#utility.yul\":8249:8284   */\n      swap1\n      pop\n        /* \"#utility.yul\":8194:8290   */\n      swap2\n      swap1\n      pop\n      jump\t// out\n        /* \"#utility.yul\":8296:8418   */\n    tag_267:\n        /* \"#utility.yul\":8369:8393   */\n      tag_401\n        /* \"#utility.yul\":8387:8392   */\n      dup2\n        /* \"#utility.yul\":8369:8393   */\n      tag_266\n      jump\t// in\n    tag_401:\n        /* \"#utility.yul\":8362:8367   */\n      dup2\n        /* \"#utility.yul\":8359:8394   */\n      eq\n        /* \"#utility.yul\":8349:8412   */\n      tag_402\n      jumpi\n        /* \"#utility.yul\":8408:8409   */\n      0x00\n        /* \"#utility.yul\":8405:8406   */\n      dup1\n        /* \"#utility.yul\":8398:8410   */\n      revert\n        /* \"#utility.yul\":8349:8412   */\n    tag_402:\n        /* \"#utility.yul\":8296:8418   */\n      pop\n      jump\t// out\n        /* \"#utility.yul\":8424:8563   */\n    tag_268:\n        /* \"#utility.yul\":8470:8475   */\n      0x00\n        /* \"#utility.yul\":8508:8514   */\n      dup2\n        /* \"#utility.yul\":8495:8515   */\n      calldataload\n        /* \"#utility.yul\":8486:8515   */\n      swap1\n      pop\n        /* \"#utility.yul\":8524:8557   */\n      tag_404\n        /* \"#utility.yul\":8551:8556   */\n      dup2\n        /* \"#utility.yul\":8524:8557   */\n      tag_267\n      jump\t// in\n    tag_404:\n        /* \"#utility.yul\":8424:8563   */\n      swap3\n      swap2\n      pop\n      pop\n      jump\t// out\n        /* \"#utility.yul\":8569:8898   */\n    tag_54:\n        /* \"#utility.yul\":8628:8634   */\n      0x00\n        /* \"#utility.yul\":8677:8679   */\n      0x20\n        /* \"#utility.yul\":8665:8674   */\n      dup3\n        /* \"#utility.yul\":8656:8663   */\n      dup5\n        /* \"#utility.yul\":8652:8675   */\n      sub\n        /* \"#utility.yul\":8648:8680   */\n      slt\n        /* \"#utility.yul\":8645:8764   */\n      iszero\n      tag_406\n      jumpi\n        /* \"#utility.yul\":8683:8762   */\n      tag_407\n      tag_238\n      jump\t// in\n    tag_407:\n        /* \"#utility.yul\":8645:8764   */\n    tag_406:\n        /* \"#utility.yul\":8803:8804   */\n      0x00\n        /* \"#utility.yul\":8828:8881   */\n      tag_408\n        /* \"#utility.yul\":8873:8880   */\n      dup5\n        /* \"#utility.yul\":8864:8870   */\n      dup3\n        /* \"#utility.yul\":8853:8862   */\n      dup6\n        /* \"#utility.yul\":8849:8871   */\n      add\n        /* \"#utility.yul\":8828:8881   */\n      tag_268\n      jump\t// in\n    tag_408:\n        /* \"#utility.yul\":8818:8881   */\n      swap2\n      pop\n        /* \"#utility.yul\":8774:8891   */\n      pop\n        /* \"#utility.yul\":8569:8898   */\n      swap3\n      swap2\n      pop\n      pop\n      jump\t// out\n        /* \"#utility.yul\":8904:8980   */\n    tag_269:\n        /* \"#utility.yul\":8940:8947   */\n      0x00\n        /* \"#utility.yul\":8969:8974   */\n      dup2\n        /* \"#utility.yul\":8958:8974   */\n      swap1\n      pop\n        /* \"#utility.yul\":8904:8980   */\n      swap2\n      swap1\n      pop\n      jump\t// out\n        /* \"#utility.yul\":8986:9101   */\n    tag_270:\n        /* \"#utility.yul\":9071:9094   */\n      tag_411\n        /* \"#utility.yul\":9088:9093   */\n      dup2\n        /* \"#utility.yul\":9071:9094   */\n      tag_269\n      jump\t// in\n    tag_411:\n        /* \"#utility.yul\":9066:9069   */\n      dup3\n        /* \"#utility.yul\":9059:9095   */\n      mstore\n        /* \"#utility.yul\":8986:9101   */\n      pop\n      pop\n      jump\t// out\n        /* \"#utility.yul\":9107:9325   */\n    tag_60:\n        /* \"#utility.yul\":9198:9202   */\n      0x00\n        /* \"#utility.yul\":9236:9238   */\n      0x20\n        /* \"#utility.yul\":9225:9234   */\n      dup3\n        /* \"#utility.yul\":9221:9239   */\n      add\n        /* \"#utility.yul\":9213:9239   */\n      swap1\n      pop\n        /* \"#utility.yul\":9249:9318   */\n      tag_413\n        /* \"#utility.yul\":9315:9316   */\n      0x00\n        /* \"#utility.yul\":9304:9313   */\n      dup4\n        /* \"#utility.yul\":9300:9317   */\n      add\n        /* \"#utility.yul\":9291:9297   */\n      dup5\n        /* \"#utility.yul\":9249:9318   */\n      tag_270\n      jump\t// in\n    tag_413:\n        /* \"#utility.yul\":9107:9325   */\n      swap3\n      swap2\n      pop\n      pop\n      jump\t// out\n        /* \"#utility.yul\":9331:9644   */\n    tag_72:\n        /* \"#utility.yul\":9444:9448   */\n      0x00\n        /* \"#utility.yul\":9482:9484   */\n      0x20\n        /* \"#utility.yul\":9471:9480   */\n      dup3\n        /* \"#utility.yul\":9467:9485   */\n      add\n        /* \"#utility.yul\":9459:9485   */\n      swap1\n      pop\n        /* \"#utility.yul\":9531:9540   */\n      dup2\n        /* \"#utility.yul\":9525:9529   */\n      dup2\n        /* \"#utility.yul\":9521:9541   */\n      sub\n        /* \"#utility.yul\":9517:9518   */\n      0x00\n        /* \"#utility.yul\":9506:9515   */\n      dup4\n        /* \"#utility.yul\":9502:9519   */\n      add\n        /* \"#utility.yul\":9495:9542   */\n      mstore\n        /* \"#utility.yul\":9559:9637   */\n      tag_415\n        /* \"#utility.yul\":9632:9636   */\n      dup2\n        /* \"#utility.yul\":9623:9629   */\n      dup5\n        /* \"#utility.yul\":9559:9637   */\n      tag_260\n      jump\t// in\n    tag_415:\n        /* \"#utility.yul\":9551:9637   */\n      swap1\n      pop\n        /* \"#utility.yul\":9331:9644   */\n      swap3\n      swap2\n      pop\n      pop\n      jump\t// out\n        /* \"#utility.yul\":9650:9768   */\n    tag_271:\n        /* \"#utility.yul\":9737:9761   */\n      tag_417\n        /* \"#utility.yul\":9755:9760   */\n      dup2\n        /* \"#utility.yul\":9737:9761   */\n      tag_266\n      jump\t// in\n    tag_417:\n        /* \"#utility.yul\":9732:9735   */\n      dup3\n        /* \"#utility.yul\":9725:9762   */\n      mstore\n        /* \"#utility.yul\":9650:9768   */\n      pop\n      pop\n      jump\t// out\n        /* \"#utility.yul\":9774:9996   */\n    tag_82:\n        /* \"#utility.yul\":9867:9871   */\n      0x00\n        /* \"#utility.yul\":9905:9907   */\n      0x20\n        /* \"#utility.yul\":9894:9903   */\n      dup3\n        /* \"#utility.yul\":9890:9908   */\n      add\n        /* \"#utility.yul\":9882:9908   */\n      swap1\n      pop\n        /* \"#utility.yul\":9918:9989   */\n      tag_419\n        /* \"#utility.yul\":9986:9987   */\n      0x00\n        /* \"#utility.yul\":9975:9984   */\n      dup4\n        /* \"#utility.yul\":9971:9988   */\n      add\n        /* \"#utility.yul\":9962:9968   */\n      dup5\n        /* \"#utility.yul\":9918:9989   */\n      tag_271\n      jump\t// in\n    tag_419:\n        /* \"#utility.yul\":9774:9996   */\n      swap3\n      swap2\n      pop\n      pop\n      jump\t// out\n        /* \"#utility.yul\":10002:10981   */\n    tag_85:\n        /* \"#utility.yul\":10099:10105   */\n      0x00\n        /* \"#utility.yul\":10107:10113   */\n      dup1\n        /* \"#utility.yul\":10115:10121   */\n      0x00\n        /* \"#utility.yul\":10164:10166   */\n      0x60\n        /* \"#utility.yul\":10152:10161   */\n      dup5\n        /* \"#utility.yul\":10143:10150   */\n      dup7\n        /* \"#utility.yul\":10139:10162   */\n      sub\n        /* \"#utility.yul\":10135:10167   */\n      slt\n        /* \"#utility.yul\":10132:10251   */\n      iszero\n      tag_421\n      jumpi\n        /* \"#utility.yul\":10170:10249   */\n      tag_422\n      tag_238\n      jump\t// in\n    tag_422:\n        /* \"#utility.yul\":10132:10251   */\n    tag_421:\n        /* \"#utility.yul\":10318:10319   */\n      0x00\n        /* \"#utility.yul\":10307:10316   */\n      dup5\n        /* \"#utility.yul\":10303:10320   */\n      add\n        /* \"#utility.yul\":10290:10321   */\n      calldataload\n        /* \"#utility.yul\":10348:10366   */\n      0xffffffffffffffff\n        /* \"#utility.yul\":10340:10346   */\n      dup2\n        /* \"#utility.yul\":10337:10367   */\n      gt\n        /* \"#utility.yul\":10334:10451   */\n      iszero\n      tag_423\n      jumpi\n        /* \"#utility.yul\":10370:10449   */\n      tag_424\n      tag_239\n      jump\t// in\n    tag_424:\n        /* \"#utility.yul\":10334:10451   */\n    tag_423:\n        /* \"#utility.yul\":10475:10538   */\n      tag_425\n        /* \"#utility.yul\":10530:10537   */\n      dup7\n        /* \"#utility.yul\":10521:10527   */\n      dup3\n        /* \"#utility.yul\":10510:10519   */\n      dup8\n        /* \"#utility.yul\":10506:10528   */\n      add\n        /* \"#utility.yul\":10475:10538   */\n      tag_251\n      jump\t// in\n    tag_425:\n        /* \"#utility.yul\":10465:10538   */\n      swap4\n      pop\n        /* \"#utility.yul\":10261:10548   */\n      pop\n        /* \"#utility.yul\":10615:10617   */\n      0x20\n        /* \"#utility.yul\":10604:10613   */\n      dup5\n        /* \"#utility.yul\":10600:10618   */\n      add\n        /* \"#utility.yul\":10587:10619   */\n      calldataload\n        /* \"#utility.yul\":10646:10664   */\n      0xffffffffffffffff\n        /* \"#utility.yul\":10638:10644   */\n      dup2\n        /* \"#utility.yul\":10635:10665   */\n      gt\n        /* \"#utility.yul\":10632:10749   */\n      iszero\n      tag_426\n      jumpi\n        /* \"#utility.yul\":10668:10747   */\n      tag_427\n      tag_239\n      jump\t// in\n    tag_427:\n        /* \"#utility.yul\":10632:10749   */\n    tag_426:\n        /* \"#utility.yul\":10773:10836   */\n      tag_428\n        /* \"#utility.yul\":10828:10835   */\n      dup7\n        /* \"#utility.yul\":10819:10825   */\n      dup3\n        /* \"#utility.yul\":10808:10817   */\n      dup8\n        /* \"#utility.yul\":10804:10826   */\n      add\n        /* \"#utility.yul\":10773:10836   */\n      tag_251\n      jump\t// in\n    tag_428:\n        /* \"#utility.yul\":10763:10836   */\n      swap3\n      pop\n        /* \"#utility.yul\":10558:10846   */\n      pop\n        /* \"#utility.yul\":10885:10887   */\n      0x40\n        /* \"#utility.yul\":10911:10964   */\n      tag_429\n        /* \"#utility.yul\":10956:10963   */\n      dup7\n        /* \"#utility.yul\":10947:10953   */\n      dup3\n        /* \"#utility.yul\":10936:10945   */\n      dup8\n        /* \"#utility.yul\":10932:10954   */\n      add\n        /* \"#utility.yul\":10911:10964   */\n      tag_254\n      jump\t// in\n    tag_429:\n        /* \"#utility.yul\":10901:10964   */\n      swap2\n      pop\n        /* \"#utility.yul\":10856:10974   */\n      pop\n        /* \"#utility.yul\":10002:10981   */\n      swap3\n      pop\n      swap3\n      pop\n      swap3\n      jump\t// out\n        /* \"#utility.yul\":10987:11107   */\n    tag_272:\n        /* \"#utility.yul\":11059:11082   */\n      tag_431\n        /* \"#utility.yul\":11076:11081   */\n      dup2\n        /* \"#utility.yul\":11059:11082   */\n      tag_269\n      jump\t// in\n    tag_431:\n        /* \"#utility.yul\":11052:11057   */\n      dup2\n        /* \"#utility.yul\":11049:11083   */\n      eq\n        /* \"#utility.yul\":11039:11101   */\n      tag_432\n      jumpi\n        /* \"#utility.yul\":11097:11098   */\n      0x00\n        /* \"#utility.yul\":11094:11095   */\n      dup1\n        /* \"#utility.yul\":11087:11099   */\n      revert\n        /* \"#utility.yul\":11039:11101   */\n    tag_432:\n        /* \"#utility.yul\":10987:11107   */\n      pop\n      jump\t// out\n        /* \"#utility.yul\":11113:11250   */\n    tag_273:\n        /* \"#utility.yul\":11158:11163   */\n      0x00\n        /* \"#utility.yul\":11196:11202   */\n      dup2\n        /* \"#utility.yul\":11183:11203   */\n      calldataload\n        /* \"#utility.yul\":11174:11203   */\n      swap1\n      pop\n        /* \"#utility.yul\":11212:11244   */\n      tag_434\n        /* \"#utility.yul\":11238:11243   */\n      dup2\n        /* \"#utility.yul\":11212:11244   */\n      tag_272\n      jump\t// in\n    tag_434:\n        /* \"#utility.yul\":11113:11250   */\n      swap3\n      swap2\n      pop\n      pop\n      jump\t// out\n        /* \"#utility.yul\":11256:11583   */\n    tag_89:\n        /* \"#utility.yul\":11314:11320   */\n      0x00\n        /* \"#utility.yul\":11363:11365   */\n      0x20\n        /* \"#utility.yul\":11351:11360   */\n      dup3\n        /* \"#utility.yul\":11342:11349   */\n      dup5\n        /* \"#utility.yul\":11338:11361   */\n      sub\n        /* \"#utility.yul\":11334:11366   */\n      slt\n        /* \"#utility.yul\":11331:11450   */\n      iszero\n      tag_436\n      jumpi\n        /* \"#utility.yul\":11369:11448   */\n      tag_437\n      tag_238\n      jump\t// in\n    tag_437:\n        /* \"#utility.yul\":11331:11450   */\n    tag_436:\n        /* \"#utility.yul\":11489:11490   */\n      0x00\n        /* \"#utility.yul\":11514:11566   */\n      tag_438\n        /* \"#utility.yul\":11558:11565   */\n      dup5\n        /* \"#utility.yul\":11549:11555   */\n      dup3\n        /* \"#utility.yul\":11538:11547   */\n      dup6\n        /* \"#utility.yul\":11534:11556   */\n      add\n        /* \"#utility.yul\":11514:11566   */\n      tag_273\n      jump\t// in\n    tag_438:\n        /* \"#utility.yul\":11504:11566   */\n      swap2\n      pop\n        /* \"#utility.yul\":11460:11576   */\n      pop\n        /* \"#utility.yul\":11256:11583   */\n      swap3\n      swap2\n      pop\n      pop\n      jump\t// out\n        /* \"#utility.yul\":11589:11748   */\n    tag_274:\n        /* \"#utility.yul\":11663:11674   */\n      0x00\n        /* \"#utility.yul\":11697:11703   */\n      dup3\n        /* \"#utility.yul\":11692:11695   */\n      dup3\n        /* \"#utility.yul\":11685:11704   */\n      mstore\n        /* \"#utility.yul\":11737:11741   */\n      0x20\n        /* \"#utility.yul\":11732:11735   */\n      dup3\n        /* \"#utility.yul\":11728:11742   */\n      add\n        /* \"#utility.yul\":11713:11742   */\n      swap1\n      pop\n        /* \"#utility.yul\":11589:11748   */\n      swap3\n      swap2\n      pop\n      pop\n      jump\t// out\n        /* \"#utility.yul\":11754:12111   */\n    tag_275:\n        /* \"#utility.yul\":11832:11835   */\n      0x00\n        /* \"#utility.yul\":11860:11899   */\n      tag_441\n        /* \"#utility.yul\":11893:11898   */\n      dup3\n        /* \"#utility.yul\":11860:11899   */\n      tag_257\n      jump\t// in\n    tag_441:\n        /* \"#utility.yul\":11915:11976   */\n      tag_442\n        /* \"#utility.yul\":11969:11975   */\n      dup2\n        /* \"#utility.yul\":11964:11967   */\n      dup6\n        /* \"#utility.yul\":11915:11976   */\n      tag_274\n      jump\t// in\n    tag_442:\n        /* \"#utility.yul\":11908:11976   */\n      swap4\n      pop\n        /* \"#utility.yul\":11985:12050   */\n      tag_443\n        /* \"#utility.yul\":12043:12049   */\n      dup2\n        /* \"#utility.yul\":12038:12041   */\n      dup6\n        /* \"#utility.yul\":12031:12035   */\n      0x20\n        /* \"#utility.yul\":12024:12029   */\n      dup7\n        /* \"#utility.yul\":12020:12036   */\n      add\n        /* \"#utility.yul\":11985:12050   */\n      tag_259\n      jump\t// in\n    tag_443:\n        /* \"#utility.yul\":12075:12104   */\n      tag_444\n        /* \"#utility.yul\":12097:12103   */\n      dup2\n        /* \"#utility.yul\":12075:12104   */\n      tag_241\n      jump\t// in\n    tag_444:\n        /* \"#utility.yul\":12070:12073   */\n      dup5\n        /* \"#utility.yul\":12066:12105   */\n      add\n        /* \"#utility.yul\":12059:12105   */\n      swap2\n      pop\n        /* \"#utility.yul\":11836:12111   */\n      pop\n        /* \"#utility.yul\":11754:12111   */\n      swap3\n      swap2\n      pop\n      pop\n      jump\t// out\n        /* \"#utility.yul\":12117:12225   */\n    tag_276:\n        /* \"#utility.yul\":12194:12218   */\n      tag_446\n        /* \"#utility.yul\":12212:12217   */\n      dup2\n        /* \"#utility.yul\":12194:12218   */\n      tag_252\n      jump\t// in\n    tag_446:\n        /* \"#utility.yul\":12189:12192   */\n      dup3\n        /* \"#utility.yul\":12182:12219   */\n      mstore\n        /* \"#utility.yul\":12117:12225   */\n      pop\n      pop\n      jump\t// out\n        /* \"#utility.yul\":12291:13144   */\n    tag_277:\n        /* \"#utility.yul\":12406:12409   */\n      0x00\n        /* \"#utility.yul\":12442:12446   */\n      0x60\n        /* \"#utility.yul\":12437:12440   */\n      dup4\n        /* \"#utility.yul\":12433:12447   */\n      add\n        /* \"#utility.yul\":12529:12533   */\n      0x00\n        /* \"#utility.yul\":12522:12527   */\n      dup4\n        /* \"#utility.yul\":12518:12534   */\n      add\n        /* \"#utility.yul\":12512:12535   */\n      mload\n        /* \"#utility.yul\":12582:12585   */\n      dup5\n        /* \"#utility.yul\":12576:12580   */\n      dup3\n        /* \"#utility.yul\":12572:12586   */\n      sub\n        /* \"#utility.yul\":12565:12569   */\n      0x00\n        /* \"#utility.yul\":12560:12563   */\n      dup7\n        /* \"#utility.yul\":12556:12570   */\n      add\n        /* \"#utility.yul\":12549:12587   */\n      mstore\n        /* \"#utility.yul\":12608:12681   */\n      tag_448\n        /* \"#utility.yul\":12676:12680   */\n      dup3\n        /* \"#utility.yul\":12662:12674   */\n      dup3\n        /* \"#utility.yul\":12608:12681   */\n      tag_275\n      jump\t// in\n    tag_448:\n        /* \"#utility.yul\":12600:12681   */\n      swap2\n      pop\n        /* \"#utility.yul\":12457:12692   */\n      pop\n        /* \"#utility.yul\":12777:12781   */\n      0x20\n        /* \"#utility.yul\":12770:12775   */\n      dup4\n        /* \"#utility.yul\":12766:12782   */\n      add\n        /* \"#utility.yul\":12760:12783   */\n      mload\n        /* \"#utility.yul\":12830:12833   */\n      dup5\n        /* \"#utility.yul\":12824:12828   */\n      dup3\n        /* \"#utility.yul\":12820:12834   */\n      sub\n        /* \"#utility.yul\":12813:12817   */\n      0x20\n        /* \"#utility.yul\":12808:12811   */\n      dup7\n        /* \"#utility.yul\":12804:12818   */\n      add\n        /* \"#utility.yul\":12797:12835   */\n      mstore\n        /* \"#utility.yul\":12856:12929   */\n      tag_449\n        /* \"#utility.yul\":12924:12928   */\n      dup3\n        /* \"#utility.yul\":12910:12922   */\n      dup3\n        /* \"#utility.yul\":12856:12929   */\n      tag_275\n      jump\t// in\n    tag_449:\n        /* \"#utility.yul\":12848:12929   */\n      swap2\n      pop\n        /* \"#utility.yul\":12702:12940   */\n      pop\n        /* \"#utility.yul\":13025:13029   */\n      0x40\n        /* \"#utility.yul\":13018:13023   */\n      dup4\n        /* \"#utility.yul\":13014:13030   */\n      add\n        /* \"#utility.yul\":13008:13031   */\n      mload\n        /* \"#utility.yul\":13044:13107   */\n      tag_450\n        /* \"#utility.yul\":13101:13105   */\n      0x40\n        /* \"#utility.yul\":13096:13099   */\n      dup7\n        /* \"#utility.yul\":13092:13106   */\n      add\n        /* \"#utility.yul\":13078:13090   */\n      dup3\n        /* \"#utility.yul\":13044:13107   */\n      tag_276\n      jump\t// in\n    tag_450:\n        /* \"#utility.yul\":12950:13117   */\n      pop\n        /* \"#utility.yul\":13134:13138   */\n      dup1\n        /* \"#utility.yul\":13127:13138   */\n      swap2\n      pop\n        /* \"#utility.yul\":12411:13144   */\n      pop\n        /* \"#utility.yul\":12291:13144   */\n      swap3\n      swap2\n      pop\n      pop\n      jump\t// out\n        /* \"#utility.yul\":13150:13515   */\n    tag_101:\n        /* \"#utility.yul\":13289:13293   */\n      0x00\n        /* \"#utility.yul\":13327:13329   */\n      0x20\n        /* \"#utility.yul\":13316:13325   */\n      dup3\n        /* \"#utility.yul\":13312:13330   */\n      add\n        /* \"#utility.yul\":13304:13330   */\n      swap1\n      pop\n        /* \"#utility.yul\":13376:13385   */\n      dup2\n        /* \"#utility.yul\":13370:13374   */\n      dup2\n        /* \"#utility.yul\":13366:13386   */\n      sub\n        /* \"#utility.yul\":13362:13363   */\n      0x00\n        /* \"#utility.yul\":13351:13360   */\n      dup4\n        /* \"#utility.yul\":13347:13364   */\n      add\n        /* \"#utility.yul\":13340:13387   */\n      mstore\n        /* \"#utility.yul\":13404:13508   */\n      tag_452\n        /* \"#utility.yul\":13503:13507   */\n      dup2\n        /* \"#utility.yul\":13494:13500   */\n      dup5\n        /* \"#utility.yul\":13404:13508   */\n      tag_277\n      jump\t// in\n    tag_452:\n        /* \"#utility.yul\":13396:13508   */\n      swap1\n      pop\n        /* \"#utility.yul\":13150:13515   */\n      swap3\n      swap2\n      pop\n      pop\n      jump\t// out\n        /* \"#utility.yul\":13521:13995   */\n    tag_104:\n        /* \"#utility.yul\":13589:13595   */\n      0x00\n        /* \"#utility.yul\":13597:13603   */\n      dup1\n        /* \"#utility.yul\":13646:13648   */\n      0x40\n        /* \"#utility.yul\":13634:13643   */\n      dup4\n        /* \"#utility.yul\":13625:13632   */\n      dup6\n        /* \"#utility.yul\":13621:13644   */\n      sub\n        /* \"#utility.yul\":13617:13649   */\n      slt\n        /* \"#utility.yul\":13614:13733   */\n      iszero\n      tag_454\n      jumpi\n        /* \"#utility.yul\":13652:13731   */\n      tag_455\n      tag_238\n      jump\t// in\n    tag_455:\n        /* \"#utility.yul\":13614:13733   */\n    tag_454:\n        /* \"#utility.yul\":13772:13773   */\n      0x00\n        /* \"#utility.yul\":13797:13850   */\n      tag_456\n        /* \"#utility.yul\":13842:13849   */\n      dup6\n        /* \"#utility.yul\":13833:13839   */\n      dup3\n        /* \"#utility.yul\":13822:13831   */\n      dup7\n        /* \"#utility.yul\":13818:13840   */\n      add\n        /* \"#utility.yul\":13797:13850   */\n      tag_268\n      jump\t// in\n    tag_456:\n        /* \"#utility.yul\":13787:13850   */\n      swap3\n      pop\n        /* \"#utility.yul\":13743:13860   */\n      pop\n        /* \"#utility.yul\":13899:13901   */\n      0x20\n        /* \"#utility.yul\":13925:13978   */\n      tag_457\n        /* \"#utility.yul\":13970:13977   */\n      dup6\n        /* \"#utility.yul\":13961:13967   */\n      dup3\n        /* \"#utility.yul\":13950:13959   */\n      dup7\n        /* \"#utility.yul\":13946:13968   */\n      add\n        /* \"#utility.yul\":13925:13978   */\n      tag_268\n      jump\t// in\n    tag_457:\n        /* \"#utility.yul\":13915:13978   */\n      swap2\n      pop\n        /* \"#utility.yul\":13870:13988   */\n      pop\n        /* \"#utility.yul\":13521:13995   */\n      swap3\n      pop\n      swap3\n      swap1\n      pop\n      jump\t// out\n        /* \"#utility.yul\":14001:14128   */\n    tag_278:\n        /* \"#utility.yul\":14089:14095   */\n      0x00\n        /* \"#utility.yul\":14117:14121   */\n      0x03\n        /* \"#utility.yul\":14107:14121   */\n      swap1\n      pop\n        /* \"#utility.yul\":14001:14128   */\n      swap2\n      swap1\n      pop\n      jump\t// out\n        /* \"#utility.yul\":14134:14300   */\n    tag_279:\n        /* \"#utility.yul\":14254:14265   */\n      0x00\n        /* \"#utility.yul\":14291:14294   */\n      dup2\n        /* \"#utility.yul\":14276:14294   */\n      swap1\n      pop\n        /* \"#utility.yul\":14134:14300   */\n      swap3\n      swap2\n      pop\n      pop\n      jump\t// out\n        /* \"#utility.yul\":14306:14427   */\n    tag_280:\n        /* \"#utility.yul\":14394:14398   */\n      0x00\n        /* \"#utility.yul\":14417:14420   */\n      dup2\n        /* \"#utility.yul\":14409:14420   */\n      swap1\n      pop\n        /* \"#utility.yul\":14306:14427   */\n      swap2\n      swap1\n      pop\n      jump\t// out\n        /* \"#utility.yul\":14493:15336   */\n    tag_281:\n        /* \"#utility.yul\":14598:14601   */\n      0x00\n        /* \"#utility.yul\":14634:14638   */\n      0x60\n        /* \"#utility.yul\":14629:14632   */\n      dup4\n        /* \"#utility.yul\":14625:14639   */\n      add\n        /* \"#utility.yul\":14721:14725   */\n      0x00\n        /* \"#utility.yul\":14714:14719   */\n      dup4\n        /* \"#utility.yul\":14710:14726   */\n      add\n        /* \"#utility.yul\":14704:14727   */\n      mload\n        /* \"#utility.yul\":14774:14777   */\n      dup5\n        /* \"#utility.yul\":14768:14772   */\n      dup3\n        /* \"#utility.yul\":14764:14778   */\n      sub\n        /* \"#utility.yul\":14757:14761   */\n      0x00\n        /* \"#utility.yul\":14752:14755   */\n      dup7\n        /* \"#utility.yul\":14748:14762   */\n      add\n        /* \"#utility.yul\":14741:14779   */\n      mstore\n        /* \"#utility.yul\":14800:14873   */\n      tag_462\n        /* \"#utility.yul\":14868:14872   */\n      dup3\n        /* \"#utility.yul\":14854:14866   */\n      dup3\n        /* \"#utility.yul\":14800:14873   */\n      tag_275\n      jump\t// in\n    tag_462:\n        /* \"#utility.yul\":14792:14873   */\n      swap2\n      pop\n        /* \"#utility.yul\":14649:14884   */\n      pop\n        /* \"#utility.yul\":14969:14973   */\n      0x20\n        /* \"#utility.yul\":14962:14967   */\n      dup4\n        /* \"#utility.yul\":14958:14974   */\n      add\n        /* \"#utility.yul\":14952:14975   */\n      mload\n        /* \"#utility.yul\":15022:15025   */\n      dup5\n        /* \"#utility.yul\":15016:15020   */\n      dup3\n        /* \"#utility.yul\":15012:15026   */\n      sub\n        /* \"#utility.yul\":15005:15009   */\n      0x20\n        /* \"#utility.yul\":15000:15003   */\n      dup7\n        /* \"#utility.yul\":14996:15010   */\n      add\n        /* \"#utility.yul\":14989:15027   */\n      mstore\n        /* \"#utility.yul\":15048:15121   */\n      tag_463\n        /* \"#utility.yul\":15116:15120   */\n      dup3\n        /* \"#utility.yul\":15102:15114   */\n      dup3\n        /* \"#utility.yul\":15048:15121   */\n      tag_275\n      jump\t// in\n    tag_463:\n        /* \"#utility.yul\":15040:15121   */\n      swap2\n      pop\n        /* \"#utility.yul\":14894:15132   */\n      pop\n        /* \"#utility.yul\":15217:15221   */\n      0x40\n        /* \"#utility.yul\":15210:15215   */\n      dup4\n        /* \"#utility.yul\":15206:15222   */\n      add\n        /* \"#utility.yul\":15200:15223   */\n      mload\n        /* \"#utility.yul\":15236:15299   */\n      tag_464\n        /* \"#utility.yul\":15293:15297   */\n      0x40\n        /* \"#utility.yul\":15288:15291   */\n      dup7\n        /* \"#utility.yul\":15284:15298   */\n      add\n        /* \"#utility.yul\":15270:15282   */\n      dup3\n        /* \"#utility.yul\":15236:15299   */\n      tag_276\n      jump\t// in\n    tag_464:\n        /* \"#utility.yul\":15142:15309   */\n      pop\n        /* \"#utility.yul\":15326:15330   */\n      dup1\n        /* \"#utility.yul\":15319:15330   */\n      swap2\n      pop\n        /* \"#utility.yul\":14603:15336   */\n      pop\n        /* \"#utility.yul\":14493:15336   */\n      swap3\n      swap2\n      pop\n      pop\n      jump\t// out\n        /* \"#utility.yul\":15342:15590   */\n    tag_282:\n        /* \"#utility.yul\":15457:15467   */\n      0x00\n        /* \"#utility.yul\":15492:15584   */\n      tag_466\n        /* \"#utility.yul\":15580:15583   */\n      dup4\n        /* \"#utility.yul\":15572:15578   */\n      dup4\n        /* \"#utility.yul\":15492:15584   */\n      tag_281\n      jump\t// in\n    tag_466:\n        /* \"#utility.yul\":15478:15584   */\n      swap1\n      pop\n        /* \"#utility.yul\":15342:15590   */\n      swap3\n      swap2\n      pop\n      pop\n      jump\t// out\n        /* \"#utility.yul\":15596:15730   */\n    tag_283:\n        /* \"#utility.yul\":15687:15691   */\n      0x00\n        /* \"#utility.yul\":15719:15723   */\n      0x20\n        /* \"#utility.yul\":15714:15717   */\n      dup3\n        /* \"#utility.yul\":15710:15724   */\n      add\n        /* \"#utility.yul\":15702:15724   */\n      swap1\n      pop\n        /* \"#utility.yul\":15596:15730   */\n      swap2\n      swap1\n      pop\n      jump\t// out\n        /* \"#utility.yul\":15802:16885   */\n    tag_284:\n        /* \"#utility.yul\":15963:15966   */\n      0x00\n        /* \"#utility.yul\":15992:16067   */\n      tag_469\n        /* \"#utility.yul\":16061:16066   */\n      dup3\n        /* \"#utility.yul\":15992:16067   */\n      tag_278\n      jump\t// in\n    tag_469:\n        /* \"#utility.yul\":16083:16190   */\n      tag_470\n        /* \"#utility.yul\":16183:16189   */\n      dup2\n        /* \"#utility.yul\":16178:16181   */\n      dup6\n        /* \"#utility.yul\":16083:16190   */\n      tag_279\n      jump\t// in\n    tag_470:\n        /* \"#utility.yul\":16076:16190   */\n      swap4\n      pop\n        /* \"#utility.yul\":16216:16219   */\n      dup4\n        /* \"#utility.yul\":16261:16265   */\n      0x20\n        /* \"#utility.yul\":16253:16259   */\n      dup3\n        /* \"#utility.yul\":16249:16266   */\n      mul\n        /* \"#utility.yul\":16244:16247   */\n      dup6\n        /* \"#utility.yul\":16240:16267   */\n      add\n        /* \"#utility.yul\":16291:16368   */\n      tag_471\n        /* \"#utility.yul\":16362:16367   */\n      dup6\n        /* \"#utility.yul\":16291:16368   */\n      tag_280\n      jump\t// in\n    tag_471:\n        /* \"#utility.yul\":16391:16398   */\n      dup1\n        /* \"#utility.yul\":16422:16423   */\n      0x00\n        /* \"#utility.yul\":16407:16840   */\n    tag_472:\n        /* \"#utility.yul\":16432:16438   */\n      dup6\n        /* \"#utility.yul\":16429:16430   */\n      dup2\n        /* \"#utility.yul\":16426:16439   */\n      lt\n        /* \"#utility.yul\":16407:16840   */\n      iszero\n      tag_474\n      jumpi\n        /* \"#utility.yul\":16503:16512   */\n      dup5\n        /* \"#utility.yul\":16497:16501   */\n      dup5\n        /* \"#utility.yul\":16493:16513   */\n      sub\n        /* \"#utility.yul\":16488:16491   */\n      dup10\n        /* \"#utility.yul\":16481:16514   */\n      mstore\n        /* \"#utility.yul\":16554:16560   */\n      dup2\n        /* \"#utility.yul\":16548:16561   */\n      mload\n        /* \"#utility.yul\":16582:16692   */\n      tag_475\n        /* \"#utility.yul\":16687:16691   */\n      dup6\n        /* \"#utility.yul\":16672:16685   */\n      dup3\n        /* \"#utility.yul\":16582:16692   */\n      tag_282\n      jump\t// in\n    tag_475:\n        /* \"#utility.yul\":16574:16692   */\n      swap5\n      pop\n        /* \"#utility.yul\":16715:16796   */\n      tag_476\n        /* \"#utility.yul\":16789:16795   */\n      dup4\n        /* \"#utility.yul\":16715:16796   */\n      tag_283\n      jump\t// in\n    tag_476:\n        /* \"#utility.yul\":16705:16796   */\n      swap3\n      pop\n        /* \"#utility.yul\":16825:16829   */\n      0x20\n        /* \"#utility.yul\":16820:16823   */\n      dup11\n        /* \"#utility.yul\":16816:16830   */\n      add\n        /* \"#utility.yul\":16809:16830   */\n      swap10\n      pop\n        /* \"#utility.yul\":16467:16840   */\n      pop\n        /* \"#utility.yul\":16454:16455   */\n      0x01\n        /* \"#utility.yul\":16451:16452   */\n      dup2\n        /* \"#utility.yul\":16447:16456   */\n      add\n        /* \"#utility.yul\":16442:16456   */\n      swap1\n      pop\n        /* \"#utility.yul\":16407:16840   */\n      jump(tag_472)\n    tag_474:\n        /* \"#utility.yul\":16411:16425   */\n      pop\n        /* \"#utility.yul\":16856:16860   */\n      dup3\n        /* \"#utility.yul\":16849:16860   */\n      swap8\n      pop\n        /* \"#utility.yul\":16876:16879   */\n      dup8\n        /* \"#utility.yul\":16869:16879   */\n      swap6\n      pop\n        /* \"#utility.yul\":15968:16885   */\n      pop\n      pop\n      pop\n      pop\n      pop\n        /* \"#utility.yul\":15802:16885   */\n      swap3\n      swap2\n      pop\n      pop\n      jump\t// out\n        /* \"#utility.yul\":16891:17348   */\n    tag_110:\n        /* \"#utility.yul\":17076:17080   */\n      0x00\n        /* \"#utility.yul\":17114:17116   */\n      0x20\n        /* \"#utility.yul\":17103:17112   */\n      dup3\n        /* \"#utility.yul\":17099:17117   */\n      add\n        /* \"#utility.yul\":17091:17117   */\n      swap1\n      pop\n        /* \"#utility.yul\":17163:17172   */\n      dup2\n        /* \"#utility.yul\":17157:17161   */\n      dup2\n        /* \"#utility.yul\":17153:17173   */\n      sub\n        /* \"#utility.yul\":17149:17150   */\n      0x00\n        /* \"#utility.yul\":17138:17147   */\n      dup4\n        /* \"#utility.yul\":17134:17151   */\n      add\n        /* \"#utility.yul\":17127:17174   */\n      mstore\n        /* \"#utility.yul\":17191:17341   */\n      tag_478\n        /* \"#utility.yul\":17336:17340   */\n      dup2\n        /* \"#utility.yul\":17327:17333   */\n      dup5\n        /* \"#utility.yul\":17191:17341   */\n      tag_284\n      jump\t// in\n    tag_478:\n        /* \"#utility.yul\":17183:17341   */\n      swap1\n      pop\n        /* \"#utility.yul\":16891:17348   */\n      swap3\n      swap2\n      pop\n      pop\n      jump\t// out\n        /* \"#utility.yul\":17354:17534   */\n    tag_285:\n        /* \"#utility.yul\":17402:17479   */\n      0x4e487b7100000000000000000000000000000000000000000000000000000000\n        /* \"#utility.yul\":17399:17400   */\n      0x00\n        /* \"#utility.yul\":17392:17480   */\n      mstore\n        /* \"#utility.yul\":17499:17503   */\n      0x22\n        /* \"#utility.yul\":17496:17497   */\n      0x04\n        /* \"#utility.yul\":17489:17504   */\n      mstore\n        /* \"#utility.yul\":17523:17527   */\n      0x24\n        /* \"#utility.yul\":17520:17521   */\n      0x00\n        /* \"#utility.yul\":17513:17528   */\n      revert\n        /* \"#utility.yul\":17540:17860   */\n    tag_126:\n        /* \"#utility.yul\":17584:17590   */\n      0x00\n        /* \"#utility.yul\":17621:17622   */\n      0x02\n        /* \"#utility.yul\":17615:17619   */\n      dup3\n        /* \"#utility.yul\":17611:17623   */\n      div\n        /* \"#utility.yul\":17601:17623   */\n      swap1\n      pop\n        /* \"#utility.yul\":17668:17669   */\n      0x01\n        /* \"#utility.yul\":17662:17666   */\n      dup3\n        /* \"#utility.yul\":17658:17670   */\n      and\n        /* \"#utility.yul\":17689:17707   */\n      dup1\n        /* \"#utility.yul\":17679:17760   */\n      tag_481\n      jumpi\n        /* \"#utility.yul\":17745:17749   */\n      0x7f\n        /* \"#utility.yul\":17737:17743   */\n      dup3\n        /* \"#utility.yul\":17733:17750   */\n      and\n        /* \"#utility.yul\":17723:17750   */\n      swap2\n      pop\n        /* \"#utility.yul\":17679:17760   */\n    tag_481:\n        /* \"#utility.yul\":17807:17809   */\n      0x20\n        /* \"#utility.yul\":17799:17805   */\n      dup3\n        /* \"#utility.yul\":17796:17810   */\n      lt\n        /* \"#utility.yul\":17776:17794   */\n      dup2\n        /* \"#utility.yul\":17773:17811   */\n      sub\n        /* \"#utility.yul\":17770:17854   */\n      tag_482\n      jumpi\n        /* \"#utility.yul\":17826:17844   */\n      tag_483\n      tag_285\n      jump\t// in\n    tag_483:\n        /* \"#utility.yul\":17770:17854   */\n    tag_482:\n        /* \"#utility.yul\":17591:17860   */\n      pop\n        /* \"#utility.yul\":17540:17860   */\n      swap2\n      swap1\n      pop\n      jump\t// out\n        /* \"#utility.yul\":17866:18007   */\n    tag_286:\n        /* \"#utility.yul\":17915:17919   */\n      0x00\n        /* \"#utility.yul\":17938:17941   */\n      dup2\n        /* \"#utility.yul\":17930:17941   */\n      swap1\n      pop\n        /* \"#utility.yul\":17961:17964   */\n      dup2\n        /* \"#utility.yul\":17958:17959   */\n      0x00\n        /* \"#utility.yul\":17951:17965   */\n      mstore\n        /* \"#utility.yul\":17995:17999   */\n      0x20\n        /* \"#utility.yul\":17992:17993   */\n      0x00\n        /* \"#utility.yul\":17982:18000   */\n      keccak256\n        /* \"#utility.yul\":17974:18000   */\n      swap1\n      pop\n        /* \"#utility.yul\":17866:18007   */\n      swap2\n      swap1\n      pop\n      jump\t// out\n        /* \"#utility.yul\":18013:18106   */\n    tag_287:\n        /* \"#utility.yul\":18050:18056   */\n      0x00\n        /* \"#utility.yul\":18097:18099   */\n      0x20\n        /* \"#utility.yul\":18092:18094   */\n      0x1f\n        /* \"#utility.yul\":18085:18090   */\n      dup4\n        /* \"#utility.yul\":18081:18095   */\n      add\n        /* \"#utility.yul\":18077:18100   */\n      div\n        /* \"#utility.yul\":18067:18100   */\n      swap1\n      pop\n        /* \"#utility.yul\":18013:18106   */\n      swap2\n      swap1\n      pop\n      jump\t// out\n        /* \"#utility.yul\":18112:18219   */\n    tag_288:\n        /* \"#utility.yul\":18156:18164   */\n      0x00\n        /* \"#utility.yul\":18206:18211   */\n      dup3\n        /* \"#utility.yul\":18200:18204   */\n      dup3\n        /* \"#utility.yul\":18196:18212   */\n      shl\n        /* \"#utility.yul\":18175:18212   */\n      swap1\n      pop\n        /* \"#utility.yul\":18112:18219   */\n      swap3\n      swap2\n      pop\n      pop\n      jump\t// out\n        /* \"#utility.yul\":18225:18618   */\n    tag_289:\n        /* \"#utility.yul\":18294:18300   */\n      0x00\n        /* \"#utility.yul\":18344:18345   */\n      0x08\n        /* \"#utility.yul\":18332:18342   */\n      dup4\n        /* \"#utility.yul\":18328:18346   */\n      mul\n        /* \"#utility.yul\":18367:18464   */\n      tag_488\n        /* \"#utility.yul\":18397:18463   */\n      0xffffffffffffffffffffffffffffffffffffffffffffffffffffffffffffffff\n        /* \"#utility.yul\":18386:18395   */\n      dup3\n        /* \"#utility.yul\":18367:18464   */\n      tag_288\n      jump\t// in\n    tag_488:\n        /* \"#utility.yul\":18485:18524   */\n      tag_489\n        /* \"#utility.yul\":18515:18523   */\n      dup7\n        /* \"#utility.yul\":18504:18513   */\n      dup4\n        /* \"#utility.yul\":18485:18524   */\n      tag_288\n      jump\t// in\n    tag_489:\n        /* \"#utility.yul\":18473:18524   */\n      swap6\n      pop\n        /* \"#utility.yul\":18557:18561   */\n      dup1\n        /* \"#utility.yul\":18553:18562   */\n      not\n        /* \"#utility.yul\":18546:18551   */\n      dup5\n        /* \"#utility.yul\":18542:18563   */\n      and\n        /* \"#utility.yul\":18533:18563   */\n      swap4\n      pop\n        /* \"#utility.yul\":18606:18610   */\n      dup1\n        /* \"#utility.yul\":18596:18604   */\n      dup7\n        /* \"#utility.yul\":18592:18611   */\n      and\n        /* \"#utility.yul\":18585:18590   */\n      dup5\n        /* \"#utility.yul\":18582:18612   */\n      or\n        /* \"#utility.yul\":18572:18612   */\n      swap3\n      pop\n        /* \"#utility.yul\":18301:18618   */\n      pop\n      pop\n        /* \"#utility.yul\":18225:18618   */\n      swap4\n      swap3\n      pop\n      pop\n      pop\n      jump\t// out\n        /* \"#utility.yul\":18624:18684   */\n    tag_290:\n        /* \"#utility.yul\":18652:18655   */\n      0x00\n        /* \"#utility.yul\":18673:18678   */\n      dup2\n        /* \"#utility.yul\":18666:18678   */\n      swap1\n      pop\n        /* \"#utility.yul\":18624:18684   */\n      swap2\n      swap1\n      pop\n      jump\t// out\n        /* \"#utility.yul\":18690:18832   */\n    tag_291:\n        /* \"#utility.yul\":18740:18749   */\n      0x00\n        /* \"#utility.yul\":18773:18826   */\n      tag_492\n        /* \"#utility.yul\":18791:18825   */\n      tag_493\n        /* \"#utility.yul\":18800:18824   */\n      tag_494\n        /* \"#utility.yul\":18818:18823   */\n      dup5\n        /* \"#utility.yul\":18800:18824   */\n      tag_252\n      jump\t// in\n    tag_494:\n        /* \"#utility.yul\":18791:18825   */\n      tag_290\n      jump\t// in\n    tag_493:\n        /* \"#utility.yul\":18773:18826   */\n      tag_252\n      jump\t// in\n    tag_492:\n        /* \"#utility.yul\":18760:18826   */\n      swap1\n      pop\n        /* \"#utility.yul\":18690:18832   */\n      swap2\n      swap1\n      pop\n      jump\t// out\n        /* \"#utility.yul\":18838:18913   */\n    tag_292:\n        /* \"#utility.yul\":18881:18884   */\n      0x00\n        /* \"#utility.yul\":18902:18907   */\n      dup2\n        /* \"#utility.yul\":18895:18907   */\n      swap1\n      pop\n        /* \"#utility.yul\":18838:18913   */\n      swap2\n      swap1\n      pop\n      jump\t// out\n        /* \"#utility.yul\":18919:19188   */\n    tag_293:\n        /* \"#utility.yul\":19029:19068   */\n      tag_497\n        /* \"#utility.yul\":19060:19067   */\n      dup4\n        /* \"#utility.yul\":19029:19068   */\n      tag_291\n      jump\t// in\n    tag_497:\n        /* \"#utility.yul\":19090:19181   */\n      tag_498\n        /* \"#utility.yul\":19139:19180   */\n      tag_499\n        /* \"#utility.yul\":19163:19179   */\n      dup3\n        /* \"#utility.yul\":19139:19180   */\n      tag_292\n      jump\t// in\n    tag_499:\n        /* \"#utility.yul\":19131:19137   */\n      dup5\n        /* \"#utility.yul\":19124:19128   */\n      dup5\n        /* \"#utility.yul\":19118:19129   */\n      sload\n        /* \"#utility.yul\":19090:19181   */\n      tag_289\n      jump\t// in\n    tag_498:\n        /* \"#utility.yul\":19084:19088   */\n      dup3\n        /* \"#utility.yul\":19077:19182   */\n      sstore\n        /* \"#utility.yul\":18995:19188   */\n      pop\n        /* \"#utility.yul\":18919:19188   */\n      pop\n      pop\n      pop\n      jump\t// out\n        /* \"#utility.yul\":19194:19267   */\n    tag_294:\n        /* \"#utility.yul\":19239:19242   */\n      0x00\n        /* \"#utility.yul\":19194:19267   */\n      swap1\n      jump\t// out\n        /* \"#utility.yul\":19273:19462   */\n    tag_295:\n        /* \"#utility.yul\":19350:19382   */\n      tag_502\n      tag_294\n      jump\t// in\n    tag_502:\n        /* \"#utility.yul\":19391:19456   */\n      tag_503\n        /* \"#utility.yul\":19449:19455   */\n      dup2\n        /* \"#utility.yul\":19441:19447   */\n      dup5\n        /* \"#utility.yul\":19435:19439   */\n      dup5\n        /* \"#utility.yul\":19391:19456   */\n      tag_293\n      jump\t// in\n    tag_503:\n        /* \"#utility.yul\":19326:19462   */\n      pop\n        /* \"#utility.yul\":19273:19462   */\n      pop\n      pop\n      jump\t// out\n        /* \"#utility.yul\":19468:19654   */\n    tag_296:\n        /* \"#utility.yul\":19528:19648   */\n    tag_505:\n        /* \"#utility.yul\":19545:19548   */\n      dup2\n        /* \"#utility.yul\":19538:19543   */\n      dup2\n        /* \"#utility.yul\":19535:19549   */\n      lt\n        /* \"#utility.yul\":19528:19648   */\n      iszero\n      tag_507\n      jumpi\n        /* \"#utility.yul\":19599:19638   */\n      tag_508\n        /* \"#utility.yul\":19636:19637   */\n      0x00\n        /* \"#utility.yul\":19629:19634   */\n      dup3\n        /* \"#utility.yul\":19599:19638   */\n      tag_295\n      jump\t// in\n    tag_508:\n        /* \"#utility.yul\":19572:19573   */\n      0x01\n        /* \"#utility.yul\":19565:19570   */\n      dup2\n        /* \"#utility.yul\":19561:19574   */\n      add\n        /* \"#utility.yul\":19552:19574   */\n      swap1\n      pop\n        /* \"#utility.yul\":19528:19648   */\n      jump(tag_505)\n    tag_507:\n        /* \"#utility.yul\":19468:19654   */\n      pop\n      pop\n      jump\t// out\n        /* \"#utility.yul\":19660:20203   */\n    tag_297:\n        /* \"#utility.yul\":19761:19763   */\n      0x1f\n        /* \"#utility.yul\":19756:19759   */\n      dup3\n        /* \"#utility.yul\":19753:19764   */\n      gt\n        /* \"#utility.yul\":19750:20196   */\n      iszero\n      tag_510\n      jumpi\n        /* \"#utility.yul\":19795:19833   */\n      tag_511\n        /* \"#utility.yul\":19827:19832   */\n      dup2\n        /* \"#utility.yul\":19795:19833   */\n      tag_286\n      jump\t// in\n    tag_511:\n        /* \"#utility.yul\":19879:19908   */\n      tag_512\n        /* \"#utility.yul\":19897:19907   */\n      dup5\n        /* \"#utility.yul\":19879:19908   */\n      tag_287\n      jump\t// in\n    tag_512:\n        /* \"#utility.yul\":19869:19877   */\n      dup2\n        /* \"#utility.yul\":19865:19909   */\n      add\n        /* \"#utility.yul\":20062:20064   */\n      0x20\n        /* \"#utility.yul\":20050:20060   */\n      dup6\n        /* \"#utility.yul\":20047:20065   */\n      lt\n        /* \"#utility.yul\":20044:20093   */\n      iszero\n      tag_513\n      jumpi\n        /* \"#utility.yul\":20083:20091   */\n      dup2\n        /* \"#utility.yul\":20068:20091   */\n      swap1\n      pop\n        /* \"#utility.yul\":20044:20093   */\n    tag_513:\n        /* \"#utility.yul\":20106:20186   */\n      tag_514\n        /* \"#utility.yul\":20162:20184   */\n      tag_515\n        /* \"#utility.yul\":20180:20183   */\n      dup6\n        /* \"#utility.yul\":20162:20184   */\n      tag_287\n      jump\t// in\n    tag_515:\n        /* \"#utility.yul\":20152:20160   */\n      dup4\n        /* \"#utility.yul\":20148:20185   */\n      add\n        /* \"#utility.yul\":20135:20146   */\n      dup3\n        /* \"#utility.yul\":20106:20186   */\n      tag_296\n      jump\t// in\n    tag_514:\n        /* \"#utility.yul\":19765:20196   */\n      pop\n      pop\n        /* \"#utility.yul\":19750:20196   */\n    tag_510:\n        /* \"#utility.yul\":19660:20203   */\n      pop\n      pop\n      pop\n      jump\t// out\n        /* \"#utility.yul\":20209:20326   */\n    tag_298:\n        /* \"#utility.yul\":20263:20271   */\n      0x00\n        /* \"#utility.yul\":20313:20318   */\n      dup3\n        /* \"#utility.yul\":20307:20311   */\n      dup3\n        /* \"#utility.yul\":20303:20319   */\n      shr\n        /* \"#utility.yul\":20282:20319   */\n      swap1\n      pop\n        /* \"#utility.yul\":20209:20326   */\n      swap3\n      swap2\n      pop\n      pop\n      jump\t// out\n        /* \"#utility.yul\":20332:20501   */\n    tag_299:\n        /* \"#utility.yul\":20376:20382   */\n      0x00\n        /* \"#utility.yul\":20409:20460   */\n      tag_518\n        /* \"#utility.yul\":20457:20458   */\n      0x00\n        /* \"#utility.yul\":20453:20459   */\n      not\n        /* \"#utility.yul\":20445:20450   */\n      dup5\n        /* \"#utility.yul\":20442:20443   */\n      0x08\n        /* \"#utility.yul\":20438:20451   */\n      mul\n        /* \"#utility.yul\":20409:20460   */\n      tag_298\n      jump\t// in\n    tag_518:\n        /* \"#utility.yul\":20405:20461   */\n      not\n        /* \"#utility.yul\":20490:20494   */\n      dup1\n        /* \"#utility.yul\":20484:20488   */\n      dup4\n        /* \"#utility.yul\":20480:20495   */\n      and\n        /* \"#utility.yul\":20470:20495   */\n      swap2\n      pop\n        /* \"#utility.yul\":20383:20501   */\n      pop\n        /* \"#utility.yul\":20332:20501   */\n      swap3\n      swap2\n      pop\n      pop\n      jump\t// out\n        /* \"#utility.yul\":20506:20801   */\n    tag_300:\n        /* \"#utility.yul\":20582:20586   */\n      0x00\n        /* \"#utility.yul\":20728:20757   */\n      tag_520\n        /* \"#utility.yul\":20753:20756   */\n      dup4\n        /* \"#utility.yul\":20747:20751   */\n      dup4\n        /* \"#utility.yul\":20728:20757   */\n      tag_299\n      jump\t// in\n    tag_520:\n        /* \"#utility.yul\":20720:20757   */\n      swap2\n      pop\n        /* \"#utility.yul\":20790:20793   */\n      dup3\n        /* \"#utility.yul\":20787:20788   */\n      0x02\n        /* \"#utility.yul\":20783:20794   */\n      mul\n        /* \"#utility.yul\":20777:20781   */\n      dup3\n        /* \"#utility.yul\":20774:20795   */\n      or\n        /* \"#utility.yul\":20766:20795   */\n      swap1\n      pop\n        /* \"#utility.yul\":20506:20801   */\n      swap3\n      swap2\n      pop\n      pop\n      jump\t// out\n        /* \"#utility.yul\":20806:22201   */\n    tag_121:\n        /* \"#utility.yul\":20923:20960   */\n      tag_522\n        /* \"#utility.yul\":20956:20959   */\n      dup3\n        /* \"#utility.yul\":20923:20960   */\n      tag_257\n      jump\t// in\n    tag_522:\n        /* \"#utility.yul\":21025:21043   */\n      0xffffffffffffffff\n        /* \"#utility.yul\":21017:21023   */\n      dup2\n        /* \"#utility.yul\":21014:21044   */\n      gt\n        /* \"#utility.yul\":21011:21067   */\n      iszero\n      tag_523\n      jumpi\n        /* \"#utility.yul\":21047:21065   */\n      tag_524\n      tag_242\n      jump\t// in\n    tag_524:\n        /* \"#utility.yul\":21011:21067   */\n    tag_523:\n        /* \"#utility.yul\":21091:21129   */\n      tag_525\n        /* \"#utility.yul\":21123:21127   */\n      dup3\n        /* \"#utility.yul\":21117:21128   */\n      sload\n        /* \"#utility.yul\":21091:21129   */\n      tag_126\n      jump\t// in\n    tag_525:\n        /* \"#utility.yul\":21176:21243   */\n      tag_526\n        /* \"#utility.yul\":21236:21242   */\n      dup3\n        /* \"#utility.yul\":21228:21234   */\n      dup3\n        /* \"#utility.yul\":21222:21226   */\n      dup6\n        /* \"#utility.yul\":21176:21243   */\n      tag_297\n      jump\t// in\n    tag_526:\n        /* \"#utility.yul\":21270:21271   */\n      0x00\n        /* \"#utility.yul\":21294:21298   */\n      0x20\n        /* \"#utility.yul\":21281:21298   */\n      swap1\n      pop\n        /* \"#utility.yul\":21326:21328   */\n      0x1f\n        /* \"#utility.yul\":21318:21324   */\n      dup4\n        /* \"#utility.yul\":21315:21329   */\n      gt\n        /* \"#utility.yul\":21343:21344   */\n      0x01\n        /* \"#utility.yul\":21338:21956   */\n      dup2\n      eq\n      tag_528\n      jumpi\n        /* \"#utility.yul\":22000:22001   */\n      0x00\n        /* \"#utility.yul\":22017:22023   */\n      dup5\n        /* \"#utility.yul\":22014:22091   */\n      iszero\n      tag_529\n      jumpi\n        /* \"#utility.yul\":22066:22075   */\n      dup3\n        /* \"#utility.yul\":22061:22064   */\n      dup8\n        /* \"#utility.yul\":22057:22076   */\n      add\n        /* \"#utility.yul\":22051:22077   */\n      mload\n        /* \"#utility.yul\":22042:22077   */\n      swap1\n      pop\n        /* \"#utility.yul\":22014:22091   */\n    tag_529:\n        /* \"#utility.yul\":22117:22184   */\n      tag_530\n        /* \"#utility.yul\":22177:22183   */\n      dup6\n        /* \"#utility.yul\":22170:22175   */\n      dup3\n        /* \"#utility.yul\":22117:22184   */\n      tag_300\n      jump\t// in\n    tag_530:\n        /* \"#utility.yul\":22111:22115   */\n      dup7\n        /* \"#utility.yul\":22104:22185   */\n      sstore\n        /* \"#utility.yul\":21973:22195   */\n      pop\n        /* \"#utility.yul\":21308:22195   */\n      jump(tag_527)\n        /* \"#utility.yul\":21338:21956   */\n    tag_528:\n        /* \"#utility.yul\":21390:21394   */\n      0x1f\n        /* \"#utility.yul\":21386:21395   */\n      not\n        /* \"#utility.yul\":21378:21384   */\n      dup5\n        /* \"#utility.yul\":21374:21396   */\n      and\n        /* \"#utility.yul\":21424:21461   */\n      tag_531\n        /* \"#utility.yul\":21456:21460   */\n      dup7\n        /* \"#utility.yul\":21424:21461   */\n      tag_286\n      jump\t// in\n    tag_531:\n        /* \"#utility.yul\":21483:21484   */\n      0x00\n        /* \"#utility.yul\":21497:21705   */\n    tag_532:\n        /* \"#utility.yul\":21511:21518   */\n      dup3\n        /* \"#utility.yul\":21508:21509   */\n      dup2\n        /* \"#utility.yul\":21505:21519   */\n      lt\n        /* \"#utility.yul\":21497:21705   */\n      iszero\n      tag_534\n      jumpi\n        /* \"#utility.yul\":21590:21599   */\n      dup5\n        /* \"#utility.yul\":21585:21588   */\n      dup10\n        /* \"#utility.yul\":21581:21600   */\n      add\n        /* \"#utility.yul\":21575:21601   */\n      mload\n        /* \"#utility.yul\":21567:21573   */\n      dup3\n        /* \"#utility.yul\":21560:21602   */\n      sstore\n        /* \"#utility.yul\":21641:21642   */\n      0x01\n        /* \"#utility.yul\":21633:21639   */\n      dup3\n        /* \"#utility.yul\":21629:21643   */\n      add\n        /* \"#utility.yul\":21619:21643   */\n      swap2\n      pop\n        /* \"#utility.yul\":21688:21690   */\n      0x20\n        /* \"#utility.yul\":21677:21686   */\n      dup6\n        /* \"#utility.yul\":21673:21691   */\n      add\n        /* \"#utility.yul\":21660:21691   */\n      swap5\n      pop\n        /* \"#utility.yul\":21534:21538   */\n      0x20\n        /* \"#utility.yul\":21531:21532   */\n      dup2\n        /* \"#utility.yul\":21527:21539   */\n      add\n        /* \"#utility.yul\":21522:21539   */\n      swap1\n      pop\n        /* \"#utility.yul\":21497:21705   */\n      jump(tag_532)\n    tag_534:\n        /* \"#utility.yul\":21733:21739   */\n      dup7\n        /* \"#utility.yul\":21724:21731   */\n      dup4\n        /* \"#utility.yul\":21721:21740   */\n      lt\n        /* \"#utility.yul\":21718:21897   */\n      iszero\n      tag_535\n      jumpi\n        /* \"#utility.yul\":21791:21800   */\n      dup5\n        /* \"#utility.yul\":21786:21789   */\n      dup10\n        /* \"#utility.yul\":21782:21801   */\n      add\n        /* \"#utility.yul\":21776:21802   */\n      mload\n        /* \"#utility.yul\":21834:21882   */\n      tag_536\n        /* \"#utility.yul\":21876:21880   */\n      0x1f\n        /* \"#utility.yul\":21868:21874   */\n      dup10\n        /* \"#utility.yul\":21864:21881   */\n      and\n        /* \"#utility.yul\":21853:21862   */\n      dup3\n        /* \"#utility.yul\":21834:21882   */\n      tag_299\n      jump\t// in\n    tag_536:\n        /* \"#utility.yul\":21826:21832   */\n      dup4\n        /* \"#utility.yul\":21819:21883   */\n      sstore\n        /* \"#utility.yul\":21741:21897   */\n      pop\n        /* \"#utility.yul\":21718:21897   */\n    tag_535:\n        /* \"#utility.yul\":21943:21944   */\n      0x01\n        /* \"#utility.yul\":21939:21940   */\n      0x02\n        /* \"#utility.yul\":21931:21937   */\n      dup9\n        /* \"#utility.yul\":21927:21941   */\n      mul\n        /* \"#utility.yul\":21923:21945   */\n      add\n        /* \"#utility.yul\":21917:21921   */\n      dup9\n        /* \"#utility.yul\":21910:21946   */\n      sstore\n        /* \"#utility.yul\":21345:21956   */\n      pop\n      pop\n      pop\n        /* \"#utility.yul\":21308:22195   */\n    tag_527:\n      pop\n        /* \"#utility.yul\":20898:22201   */\n      pop\n      pop\n      pop\n        /* \"#utility.yul\":20806:22201   */\n      pop\n      pop\n      jump\t// out\n        /* \"#utility.yul\":22207:22368   */\n    tag_301:\n        /* \"#utility.yul\":22347:22360   */\n      0x486173206e6f20736c6f74000000000000000000000000000000000000000000\n        /* \"#utility.yul\":22343:22344   */\n      0x00\n        /* \"#utility.yul\":22335:22341   */\n      dup3\n        /* \"#utility.yul\":22331:22345   */\n      add\n        /* \"#utility.yul\":22324:22361   */\n      mstore\n        /* \"#utility.yul\":22207:22368   */\n      pop\n      jump\t// out\n        /* \"#utility.yul\":22374:22740   */\n    tag_302:\n        /* \"#utility.yul\":22516:22519   */\n      0x00\n        /* \"#utility.yul\":22537:22604   */\n      tag_539\n        /* \"#utility.yul\":22601:22603   */\n      0x0b\n        /* \"#utility.yul\":22596:22599   */\n      dup4\n        /* \"#utility.yul\":22537:22604   */\n      tag_258\n      jump\t// in\n    tag_539:\n        /* \"#utility.yul\":22530:22604   */\n      swap2\n      pop\n        /* \"#utility.yul\":22613:22706   */\n      tag_540\n        /* \"#utility.yul\":22702:22705   */\n      dup3\n        /* \"#utility.yul\":22613:22706   */\n      tag_301\n      jump\t// in\n    tag_540:\n        /* \"#utility.yul\":22731:22733   */\n      0x20\n        /* \"#utility.yul\":22726:22729   */\n      dup3\n        /* \"#utility.yul\":22722:22734   */\n      add\n        /* \"#utility.yul\":22715:22734   */\n      swap1\n      pop\n        /* \"#utility.yul\":22374:22740   */\n      swap2\n      swap1\n      pop\n      jump\t// out\n        /* \"#utility.yul\":22746:23165   */\n    tag_150:\n        /* \"#utility.yul\":22912:22916   */\n      0x00\n        /* \"#utility.yul\":22950:22952   */\n      0x20\n        /* \"#utility.yul\":22939:22948   */\n      dup3\n        /* \"#utility.yul\":22935:22953   */\n      add\n        /* \"#utility.yul\":22927:22953   */\n      swap1\n      pop\n        /* \"#utility.yul\":22999:23008   */\n      dup2\n        /* \"#utility.yul\":22993:22997   */\n      dup2\n        /* \"#utility.yul\":22989:23009   */\n      sub\n        /* \"#utility.yul\":22985:22986   */\n      0x00\n        /* \"#utility.yul\":22974:22983   */\n      dup4\n        /* \"#utility.yul\":22970:22987   */\n      add\n        /* \"#utility.yul\":22963:23010   */\n      mstore\n        /* \"#utility.yul\":23027:23158   */\n      tag_542\n        /* \"#utility.yul\":23153:23157   */\n      dup2\n        /* \"#utility.yul\":23027:23158   */\n      tag_302\n      jump\t// in\n    tag_542:\n        /* \"#utility.yul\":23019:23158   */\n      swap1\n      pop\n        /* \"#utility.yul\":22746:23165   */\n      swap2\n      swap1\n      pop\n      jump\t// out\n        /* \"#utility.yul\":23171:23351   */\n    tag_303:\n        /* \"#utility.yul\":23219:23296   */\n      0x4e487b7100000000000000000000000000000000000000000000000000000000\n        /* \"#utility.yul\":23216:23217   */\n      0x00\n        /* \"#utility.yul\":23209:23297   */\n      mstore\n        /* \"#utility.yul\":23316:23320   */\n      0x11\n        /* \"#utility.yul\":23313:23314   */\n      0x04\n        /* \"#utility.yul\":23306:23321   */\n      mstore\n        /* \"#utility.yul\":23340:23344   */\n      0x24\n        /* \"#utility.yul\":23337:23338   */\n      0x00\n        /* \"#utility.yul\":23330:23345   */\n      revert\n        /* \"#utility.yul\":23357:23590   */\n    tag_152:\n        /* \"#utility.yul\":23396:23399   */\n      0x00\n        /* \"#utility.yul\":23419:23443   */\n      tag_545\n        /* \"#utility.yul\":23437:23442   */\n      dup3\n        /* \"#utility.yul\":23419:23443   */\n      tag_252\n      jump\t// in\n    tag_545:\n        /* \"#utility.yul\":23410:23443   */\n      swap2\n      pop\n        /* \"#utility.yul\":23465:23531   */\n      0xffffffffffffffffffffffffffffffffffffffffffffffffffffffffffffffff\n        /* \"#utility.yul\":23458:23463   */\n      dup3\n        /* \"#utility.yul\":23455:23532   */\n      sub\n        /* \"#utility.yul\":23452:23555   */\n      tag_546\n      jumpi\n        /* \"#utility.yul\":23535:23553   */\n      tag_547\n      tag_303\n      jump\t// in\n    tag_547:\n        /* \"#utility.yul\":23452:23555   */\n    tag_546:\n        /* \"#utility.yul\":23582:23583   */\n      0x01\n        /* \"#utility.yul\":23575:23580   */\n      dup3\n        /* \"#utility.yul\":23571:23584   */\n      add\n        /* \"#utility.yul\":23564:23584   */\n      swap1\n      pop\n        /* \"#utility.yul\":23357:23590   */\n      swap2\n      swap1\n      pop\n      jump\t// out\n        /* \"#utility.yul\":23596:23776   */\n    tag_155:\n        /* \"#utility.yul\":23644:23721   */\n      0x4e487b7100000000000000000000000000000000000000000000000000000000\n        /* \"#utility.yul\":23641:23642   */\n      0x00\n        /* \"#utility.yul\":23634:23722   */\n      mstore\n        /* \"#utility.yul\":23741:23745   */\n      0x32\n        /* \"#utility.yul\":23738:23739   */\n      0x04\n        /* \"#utility.yul\":23731:23746   */\n      mstore\n        /* \"#utility.yul\":23765:23769   */\n      0x24\n        /* \"#utility.yul\":23762:23763   */\n      0x00\n        /* \"#utility.yul\":23755:23770   */\n      revert\n        /* \"#utility.yul\":23806:24637   */\n    tag_304:\n        /* \"#utility.yul\":23891:23894   */\n      0x00\n        /* \"#utility.yul\":23928:23933   */\n      dup2\n        /* \"#utility.yul\":23922:23934   */\n      sload\n        /* \"#utility.yul\":23957:23993   */\n      tag_550\n        /* \"#utility.yul\":23983:23992   */\n      dup2\n        /* \"#utility.yul\":23957:23993   */\n      tag_126\n      jump\t// in\n    tag_550:\n        /* \"#utility.yul\":24009:24080   */\n      tag_551\n        /* \"#utility.yul\":24073:24079   */\n      dup2\n        /* \"#utility.yul\":24068:24071   */\n      dup7\n        /* \"#utility.yul\":24009:24080   */\n      tag_258\n      jump\t// in\n    tag_551:\n        /* \"#utility.yul\":24002:24080   */\n      swap5\n      pop\n        /* \"#utility.yul\":24111:24112   */\n      0x01\n        /* \"#utility.yul\":24100:24109   */\n      dup3\n        /* \"#utility.yul\":24096:24113   */\n      and\n        /* \"#utility.yul\":24127:24128   */\n      0x00\n        /* \"#utility.yul\":24122:24286   */\n      dup2\n      eq\n      tag_553\n      jumpi\n        /* \"#utility.yul\":24300:24301   */\n      0x01\n        /* \"#utility.yul\":24295:24631   */\n      dup2\n      eq\n      tag_554\n      jumpi\n        /* \"#utility.yul\":24089:24631   */\n      jump(tag_552)\n        /* \"#utility.yul\":24122:24286   */\n    tag_553:\n        /* \"#utility.yul\":24206:24210   */\n      0xff\n        /* \"#utility.yul\":24202:24211   */\n      not\n        /* \"#utility.yul\":24191:24200   */\n      dup4\n        /* \"#utility.yul\":24187:24212   */\n      and\n        /* \"#utility.yul\":24182:24185   */\n      dup7\n        /* \"#utility.yul\":24175:24213   */\n      mstore\n        /* \"#utility.yul\":24266:24272   */\n      dup2\n        /* \"#utility.yul\":24259:24273   */\n      iszero\n        /* \"#utility.yul\":24252:24274   */\n      iszero\n        /* \"#utility.yul\":24246:24250   */\n      0x20\n        /* \"#utility.yul\":24242:24275   */\n      mul\n        /* \"#utility.yul\":24237:24240   */\n      dup7\n        /* \"#utility.yul\":24233:24276   */\n      add\n        /* \"#utility.yul\":24226:24276   */\n      swap4\n      pop\n        /* \"#utility.yul\":24122:24286   */\n      jump(tag_552)\n        /* \"#utility.yul\":24295:24631   */\n    tag_554:\n        /* \"#utility.yul\":24362:24400   */\n      tag_555\n        /* \"#utility.yul\":24394:24399   */\n      dup6\n        /* \"#utility.yul\":24362:24400   */\n      tag_286\n      jump\t// in\n    tag_555:\n        /* \"#utility.yul\":24422:24423   */\n      0x00\n        /* \"#utility.yul\":24436:24590   */\n    tag_556:\n        /* \"#utility.yul\":24450:24456   */\n      dup4\n        /* \"#utility.yul\":24447:24448   */\n      dup2\n        /* \"#utility.yul\":24444:24457   */\n      lt\n        /* \"#utility.yul\":24436:24590   */\n      iszero\n      tag_558\n      jumpi\n        /* \"#utility.yul\":24524:24531   */\n      dup2\n        /* \"#utility.yul\":24518:24532   */\n      sload\n        /* \"#utility.yul\":24514:24515   */\n      dup2\n        /* \"#utility.yul\":24509:24512   */\n      dup10\n        /* \"#utility.yul\":24505:24516   */\n      add\n        /* \"#utility.yul\":24498:24533   */\n      mstore\n        /* \"#utility.yul\":24574:24575   */\n      0x01\n        /* \"#utility.yul\":24565:24572   */\n      dup3\n        /* \"#utility.yul\":24561:24576   */\n      add\n        /* \"#utility.yul\":24550:24576   */\n      swap2\n      pop\n        /* \"#utility.yul\":24472:24476   */\n      0x20\n        /* \"#utility.yul\":24469:24470   */\n      dup2\n        /* \"#utility.yul\":24465:24477   */\n      add\n        /* \"#utility.yul\":24460:24477   */\n      swap1\n      pop\n        /* \"#utility.yul\":24436:24590   */\n      jump(tag_556)\n    tag_558:\n        /* \"#utility.yul\":24619:24620   */\n      dup1\n        /* \"#utility.yul\":24614:24617   */\n      dup9\n        /* \"#utility.yul\":24610:24621   */\n      add\n        /* \"#utility.yul\":24603:24621   */\n      swap6\n      pop\n        /* \"#utility.yul\":24302:24631   */\n      pop\n      pop\n        /* \"#utility.yul\":24089:24631   */\n    tag_552:\n      pop\n        /* \"#utility.yul\":23895:24637   */\n      pop\n      pop\n        /* \"#utility.yul\":23806:24637   */\n      swap3\n      swap2\n      pop\n      pop\n      jump\t// out\n        /* \"#utility.yul\":24643:24950   */\n    tag_168:\n        /* \"#utility.yul\":24753:24757   */\n      0x00\n        /* \"#utility.yul\":24791:24793   */\n      0x20\n        /* \"#utility.yul\":24780:24789   */\n      dup3\n        /* \"#utility.yul\":24776:24794   */\n      add\n        /* \"#utility.yul\":24768:24794   */\n      swap1\n      pop\n        /* \"#utility.yul\":24840:24849   */\n      dup2\n        /* \"#utility.yul\":24834:24838   */\n      dup2\n        /* \"#utility.yul\":24830:24850   */\n      sub\n        /* \"#utility.yul\":24826:24827   */\n      0x00\n        /* \"#utility.yul\":24815:24824   */\n      dup4\n        /* \"#utility.yul\":24811:24828   */\n      add\n        /* \"#utility.yul\":24804:24851   */\n      mstore\n        /* \"#utility.yul\":24868:24943   */\n      tag_560\n        /* \"#utility.yul\":24938:24942   */\n      dup2\n        /* \"#utility.yul\":24929:24935   */\n      dup5\n        /* \"#utility.yul\":24868:24943   */\n      tag_304\n      jump\t// in\n    tag_560:\n        /* \"#utility.yul\":24860:24943   */\n      swap1\n      pop\n        /* \"#utility.yul\":24643:24950   */\n      swap3\n      swap2\n      pop\n      pop\n      jump\t// out\n        /* \"#utility.yul\":24956:25147   */\n    tag_171:\n        /* \"#utility.yul\":24996:24999   */\n      0x00\n        /* \"#utility.yul\":25015:25035   */\n      tag_562\n        /* \"#utility.yul\":25033:25034   */\n      dup3\n        /* \"#utility.yul\":25015:25035   */\n      tag_252\n      jump\t// in\n    tag_562:\n        /* \"#utility.yul\":25010:25035   */\n      swap2\n      pop\n        /* \"#utility.yul\":25049:25069   */\n      tag_563\n        /* \"#utility.yul\":25067:25068   */\n      dup4\n        /* \"#utility.yul\":25049:25069   */\n      tag_252\n      jump\t// in\n    tag_563:\n        /* \"#utility.yul\":25044:25069   */\n      swap3\n      pop\n        /* \"#utility.yul\":25092:25093   */\n      dup3\n        /* \"#utility.yul\":25089:25090   */\n      dup3\n        /* \"#utility.yul\":25085:25094   */\n      add\n        /* \"#utility.yul\":25078:25094   */\n      swap1\n      pop\n        /* \"#utility.yul\":25113:25116   */\n      dup1\n        /* \"#utility.yul\":25110:25111   */\n      dup3\n        /* \"#utility.yul\":25107:25117   */\n      gt\n        /* \"#utility.yul\":25104:25140   */\n      iszero\n      tag_564\n      jumpi\n        /* \"#utility.yul\":25120:25138   */\n      tag_565\n      tag_303\n      jump\t// in\n    tag_565:\n        /* \"#utility.yul\":25104:25140   */\n    tag_564:\n        /* \"#utility.yul\":24956:25147   */\n      swap3\n      swap2\n      pop\n      pop\n      jump\t// out\n        /* \"#utility.yul\":25153:25528   */\n    tag_178:\n        /* \"#utility.yul\":25192:25195   */\n      0x00\n        /* \"#utility.yul\":25211:25230   */\n      tag_567\n        /* \"#utility.yul\":25228:25229   */\n      dup3\n        /* \"#utility.yul\":25211:25230   */\n      tag_269\n      jump\t// in\n    tag_567:\n        /* \"#utility.yul\":25206:25230   */\n      swap2\n      pop\n        /* \"#utility.yul\":25244:25263   */\n      tag_568\n        /* \"#utility.yul\":25261:25262   */\n      dup4\n        /* \"#utility.yul\":25244:25263   */\n      tag_269\n      jump\t// in\n    tag_568:\n        /* \"#utility.yul\":25239:25263   */\n      swap3\n      pop\n        /* \"#utility.yul\":25286:25287   */\n      dup3\n        /* \"#utility.yul\":25283:25284   */\n      dup3\n        /* \"#utility.yul\":25279:25288   */\n      add\n        /* \"#utility.yul\":25272:25288   */\n      swap1\n      pop\n        /* \"#utility.yul\":25484:25485   */\n      dup3\n        /* \"#utility.yul\":25479:25482   */\n      dup2\n        /* \"#utility.yul\":25475:25486   */\n      slt\n        /* \"#utility.yul\":25468:25487   */\n      iszero\n        /* \"#utility.yul\":25464:25465   */\n      0x00\n        /* \"#utility.yul\":25461:25462   */\n      dup4\n        /* \"#utility.yul\":25457:25466   */\n      slt\n        /* \"#utility.yul\":25453:25488   */\n      and\n        /* \"#utility.yul\":25436:25437   */\n      dup4\n        /* \"#utility.yul\":25431:25434   */\n      dup3\n        /* \"#utility.yul\":25427:25438   */\n      slt\n        /* \"#utility.yul\":25422:25423   */\n      0x00\n        /* \"#utility.yul\":25419:25420   */\n      dup5\n        /* \"#utility.yul\":25415:25424   */\n      slt\n        /* \"#utility.yul\":25408:25425   */\n      iszero\n        /* \"#utility.yul\":25404:25439   */\n      and\n        /* \"#utility.yul\":25388:25498   */\n      or\n        /* \"#utility.yul\":25385:25521   */\n      iszero\n      tag_569\n      jumpi\n        /* \"#utility.yul\":25501:25519   */\n      tag_570\n      tag_303\n      jump\t// in\n    tag_570:\n        /* \"#utility.yul\":25385:25521   */\n    tag_569:\n        /* \"#utility.yul\":25153:25528   */\n      swap3\n      swap2\n      pop\n      pop\n      jump\t// out\n\n    auxdata: 0xa26469706673582212209d4ab882a564139efb9c7e59c7789938c9245621874beba1eb291a74a0a3f75964736f6c63430008130033\n}\n",
				"bytecode": {
					"linkReferences": {},
					"object": "60806040523480156200001157600080fd5b5033600360006101000a81548173ffffffffffffffffffffffffffffffffffffffff021916908373ffffffffffffffffffffffffffffffffffffffff160217905550600580600181540180825580915050600190039060005260206000200160006040518060400160405280600e81526020017f6973206e6f7420616c6c6f77656400000000000000000000000000000000000081525090919091509081620000bb91906200040e565b50600580600181540180825580915050600190039060005260206000200160006040518060400160405280600a81526020017f6f6e6c79206f776e657200000000000000000000000000000000000000000000815250909190915090816200012491906200040e565b50600580600181540180825580915050600190039060005260206000200160006040518060400160405280600b81526020017f706c616365686f6c646572000000000000000000000000000000000000000000815250909190915090816200018d91906200040e565b50620004f5565b600081519050919050565b7f4e487b7100000000000000000000000000000000000000000000000000000000600052604160045260246000fd5b7f4e487b7100000000000000000000000000000000000000000000000000000000600052602260045260246000fd5b600060028204905060018216806200021657607f821691505b6020821081036200022c576200022b620001ce565b5b50919050565b60008190508160005260206000209050919050565b60006020601f8301049050919050565b600082821b905092915050565b600060088302620002967fffffffffffffffffffffffffffffffffffffffffffffffffffffffffffffffff8262000257565b620002a2868362000257565b95508019841693508086168417925050509392505050565b6000819050919050565b6000819050919050565b6000620002ef620002e9620002e384620002ba565b620002c4565b620002ba565b9050919050565b6000819050919050565b6200030b83620002ce565b620003236200031a82620002f6565b84845462000264565b825550505050565b600090565b6200033a6200032b565b6200034781848462000300565b505050565b5b818110156200036f576200036360008262000330565b6001810190506200034d565b5050565b601f821115620003be57620003888162000232565b620003938462000247565b81016020851015620003a3578190505b620003bb620003b28562000247565b8301826200034c565b50505b505050565b600082821c905092915050565b6000620003e360001984600802620003c3565b1980831691505092915050565b6000620003fe8383620003d0565b9150826002028217905092915050565b620004198262000194565b67ffffffffffffffff8111156200043557620004346200019f565b5b620004418254620001fd565b6200044e82828562000373565b600060209050601f83116001811462000486576000841562000471578287015190505b6200047d8582620003f0565b865550620004ed565b601f198416620004968662000232565b60005b82811015620004c05784890151825560018201915060208501945060208101905062000499565b86831015620004e05784890151620004dc601f891682620003d0565b8355505b6001600288020188555050505b505050505050565b611df580620005056000396000f3fe608060405234801561001057600080fd5b50600436106101575760003560e01c80638c160186116100c3578063db613e811161007c578063db613e8114610392578063dd62ed3e146103b0578063e9523c97146103e0578063f3009c90146103fe578063f6ace8d71461041a578063ffac3b1d1461043657610157565b80638c160186146102d05780638da5cb5b146102ee5780639bead1f81461030c578063be7cb50614610328578063c539ab7814610344578063da91254c1461037457610157565b80635f3d8f4a116101155780635f3d8f4a146102345780635faaf352146102525780636710a5591461026e578063702051f0146102785780637c85cfc2146102965780637cf5dab0146102b457610157565b8062942a941461015c57806306661abd1461017857806314bfd6d01461019657806319e1fca4146101c85780632babac22146101e65780634fab2bc914610202575b600080fd5b6101766004803603810190610171919061128e565b610440565b005b6101806104bc565b60405161018d91906112e6565b60405180910390f35b6101b060048036038101906101ab9190611301565b6104c2565b6040516101bf939291906113ad565b60405180910390f35b6101d0610602565b6040516101dd919061140d565b60405180910390f35b61020060048036038101906101fb9190611454565b610613565b005b61021c600480360381019061021791906114df565b61062f565b60405161022b939291906113ad565b60405180910390f35b61023c610769565b6040516102499190611525565b60405180910390f35b61026c6004803603810190610267919061128e565b61076f565b005b61027661081f565b005b610280610821565b60405161028d91906112e6565b60405180910390f35b61029e61082e565b6040516102ab9190611540565b60405180910390f35b6102ce60048036038101906102c99190611301565b61086b565b005b6102d861098f565b6040516102e59190611540565b60405180910390f35b6102f66109cc565b6040516103039190611571565b60405180910390f35b6103266004803603810190610321919061158c565b6109f2565b005b610342600480360381019061033d9190611643565b610a27565b005b61035e60048036038101906103599190611301565b610a3e565b60405161036b9190611540565b60405180910390f35b61037c610aea565b6040516103899190611540565b60405180910390f35b61039a610b27565b6040516103a79190611720565b60405180910390f35b6103ca60048036038101906103c59190611742565b610c75565b6040516103d7919061140d565b60405180910390f35b6103e8610ca4565b6040516103f5919061188f565b60405180910390f35b6104186004803603810190610413919061128e565b610e47565b005b610434600480360381019061042f91906114df565b610e86565b005b61043e610ff2565b005b80600960003373ffffffffffffffffffffffffffffffffffffffff1673ffffffffffffffffffffffffffffffffffffffff16815260200190815260200160002060008201518160000190816104959190611abd565b5060208201518160010190816104ab9190611abd565b506040820151816002015590505050565b60015481565b600a81600381106104d257600080fd5b600302016000915090508060000180546104eb906118e0565b80601f0160208091040260200160405190810160405280929190818152602001828054610517906118e0565b80156105645780601f1061053957610100808354040283529160200191610564565b820191906000526020600020905b81548152906001019060200180831161054757829003601f168201915b505050505090806001018054610579906118e0565b80601f01602080910402602001604051908101604052809291908181526020018280546105a5906118e0565b80156105f25780601f106105c7576101008083540402835291602001916105f2565b820191906000526020600020905b8154815290600101906020018083116105d557829003601f168201915b5050505050908060020154905083565b60008054906101000a900460ff1681565b806000806101000a81548160ff02191690831515021790555050565b6009602052806000526040600020600091509050806000018054610652906118e0565b80601f016020809104026020016040519081016040528092919081815260200182805461067e906118e0565b80156106cb5780601f106106a0576101008083540402835291602001916106cb565b820191906000526020600020905b8154815290600101906020018083116106ae57829003601f168201915b5050505050908060010180546106e0906118e0565b80601f016020809104026020016040519081016040528092919081815260200182805461070c906118e0565b80156107595780601f1061072e57610100808354040283529160200191610759565b820191906000526020600020905b81548152906001019060200180831161073c57829003601f168201915b5050505050908060020154905083565b60025481565b6003601354106107b4576040517f08c379a00000000000000000000000000000000000000000000000000000000081526004016107ab90611bdb565b60405180910390fd5b80600a601360008154809291906107ca90611c2a565b91905055600381106107df576107de611c72565b5b6003020160008201518160000190816107f89190611abd565b50602082015181600101908161080e9190611abd565b506040820151816002015590505050565b565b6000600580549050905090565b60606040518060400160405280600b81526020017f4920616d20726561647921000000000000000000000000000000000000000000815250905090565b60046000600360009054906101000a900473ffffffffffffffffffffffffffffffffffffffff1673ffffffffffffffffffffffffffffffffffffffff1673ffffffffffffffffffffffffffffffffffffffff16815260200190815260200160002060003373ffffffffffffffffffffffffffffffffffffffff1673ffffffffffffffffffffffffffffffffffffffff16815260200190815260200160002060009054906101000a900460ff16600560008154811061092c5761092b611c72565b5b9060005260206000200190610977576040517f08c379a000000000000000000000000000000000000000000000000000000000815260040161096e9190611d25565b60405180910390fd5b50806001546109869190611d47565b60018190555050565b60606040518060400160405280600a81526020017f56656c6920557973616c00000000000000000000000000000000000000000000815250905090565b600360009054906101000a900473ffffffffffffffffffffffffffffffffffffffff1681565b8260066000019081610a049190611abd565b508160066001019081610a179190611abd565b5080600660020181905550505050565b80600254610a359190611d7b565b60028190555050565b60058181548110610a4e57600080fd5b906000526020600020016000915090508054610a69906118e0565b80601f0160208091040260200160405190810160405280929190818152602001828054610a95906118e0565b8015610ae25780601f10610ab757610100808354040283529160200191610ae2565b820191906000526020600020905b815481529060010190602001808311610ac557829003601f168201915b505050505081565b60606040518060400160405280600b81526020017f307856656c69557973616c000000000000000000000000000000000000000000815250905090565b610b2f61100a565b60006006604051806060016040529081600082018054610b4e906118e0565b80601f0160208091040260200160405190810160405280929190818152602001828054610b7a906118e0565b8015610bc75780601f10610b9c57610100808354040283529160200191610bc7565b820191906000526020600020905b815481529060010190602001808311610baa57829003601f168201915b50505050508152602001600182018054610be0906118e0565b80601f0160208091040260200160405190810160405280929190818152602001828054610c0c906118e0565b8015610c595780601f10610c2e57610100808354040283529160200191610c59565b820191906000526020600020905b815481529060010190602001808311610c3c57829003601f168201915b5050505050815260200160028201548152505090508091505090565b60046020528160005260406000206020528060005260406000206000915091509054906101000a900460ff1681565b610cac61102b565b610cb461102b565b60005b6003811015610e3f57600a8160038110610cd457610cd3611c72565b5b60030201604051806060016040529081600082018054610cf3906118e0565b80601f0160208091040260200160405190810160405280929190818152602001828054610d1f906118e0565b8015610d6c5780601f10610d4157610100808354040283529160200191610d6c565b820191906000526020600020905b815481529060010190602001808311610d4f57829003601f168201915b50505050508152602001600182018054610d85906118e0565b80601f0160208091040260200160405190810160405280929190818152602001828054610db1906118e0565b8015610dfe5780601f10610dd357610100808354040283529160200191610dfe565b820191906000526020600020905b815481529060010190602001808311610de157829003601f168201915b50505050508152602001600282015481525050828260038110610e2457610e23611c72565b5b60200201819052508080610e3790611c2a565b915050610cb7565b508091505090565b8060066000820151816000019081610e5f9190611abd565b506020820151816001019081610e759190611abd565b506040820151816002015590505050565b3373ffffffffffffffffffffffffffffffffffffffff16600360009054906101000a900473ffffffffffffffffffffffffffffffffffffffff1673ffffffffffffffffffffffffffffffffffffffff16146005600181548110610eec57610eeb611c72565b5b9060005260206000200190610f37576040517f08c379a0000000000000000000000000000000000000000000000000000000008152600401610f2e9190611d25565b60405180910390fd5b50600160046000600360009054906101000a900473ffffffffffffffffffffffffffffffffffffffff1673ffffffffffffffffffffffffffffffffffffffff1673ffffffffffffffffffffffffffffffffffffffff16815260200190815260200160002060008373ffffffffffffffffffffffffffffffffffffffff1673ffffffffffffffffffffffffffffffffffffffff16815260200190815260200160002060006101000a81548160ff02191690831515021790555050565b60016000815461100190611c2a565b91905081905550565b60405180606001604052806060815260200160608152602001600081525090565b60405180606001604052806003905b61104261100a565b81526020019060019003908161103a5790505090565b6000604051905090565b600080fd5b600080fd5b600080fd5b6000601f19601f8301169050919050565b7f4e487b7100000000000000000000000000000000000000000000000000000000600052604160045260246000fd5b6110ba82611071565b810181811067ffffffffffffffff821117156110d9576110d8611082565b5b80604052505050565b60006110ec611058565b90506110f882826110b1565b919050565b600080fd5b600080fd5b600080fd5b600067ffffffffffffffff82111561112757611126611082565b5b61113082611071565b9050602081019050919050565b82818337600083830152505050565b600061115f61115a8461110c565b6110e2565b90508281526020810184848401111561117b5761117a611107565b5b61118684828561113d565b509392505050565b600082601f8301126111a3576111a2611102565b5b81356111b384826020860161114c565b91505092915050565b6000819050919050565b6111cf816111bc565b81146111da57600080fd5b50565b6000813590506111ec816111c6565b92915050565b6000606082840312156112085761120761106c565b5b61121260606110e2565b9050600082013567ffffffffffffffff811115611232576112316110fd565b5b61123e8482850161118e565b600083015250602082013567ffffffffffffffff811115611262576112616110fd565b5b61126e8482850161118e565b6020830152506040611282848285016111dd565b60408301525092915050565b6000602082840312156112a4576112a3611062565b5b600082013567ffffffffffffffff8111156112c2576112c1611067565b5b6112ce848285016111f2565b91505092915050565b6112e0816111bc565b82525050565b60006020820190506112fb60008301846112d7565b92915050565b60006020828403121561131757611316611062565b5b6000611325848285016111dd565b91505092915050565b600081519050919050565b600082825260208201905092915050565b60005b8381101561136857808201518184015260208101905061134d565b60008484015250505050565b600061137f8261132e565b6113898185611339565b935061139981856020860161134a565b6113a281611071565b840191505092915050565b600060608201905081810360008301526113c78186611374565b905081810360208301526113db8185611374565b90506113ea60408301846112d7565b949350505050565b60008115159050919050565b611407816113f2565b82525050565b600060208201905061142260008301846113fe565b92915050565b611431816113f2565b811461143c57600080fd5b50565b60008135905061144e81611428565b92915050565b60006020828403121561146a57611469611062565b5b60006114788482850161143f565b91505092915050565b600073ffffffffffffffffffffffffffffffffffffffff82169050919050565b60006114ac82611481565b9050919050565b6114bc816114a1565b81146114c757600080fd5b50565b6000813590506114d9816114b3565b92915050565b6000602082840312156114f5576114f4611062565b5b6000611503848285016114ca565b91505092915050565b6000819050919050565b61151f8161150c565b82525050565b600060208201905061153a6000830184611516565b92915050565b6000602082019050818103600083015261155a8184611374565b905092915050565b61156b816114a1565b82525050565b60006020820190506115866000830184611562565b92915050565b6000806000606084860312156115a5576115a4611062565b5b600084013567ffffffffffffffff8111156115c3576115c2611067565b5b6115cf8682870161118e565b935050602084013567ffffffffffffffff8111156115f0576115ef611067565b5b6115fc8682870161118e565b925050604061160d868287016111dd565b9150509250925092565b6116208161150c565b811461162b57600080fd5b50565b60008135905061163d81611617565b92915050565b60006020828403121561165957611658611062565b5b60006116678482850161162e565b91505092915050565b600082825260208201905092915050565b600061168c8261132e565b6116968185611670565b93506116a681856020860161134a565b6116af81611071565b840191505092915050565b6116c3816111bc565b82525050565b600060608301600083015184820360008601526116e68282611681565b915050602083015184820360208601526117008282611681565b915050604083015161171560408601826116ba565b508091505092915050565b6000602082019050818103600083015261173a81846116c9565b905092915050565b6000806040838503121561175957611758611062565b5b6000611767858286016114ca565b9250506020611778858286016114ca565b9150509250929050565b600060039050919050565b600081905092915050565b6000819050919050565b600060608301600083015184820360008601526117bf8282611681565b915050602083015184820360208601526117d98282611681565b91505060408301516117ee60408601826116ba565b508091505092915050565b600061180583836117a2565b905092915050565b6000602082019050919050565b600061182582611782565b61182f818561178d565b93508360208202850161184185611798565b8060005b8581101561187d578484038952815161185e85826117f9565b94506118698361180d565b925060208a01995050600181019050611845565b50829750879550505050505092915050565b600060208201905081810360008301526118a9818461181a565b905092915050565b7f4e487b7100000000000000000000000000000000000000000000000000000000600052602260045260246000fd5b600060028204905060018216806118f857607f821691505b60208210810361190b5761190a6118b1565b5b50919050565b60008190508160005260206000209050919050565b60006020601f8301049050919050565b600082821b905092915050565b6000600883026119737fffffffffffffffffffffffffffffffffffffffffffffffffffffffffffffffff82611936565b61197d8683611936565b95508019841693508086168417925050509392505050565b6000819050919050565b60006119ba6119b56119b0846111bc565b611995565b6111bc565b9050919050565b6000819050919050565b6119d48361199f565b6119e86119e0826119c1565b848454611943565b825550505050565b600090565b6119fd6119f0565b611a088184846119cb565b505050565b5b81811015611a2c57611a216000826119f5565b600181019050611a0e565b5050565b601f821115611a7157611a4281611911565b611a4b84611926565b81016020851015611a5a578190505b611a6e611a6685611926565b830182611a0d565b50505b505050565b600082821c905092915050565b6000611a9460001984600802611a76565b1980831691505092915050565b6000611aad8383611a83565b9150826002028217905092915050565b611ac68261132e565b67ffffffffffffffff811115611adf57611ade611082565b5b611ae982546118e0565b611af4828285611a30565b600060209050601f831160018114611b275760008415611b15578287015190505b611b1f8582611aa1565b865550611b87565b601f198416611b3586611911565b60005b82811015611b5d57848901518255600182019150602085019450602081019050611b38565b86831015611b7a5784890151611b76601f891682611a83565b8355505b6001600288020188555050505b505050505050565b7f486173206e6f20736c6f74000000000000000000000000000000000000000000600082015250565b6000611bc5600b83611339565b9150611bd082611b8f565b602082019050919050565b60006020820190508181036000830152611bf481611bb8565b9050919050565b7f4e487b7100000000000000000000000000000000000000000000000000000000600052601160045260246000fd5b6000611c35826111bc565b91507fffffffffffffffffffffffffffffffffffffffffffffffffffffffffffffffff8203611c6757611c66611bfb565b5b600182019050919050565b7f4e487b7100000000000000000000000000000000000000000000000000000000600052603260045260246000fd5b60008154611cae816118e0565b611cb88186611339565b94506001821660008114611cd35760018114611ce957611d1c565b60ff198316865281151560200286019350611d1c565b611cf285611911565b60005b83811015611d1457815481890152600182019150602081019050611cf5565b808801955050505b50505092915050565b60006020820190508181036000830152611d3f8184611ca1565b905092915050565b6000611d52826111bc565b9150611d5d836111bc565b9250828201905080821115611d7557611d74611bfb565b5b92915050565b6000611d868261150c565b9150611d918361150c565b925082820190508281121560008312168382126000841215161715611db957611db8611bfb565b5b9291505056fea26469706673582212209d4ab882a564139efb9c7e59c7789938c9245621874beba1eb291a74a0a3f75964736f6c63430008130033",
					"opcodes": "PUSH1 0x80 PUSH1 0x40 MSTORE CALLVALUE DUP1 ISZERO PUSH3 0x11 JUMPI PUSH1 0x0 DUP1 REVERT JUMPDEST POP CALLER PUSH1 0x3 PUSH1 0x0 PUSH2 0x100 EXP DUP2 SLOAD DUP2 PUSH20 0xFFFFFFFFFFFFFFFFFFFFFFFFFFFFFFFFFFFFFFFF MUL NOT AND SWAP1 DUP4 PUSH20 0xFFFFFFFFFFFFFFFFFFFFFFFFFFFFFFFFFFFFFFFF AND MUL OR SWAP1 SSTORE POP PUSH1 0x5 DUP1 PUSH1 0x1 DUP2 SLOAD ADD DUP1 DUP3 SSTORE DUP1 SWAP2 POP POP PUSH1 0x1 SWAP1 SUB SWAP1 PUSH1 0x0 MSTORE PUSH1 0x20 PUSH1 0x0 KECCAK256 ADD PUSH1 0x0 PUSH1 0x40 MLOAD DUP1 PUSH1 0x40 ADD PUSH1 0x40 MSTORE DUP1 PUSH1 0xE DUP2 MSTORE PUSH1 0x20 ADD PUSH32 0x6973206E6F7420616C6C6F776564000000000000000000000000000000000000 DUP2 MSTORE POP SWAP1 SWAP2 SWAP1 SWAP2 POP SWAP1 DUP2 PUSH3 0xBB SWAP2 SWAP1 PUSH3 0x40E JUMP JUMPDEST POP PUSH1 0x5 DUP1 PUSH1 0x1 DUP2 SLOAD ADD DUP1 DUP3 SSTORE DUP1 SWAP2 POP POP PUSH1 0x1 SWAP1 SUB SWAP1 PUSH1 0x0 MSTORE PUSH1 0x20 PUSH1 0x0 KECCAK256 ADD PUSH1 0x0 PUSH1 0x40 MLOAD DUP1 PUSH1 0x40 ADD PUSH1 0x40 MSTORE DUP1 PUSH1 0xA DUP2 MSTORE PUSH1 0x20 ADD PUSH32 0x6F6E6C79206F776E657200000000000000000000000000000000000000000000 DUP2 MSTORE POP SWAP1 SWAP2 SWAP1 SWAP2 POP SWAP1 DUP2 PUSH3 0x124 SWAP2 SWAP1 PUSH3 0x40E JUMP JUMPDEST POP PUSH1 0x5 DUP1 PUSH1 0x1 DUP2 SLOAD ADD DUP1 DUP3 SSTORE DUP1 SWAP2 POP POP PUSH1 0x1 SWAP1 SUB SWAP1 PUSH1 0x0 MSTORE PUSH1 0x20 PUSH1 0x0 KECCAK256 ADD PUSH1 0x0 PUSH1 0x40 MLOAD DUP1 PUSH1 0x40 ADD PUSH1 0x40 MSTORE DUP1 PUSH1 0xB DUP2 MSTORE PUSH1 0x20 ADD PUSH32 0x706C616365686F6C646572000000000000000000000000000000000000000000 DUP2 MSTORE POP SWAP1 SWAP2 SWAP1 SWAP2 POP SWAP1 DUP2 PUSH3 0x18D SWAP2 SWAP1 PUSH3 0x40E JUMP JUMPDEST POP PUSH3 0x4F5 JUMP JUMPDEST PUSH1 0x0 DUP2 MLOAD SWAP1 POP SWAP2 SWAP1 POP JUMP JUMPDEST PUSH32 0x4E487B7100000000000000000000000000000000000000000000000000000000 PUSH1 0x0 MSTORE PUSH1 0x41 PUSH1 0x4 MSTORE PUSH1 0x24 PUSH1 0x0 REVERT JUMPDEST PUSH32 0x4E487B7100000000000000000000000000000000000000000000000000000000 PUSH1 0x0 MSTORE PUSH1 0x22 PUSH1 0x4 MSTORE PUSH1 0x24 PUSH1 0x0 REVERT JUMPDEST PUSH1 0x0 PUSH1 0x2 DUP3 DIV SWAP1 POP PUSH1 0x1 DUP3 AND DUP1 PUSH3 0x216 JUMPI PUSH1 0x7F DUP3 AND SWAP2 POP JUMPDEST PUSH1 0x20 DUP3 LT DUP2 SUB PUSH3 0x22C JUMPI PUSH3 0x22B PUSH3 0x1CE JUMP JUMPDEST JUMPDEST POP SWAP2 SWAP1 POP JUMP JUMPDEST PUSH1 0x0 DUP2 SWAP1 POP DUP2 PUSH1 0x0 MSTORE PUSH1 0x20 PUSH1 0x0 KECCAK256 SWAP1 POP SWAP2 SWAP1 POP JUMP JUMPDEST PUSH1 0x0 PUSH1 0x20 PUSH1 0x1F DUP4 ADD DIV SWAP1 POP SWAP2 SWAP1 POP JUMP JUMPDEST PUSH1 0x0 DUP3 DUP3 SHL SWAP1 POP SWAP3 SWAP2 POP POP JUMP JUMPDEST PUSH1 0x0 PUSH1 0x8 DUP4 MUL PUSH3 0x296 PUSH32 0xFFFFFFFFFFFFFFFFFFFFFFFFFFFFFFFFFFFFFFFFFFFFFFFFFFFFFFFFFFFFFFFF DUP3 PUSH3 0x257 JUMP JUMPDEST PUSH3 0x2A2 DUP7 DUP4 PUSH3 0x257 JUMP JUMPDEST SWAP6 POP DUP1 NOT DUP5 AND SWAP4 POP DUP1 DUP7 AND DUP5 OR SWAP3 POP POP POP SWAP4 SWAP3 POP POP POP JUMP JUMPDEST PUSH1 0x0 DUP2 SWAP1 POP SWAP2 SWAP1 POP JUMP JUMPDEST PUSH1 0x0 DUP2 SWAP1 POP SWAP2 SWAP1 POP JUMP JUMPDEST PUSH1 0x0 PUSH3 0x2EF PUSH3 0x2E9 PUSH3 0x2E3 DUP5 PUSH3 0x2BA JUMP JUMPDEST PUSH3 0x2C4 JUMP JUMPDEST PUSH3 0x2BA JUMP JUMPDEST SWAP1 POP SWAP2 SWAP1 POP JUMP JUMPDEST PUSH1 0x0 DUP2 SWAP1 POP SWAP2 SWAP1 POP JUMP JUMPDEST PUSH3 0x30B DUP4 PUSH3 0x2CE JUMP JUMPDEST PUSH3 0x323 PUSH3 0x31A DUP3 PUSH3 0x2F6 JUMP JUMPDEST DUP5 DUP5 SLOAD PUSH3 0x264 JUMP JUMPDEST DUP3 SSTORE POP POP POP POP JUMP JUMPDEST PUSH1 0x0 SWAP1 JUMP JUMPDEST PUSH3 0x33A PUSH3 0x32B JUMP JUMPDEST PUSH3 0x347 DUP2 DUP5 DUP5 PUSH3 0x300 JUMP JUMPDEST POP POP POP JUMP JUMPDEST JUMPDEST DUP2 DUP2 LT ISZERO PUSH3 0x36F JUMPI PUSH3 0x363 PUSH1 0x0 DUP3 PUSH3 0x330 JUMP JUMPDEST PUSH1 0x1 DUP2 ADD SWAP1 POP PUSH3 0x34D JUMP JUMPDEST POP POP JUMP JUMPDEST PUSH1 0x1F DUP3 GT ISZERO PUSH3 0x3BE JUMPI PUSH3 0x388 DUP2 PUSH3 0x232 JUMP JUMPDEST PUSH3 0x393 DUP5 PUSH3 0x247 JUMP JUMPDEST DUP2 ADD PUSH1 0x20 DUP6 LT ISZERO PUSH3 0x3A3 JUMPI DUP2 SWAP1 POP JUMPDEST PUSH3 0x3BB PUSH3 0x3B2 DUP6 PUSH3 0x247 JUMP JUMPDEST DUP4 ADD DUP3 PUSH3 0x34C JUMP JUMPDEST POP POP JUMPDEST POP POP POP JUMP JUMPDEST PUSH1 0x0 DUP3 DUP3 SHR SWAP1 POP SWAP3 SWAP2 POP POP JUMP JUMPDEST PUSH1 0x0 PUSH3 0x3E3 PUSH1 0x0 NOT DUP5 PUSH1 0x8 MUL PUSH3 0x3C3 JUMP JUMPDEST NOT DUP1 DUP4 AND SWAP2 POP POP SWAP3 SWAP2 POP POP JUMP JUMPDEST PUSH1 0x0 PUSH3 0x3FE DUP4 DUP4 PUSH3 0x3D0 JUMP JUMPDEST SWAP2 POP DUP3 PUSH1 0x2 MUL DUP3 OR SWAP1 POP SWAP3 SWAP2 POP POP JUMP JUMPDEST PUSH3 0x419 DUP3 PUSH3 0x194 JUMP JUMPDEST PUSH8 0xFFFFFFFFFFFFFFFF DUP2 GT ISZERO PUSH3 0x435 JUMPI PUSH3 0x434 PUSH3 0x19F JUMP JUMPDEST JUMPDEST PUSH3 0x441 DUP3 SLOAD PUSH3 0x1FD JUMP JUMPDEST PUSH3 0x44E DUP3 DUP3 DUP6 PUSH3 0x373 JUMP JUMPDEST PUSH1 0x0 PUSH1 0x20 SWAP1 POP PUSH1 0x1F DUP4 GT PUSH1 0x1 DUP2 EQ PUSH3 0x486 JUMPI PUSH1 0x0 DUP5 ISZERO PUSH3 0x471 JUMPI DUP3 DUP8 ADD MLOAD SWAP1 POP JUMPDEST PUSH3 0x47D DUP6 DUP3 PUSH3 0x3F0 JUMP JUMPDEST DUP7 SSTORE POP PUSH3 0x4ED JUMP JUMPDEST PUSH1 0x1F NOT DUP5 AND PUSH3 0x496 DUP7 PUSH3 0x232 JUMP JUMPDEST PUSH1 0x0 JUMPDEST DUP3 DUP2 LT ISZERO PUSH3 0x4C0 JUMPI DUP5 DUP10 ADD MLOAD DUP3 SSTORE PUSH1 0x1 DUP3 ADD SWAP2 POP PUSH1 0x20 DUP6 ADD SWAP5 POP PUSH1 0x20 DUP2 ADD SWAP1 POP PUSH3 0x499 JUMP JUMPDEST DUP7 DUP4 LT ISZERO PUSH3 0x4E0 JUMPI DUP5 DUP10 ADD MLOAD PUSH3 0x4DC PUSH1 0x1F DUP10 AND DUP3 PUSH3 0x3D0 JUMP JUMPDEST DUP4 SSTORE POP JUMPDEST PUSH1 0x1 PUSH1 0x2 DUP9 MUL ADD DUP9 SSTORE POP POP POP JUMPDEST POP POP POP POP POP POP JUMP JUMPDEST PUSH2 0x1DF5 DUP1 PUSH3 0x505 PUSH1 0x0 CODECOPY PUSH1 0x0 RETURN INVALID PUSH1 0x80 PUSH1 0x40 MSTORE CALLVALUE DUP1 ISZERO PUSH2 0x10 JUMPI PUSH1 0x0 DUP1 REVERT JUMPDEST POP PUSH1 0x4 CALLDATASIZE LT PUSH2 0x157 JUMPI PUSH1 0x0 CALLDATALOAD PUSH1 0xE0 SHR DUP1 PUSH4 0x8C160186 GT PUSH2 0xC3 JUMPI DUP1 PUSH4 0xDB613E81 GT PUSH2 0x7C JUMPI DUP1 PUSH4 0xDB613E81 EQ PUSH2 0x392 JUMPI DUP1 PUSH4 0xDD62ED3E EQ PUSH2 0x3B0 JUMPI DUP1 PUSH4 0xE9523C97 EQ PUSH2 0x3E0 JUMPI DUP1 PUSH4 0xF3009C90 EQ PUSH2 0x3FE JUMPI DUP1 PUSH4 0xF6ACE8D7 EQ PUSH2 0x41A JUMPI DUP1 PUSH4 0xFFAC3B1D EQ PUSH2 0x436 JUMPI PUSH2 0x157 JUMP JUMPDEST DUP1 PUSH4 0x8C160186 EQ PUSH2 0x2D0 JUMPI DUP1 PUSH4 0x8DA5CB5B EQ PUSH2 0x2EE JUMPI DUP1 PUSH4 0x9BEAD1F8 EQ PUSH2 0x30C JUMPI DUP1 PUSH4 0xBE7CB506 EQ PUSH2 0x328 JUMPI DUP1 PUSH4 0xC539AB78 EQ PUSH2 0x344 JUMPI DUP1 PUSH4 0xDA91254C EQ PUSH2 0x374 JUMPI PUSH2 0x157 JUMP JUMPDEST DUP1 PUSH4 0x5F3D8F4A GT PUSH2 0x115 JUMPI DUP1 PUSH4 0x5F3D8F4A EQ PUSH2 0x234 JUMPI DUP1 PUSH4 0x5FAAF352 EQ PUSH2 0x252 JUMPI DUP1 PUSH4 0x6710A559 EQ PUSH2 0x26E JUMPI DUP1 PUSH4 0x702051F0 EQ PUSH2 0x278 JUMPI DUP1 PUSH4 0x7C85CFC2 EQ PUSH2 0x296 JUMPI DUP1 PUSH4 0x7CF5DAB0 EQ PUSH2 0x2B4 JUMPI PUSH2 0x157 JUMP JUMPDEST DUP1 PUSH3 0x942A94 EQ PUSH2 0x15C JUMPI DUP1 PUSH4 0x6661ABD EQ PUSH2 0x178 JUMPI DUP1 PUSH4 0x14BFD6D0 EQ PUSH2 0x196 JUMPI DUP1 PUSH4 0x19E1FCA4 EQ PUSH2 0x1C8 JUMPI DUP1 PUSH4 0x2BABAC22 EQ PUSH2 0x1E6 JUMPI DUP1 PUSH4 0x4FAB2BC9 EQ PUSH2 0x202 JUMPI JUMPDEST PUSH1 0x0 DUP1 REVERT JUMPDEST PUSH2 0x176 PUSH1 0x4 DUP1 CALLDATASIZE SUB DUP2 ADD SWAP1 PUSH2 0x171 SWAP2 SWAP1 PUSH2 0x128E JUMP JUMPDEST PUSH2 0x440 JUMP JUMPDEST STOP JUMPDEST PUSH2 0x180 PUSH2 0x4BC JUMP JUMPDEST PUSH1 0x40 MLOAD PUSH2 0x18D SWAP2 SWAP1 PUSH2 0x12E6 JUMP JUMPDEST PUSH1 0x40 MLOAD DUP1 SWAP2 SUB SWAP1 RETURN JUMPDEST PUSH2 0x1B0 PUSH1 0x4 DUP1 CALLDATASIZE SUB DUP2 ADD SWAP1 PUSH2 0x1AB SWAP2 SWAP1 PUSH2 0x1301 JUMP JUMPDEST PUSH2 0x4C2 JUMP JUMPDEST PUSH1 0x40 MLOAD PUSH2 0x1BF SWAP4 SWAP3 SWAP2 SWAP1 PUSH2 0x13AD JUMP JUMPDEST PUSH1 0x40 MLOAD DUP1 SWAP2 SUB SWAP1 RETURN JUMPDEST PUSH2 0x1D0 PUSH2 0x602 JUMP JUMPDEST PUSH1 0x40 MLOAD PUSH2 0x1DD SWAP2 SWAP1 PUSH2 0x140D JUMP JUMPDEST PUSH1 0x40 MLOAD DUP1 SWAP2 SUB SWAP1 RETURN JUMPDEST PUSH2 0x200 PUSH1 0x4 DUP1 CALLDATASIZE SUB DUP2 ADD SWAP1 PUSH2 0x1FB SWAP2 SWAP1 PUSH2 0x1454 JUMP JUMPDEST PUSH2 0x613 JUMP JUMPDEST STOP JUMPDEST PUSH2 0x21C PUSH1 0x4 DUP1 CALLDATASIZE SUB DUP2 ADD SWAP1 PUSH2 0x217 SWAP2 SWAP1 PUSH2 0x14DF JUMP JUMPDEST PUSH2 0x62F JUMP JUMPDEST PUSH1 0x40 MLOAD PUSH2 0x22B SWAP4 SWAP3 SWAP2 SWAP1 PUSH2 0x13AD JUMP JUMPDEST PUSH1 0x40 MLOAD DUP1 SWAP2 SUB SWAP1 RETURN JUMPDEST PUSH2 0x23C PUSH2 0x769 JUMP JUMPDEST PUSH1 0x40 MLOAD PUSH2 0x249 SWAP2 SWAP1 PUSH2 0x1525 JUMP JUMPDEST PUSH1 0x40 MLOAD DUP1 SWAP2 SUB SWAP1 RETURN JUMPDEST PUSH2 0x26C PUSH1 0x4 DUP1 CALLDATASIZE SUB DUP2 ADD SWAP1 PUSH2 0x267 SWAP2 SWAP1 PUSH2 0x128E JUMP JUMPDEST PUSH2 0x76F JUMP JUMPDEST STOP JUMPDEST PUSH2 0x276 PUSH2 0x81F JUMP JUMPDEST STOP JUMPDEST PUSH2 0x280 PUSH2 0x821 JUMP JUMPDEST PUSH1 0x40 MLOAD PUSH2 0x28D SWAP2 SWAP1 PUSH2 0x12E6 JUMP JUMPDEST PUSH1 0x40 MLOAD DUP1 SWAP2 SUB SWAP1 RETURN JUMPDEST PUSH2 0x29E PUSH2 0x82E JUMP JUMPDEST PUSH1 0x40 MLOAD PUSH2 0x2AB SWAP2 SWAP1 PUSH2 0x1540 JUMP JUMPDEST PUSH1 0x40 MLOAD DUP1 SWAP2 SUB SWAP1 RETURN JUMPDEST PUSH2 0x2CE PUSH1 0x4 DUP1 CALLDATASIZE SUB DUP2 ADD SWAP1 PUSH2 0x2C9 SWAP2 SWAP1 PUSH2 0x1301 JUMP JUMPDEST PUSH2 0x86B JUMP JUMPDEST STOP JUMPDEST PUSH2 0x2D8 PUSH2 0x98F JUMP JUMPDEST PUSH1 0x40 MLOAD PUSH2 0x2E5 SWAP2 SWAP1 PUSH2 0x1540 JUMP JUMPDEST PUSH1 0x40 MLOAD DUP1 SWAP2 SUB SWAP1 RETURN JUMPDEST PUSH2 0x2F6 PUSH2 0x9CC JUMP JUMPDEST PUSH1 0x40 MLOAD PUSH2 0x303 SWAP2 SWAP1 PUSH2 0x1571 JUMP JUMPDEST PUSH1 0x40 MLOAD DUP1 SWAP2 SUB SWAP1 RETURN JUMPDEST PUSH2 0x326 PUSH1 0x4 DUP1 CALLDATASIZE SUB DUP2 ADD SWAP1 PUSH2 0x321 SWAP2 SWAP1 PUSH2 0x158C JUMP JUMPDEST PUSH2 0x9F2 JUMP JUMPDEST STOP JUMPDEST PUSH2 0x342 PUSH1 0x4 DUP1 CALLDATASIZE SUB DUP2 ADD SWAP1 PUSH2 0x33D SWAP2 SWAP1 PUSH2 0x1643 JUMP JUMPDEST PUSH2 0xA27 JUMP JUMPDEST STOP JUMPDEST PUSH2 0x35E PUSH1 0x4 DUP1 CALLDATASIZE SUB DUP2 ADD SWAP1 PUSH2 0x359 SWAP2 SWAP1 PUSH2 0x1301 JUMP JUMPDEST PUSH2 0xA3E JUMP JUMPDEST PUSH1 0x40 MLOAD PUSH2 0x36B SWAP2 SWAP1 PUSH2 0x1540 JUMP JUMPDEST PUSH1 0x40 MLOAD DUP1 SWAP2 SUB SWAP1 RETURN JUMPDEST PUSH2 0x37C PUSH2 0xAEA JUMP JUMPDEST PUSH1 0x40 MLOAD PUSH2 0x389 SWAP2 SWAP1 PUSH2 0x1540 JUMP JUMPDEST PUSH1 0x40 MLOAD DUP1 SWAP2 SUB SWAP1 RETURN JUMPDEST PUSH2 0x39A PUSH2 0xB27 JUMP JUMPDEST PUSH1 0x40 MLOAD PUSH2 0x3A7 SWAP2 SWAP1 PUSH2 0x1720 JUMP JUMPDEST PUSH1 0x40 MLOAD DUP1 SWAP2 SUB SWAP1 RETURN JUMPDEST PUSH2 0x3CA PUSH1 0x4 DUP1 CALLDATASIZE SUB DUP2 ADD SWAP1 PUSH2 0x3C5 SWAP2 SWAP1 PUSH2 0x1742 JUMP JUMPDEST PUSH2 0xC75 JUMP JUMPDEST PUSH1 0x40 MLOAD PUSH2 0x3D7 SWAP2 SWAP1 PUSH2 0x140D JUMP JUMPDEST PUSH1 0x40 MLOAD DUP1 SWAP2 SUB SWAP1 RETURN JUMPDEST PUSH2 0x3E8 PUSH2 0xCA4 JUMP JUMPDEST PUSH1 0x40 MLOAD PUSH2 0x3F5 SWAP2 SWAP1 PUSH2 0x188F JUMP JUMPDEST PUSH1 0x40 MLOAD DUP1 SWAP2 SUB SWAP1 RETURN JUMPDEST PUSH2 0x418 PUSH1 0x4 DUP1 CALLDATASIZE SUB DUP2 ADD SWAP1 PUSH2 0x413 SWAP2 SWAP1 PUSH2 0x128E JUMP JUMPDEST PUSH2 0xE47 JUMP JUMPDEST STOP JUMPDEST PUSH2 0x434 PUSH1 0x4 DUP1 CALLDATASIZE SUB DUP2 ADD SWAP1 PUSH2 0x42F SWAP2 SWAP1 PUSH2 0x14DF JUMP JUMPDEST PUSH2 0xE86 JUMP JUMPDEST STOP JUMPDEST PUSH2 0x43E PUSH2 0xFF2 JUMP JUMPDEST STOP JUMPDEST DUP1 PUSH1 0x9 PUSH1 0x0 CALLER PUSH20 0xFFFFFFFFFFFFFFFFFFFFFFFFFFFFFFFFFFFFFFFF AND PUSH20 0xFFFFFFFFFFFFFFFFFFFFFFFFFFFFFFFFFFFFFFFF AND DUP2 MSTORE PUSH1 0x20 ADD SWAP1 DUP2 MSTORE PUSH1 0x20 ADD PUSH1 0x0 KECCAK256 PUSH1 0x0 DUP3 ADD MLOAD DUP2 PUSH1 0x0 ADD SWAP1 DUP2 PUSH2 0x495 SWAP2 SWAP1 PUSH2 0x1ABD JUMP JUMPDEST POP PUSH1 0x20 DUP3 ADD MLOAD DUP2 PUSH1 0x1 ADD SWAP1 DUP2 PUSH2 0x4AB SWAP2 SWAP1 PUSH2 0x1ABD JUMP JUMPDEST POP PUSH1 0x40 DUP3 ADD MLOAD DUP2 PUSH1 0x2 ADD SSTORE SWAP1 POP POP POP JUMP JUMPDEST PUSH1 0x1 SLOAD DUP2 JUMP JUMPDEST PUSH1 0xA DUP2 PUSH1 0x3 DUP2 LT PUSH2 0x4D2 JUMPI PUSH1 0x0 DUP1 REVERT JUMPDEST PUSH1 0x3 MUL ADD PUSH1 0x0 SWAP2 POP SWAP1 POP DUP1 PUSH1 0x0 ADD DUP1 SLOAD PUSH2 0x4EB SWAP1 PUSH2 0x18E0 JUMP JUMPDEST DUP1 PUSH1 0x1F ADD PUSH1 0x20 DUP1 SWAP2 DIV MUL PUSH1 0x20 ADD PUSH1 0x40 MLOAD SWAP1 DUP2 ADD PUSH1 0x40 MSTORE DUP1 SWAP3 SWAP2 SWAP1 DUP2 DUP2 MSTORE PUSH1 0x20 ADD DUP3 DUP1 SLOAD PUSH2 0x517 SWAP1 PUSH2 0x18E0 JUMP JUMPDEST DUP1 ISZERO PUSH2 0x564 JUMPI DUP1 PUSH1 0x1F LT PUSH2 0x539 JUMPI PUSH2 0x100 DUP1 DUP4 SLOAD DIV MUL DUP4 MSTORE SWAP2 PUSH1 0x20 ADD SWAP2 PUSH2 0x564 JUMP JUMPDEST DUP3 ADD SWAP2 SWAP1 PUSH1 0x0 MSTORE PUSH1 0x20 PUSH1 0x0 KECCAK256 SWAP1 JUMPDEST DUP2 SLOAD DUP2 MSTORE SWAP1 PUSH1 0x1 ADD SWAP1 PUSH1 0x20 ADD DUP1 DUP4 GT PUSH2 0x547 JUMPI DUP3 SWAP1 SUB PUSH1 0x1F AND DUP3 ADD SWAP2 JUMPDEST POP POP POP POP POP SWAP1 DUP1 PUSH1 0x1 ADD DUP1 SLOAD PUSH2 0x579 SWAP1 PUSH2 0x18E0 JUMP JUMPDEST DUP1 PUSH1 0x1F ADD PUSH1 0x20 DUP1 SWAP2 DIV MUL PUSH1 0x20 ADD PUSH1 0x40 MLOAD SWAP1 DUP2 ADD PUSH1 0x40 MSTORE DUP1 SWAP3 SWAP2 SWAP1 DUP2 DUP2 MSTORE PUSH1 0x20 ADD DUP3 DUP1 SLOAD PUSH2 0x5A5 SWAP1 PUSH2 0x18E0 JUMP JUMPDEST DUP1 ISZERO PUSH2 0x5F2 JUMPI DUP1 PUSH1 0x1F LT PUSH2 0x5C7 JUMPI PUSH2 0x100 DUP1 DUP4 SLOAD DIV MUL DUP4 MSTORE SWAP2 PUSH1 0x20 ADD SWAP2 PUSH2 0x5F2 JUMP JUMPDEST DUP3 ADD SWAP2 SWAP1 PUSH1 0x0 MSTORE PUSH1 0x20 PUSH1 0x0 KECCAK256 SWAP1 JUMPDEST DUP2 SLOAD DUP2 MSTORE SWAP1 PUSH1 0x1 ADD SWAP1 PUSH1 0x20 ADD DUP1 DUP4 GT PUSH2 0x5D5 JUMPI DUP3 SWAP1 SUB PUSH1 0x1F AND DUP3 ADD SWAP2 JUMPDEST POP POP POP POP POP SWAP1 DUP1 PUSH1 0x2 ADD SLOAD SWAP1 POP DUP4 JUMP JUMPDEST PUSH1 0x0 DUP1 SLOAD SWAP1 PUSH2 0x100 EXP SWAP1 DIV PUSH1 0xFF AND DUP2 JUMP JUMPDEST DUP1 PUSH1 0x0 DUP1 PUSH2 0x100 EXP DUP2 SLOAD DUP2 PUSH1 0xFF MUL NOT AND SWAP1 DUP4 ISZERO ISZERO MUL OR SWAP1 SSTORE POP POP JUMP JUMPDEST PUSH1 0x9 PUSH1 0x20 MSTORE DUP1 PUSH1 0x0 MSTORE PUSH1 0x40 PUSH1 0x0 KECCAK256 PUSH1 0x0 SWAP2 POP SWAP1 POP DUP1 PUSH1 0x0 ADD DUP1 SLOAD PUSH2 0x652 SWAP1 PUSH2 0x18E0 JUMP JUMPDEST DUP1 PUSH1 0x1F ADD PUSH1 0x20 DUP1 SWAP2 DIV MUL PUSH1 0x20 ADD PUSH1 0x40 MLOAD SWAP1 DUP2 ADD PUSH1 0x40 MSTORE DUP1 SWAP3 SWAP2 SWAP1 DUP2 DUP2 MSTORE PUSH1 0x20 ADD DUP3 DUP1 SLOAD PUSH2 0x67E SWAP1 PUSH2 0x18E0 JUMP JUMPDEST DUP1 ISZERO PUSH2 0x6CB JUMPI DUP1 PUSH1 0x1F LT PUSH2 0x6A0 JUMPI PUSH2 0x100 DUP1 DUP4 SLOAD DIV MUL DUP4 MSTORE SWAP2 PUSH1 0x20 ADD SWAP2 PUSH2 0x6CB JUMP JUMPDEST DUP3 ADD SWAP2 SWAP1 PUSH1 0x0 MSTORE PUSH1 0x20 PUSH1 0x0 KECCAK256 SWAP1 JUMPDEST DUP2 SLOAD DUP2 MSTORE SWAP1 PUSH1 0x1 ADD SWAP1 PUSH1 0x20 ADD DUP1 DUP4 GT PUSH2 0x6AE JUMPI DUP3 SWAP1 SUB PUSH1 0x1F AND DUP3 ADD SWAP2 JUMPDEST POP POP POP POP POP SWAP1 DUP1 PUSH1 0x1 ADD DUP1 SLOAD PUSH2 0x6E0 SWAP1 PUSH2 0x18E0 JUMP JUMPDEST DUP1 PUSH1 0x1F ADD PUSH1 0x20 DUP1 SWAP2 DIV MUL PUSH1 0x20 ADD PUSH1 0x40 MLOAD SWAP1 DUP2 ADD PUSH1 0x40 MSTORE DUP1 SWAP3 SWAP2 SWAP1 DUP2 DUP2 MSTORE PUSH1 0x20 ADD DUP3 DUP1 SLOAD PUSH2 0x70C SWAP1 PUSH2 0x18E0 JUMP JUMPDEST DUP1 ISZERO PUSH2 0x759 JUMPI DUP1 PUSH1 0x1F LT PUSH2 0x72E JUMPI PUSH2 0x100 DUP1 DUP4 SLOAD DIV MUL DUP4 MSTORE SWAP2 PUSH1 0x20 ADD SWAP2 PUSH2 0x759 JUMP JUMPDEST DUP3 ADD SWAP2 SWAP1 PUSH1 0x0 MSTORE PUSH1 0x20 PUSH1 0x0 KECCAK256 SWAP1 JUMPDEST DUP2 SLOAD DUP2 MSTORE SWAP1 PUSH1 0x1 ADD SWAP1 PUSH1 0x20 ADD DUP1 DUP4 GT PUSH2 0x73C JUMPI DUP3 SWAP1 SUB PUSH1 0x1F AND DUP3 ADD SWAP2 JUMPDEST POP POP POP POP POP SWAP1 DUP1 PUSH1 0x2 ADD SLOAD SWAP1 POP DUP4 JUMP JUMPDEST PUSH1 0x2 SLOAD DUP2 JUMP JUMPDEST PUSH1 0x3 PUSH1 0x13 SLOAD LT PUSH2 0x7B4 JUMPI PUSH1 0x40 MLOAD PUSH32 0x8C379A000000000000000000000000000000000000000000000000000000000 DUP2 MSTORE PUSH1 0x4 ADD PUSH2 0x7AB SWAP1 PUSH2 0x1BDB JUMP JUMPDEST PUSH1 0x40 MLOAD DUP1 SWAP2 SUB SWAP1 REVERT JUMPDEST DUP1 PUSH1 0xA PUSH1 0x13 PUSH1 0x0 DUP2 SLOAD DUP1 SWAP3 SWAP2 SWAP1 PUSH2 0x7CA SWAP1 PUSH2 0x1C2A JUMP JUMPDEST SWAP2 SWAP1 POP SSTORE PUSH1 0x3 DUP2 LT PUSH2 0x7DF JUMPI PUSH2 0x7DE PUSH2 0x1C72 JUMP JUMPDEST JUMPDEST PUSH1 0x3 MUL ADD PUSH1 0x0 DUP3 ADD MLOAD DUP2 PUSH1 0x0 ADD SWAP1 DUP2 PUSH2 0x7F8 SWAP2 SWAP1 PUSH2 0x1ABD JUMP JUMPDEST POP PUSH1 0x20 DUP3 ADD MLOAD DUP2 PUSH1 0x1 ADD SWAP1 DUP2 PUSH2 0x80E SWAP2 SWAP1 PUSH2 0x1ABD JUMP JUMPDEST POP PUSH1 0x40 DUP3 ADD MLOAD DUP2 PUSH1 0x2 ADD SSTORE SWAP1 POP POP POP JUMP JUMPDEST JUMP JUMPDEST PUSH1 0x0 PUSH1 0x5 DUP1 SLOAD SWAP1 POP SWAP1 POP SWAP1 JUMP JUMPDEST PUSH1 0x60 PUSH1 0x40 MLOAD DUP1 PUSH1 0x40 ADD PUSH1 0x40 MSTORE DUP1 PUSH1 0xB DUP2 MSTORE PUSH1 0x20 ADD PUSH32 0x4920616D20726561647921000000000000000000000000000000000000000000 DUP2 MSTORE POP SWAP1 POP SWAP1 JUMP JUMPDEST PUSH1 0x4 PUSH1 0x0 PUSH1 0x3 PUSH1 0x0 SWAP1 SLOAD SWAP1 PUSH2 0x100 EXP SWAP1 DIV PUSH20 0xFFFFFFFFFFFFFFFFFFFFFFFFFFFFFFFFFFFFFFFF AND PUSH20 0xFFFFFFFFFFFFFFFFFFFFFFFFFFFFFFFFFFFFFFFF AND PUSH20 0xFFFFFFFFFFFFFFFFFFFFFFFFFFFFFFFFFFFFFFFF AND DUP2 MSTORE PUSH1 0x20 ADD SWAP1 DUP2 MSTORE PUSH1 0x20 ADD PUSH1 0x0 KECCAK256 PUSH1 0x0 CALLER PUSH20 0xFFFFFFFFFFFFFFFFFFFFFFFFFFFFFFFFFFFFFFFF AND PUSH20 0xFFFFFFFFFFFFFFFFFFFFFFFFFFFFFFFFFFFFFFFF AND DUP2 MSTORE PUSH1 0x20 ADD SWAP1 DUP2 MSTORE PUSH1 0x20 ADD PUSH1 0x0 KECCAK256 PUSH1 0x0 SWAP1 SLOAD SWAP1 PUSH2 0x100 EXP SWAP1 DIV PUSH1 0xFF AND PUSH1 0x5 PUSH1 0x0 DUP2 SLOAD DUP2 LT PUSH2 0x92C JUMPI PUSH2 0x92B PUSH2 0x1C72 JUMP JUMPDEST JUMPDEST SWAP1 PUSH1 0x0 MSTORE PUSH1 0x20 PUSH1 0x0 KECCAK256 ADD SWAP1 PUSH2 0x977 JUMPI PUSH1 0x40 MLOAD PUSH32 0x8C379A000000000000000000000000000000000000000000000000000000000 DUP2 MSTORE PUSH1 0x4 ADD PUSH2 0x96E SWAP2 SWAP1 PUSH2 0x1D25 JUMP JUMPDEST PUSH1 0x40 MLOAD DUP1 SWAP2 SUB SWAP1 REVERT JUMPDEST POP DUP1 PUSH1 0x1 SLOAD PUSH2 0x986 SWAP2 SWAP1 PUSH2 0x1D47 JUMP JUMPDEST PUSH1 0x1 DUP2 SWAP1 SSTORE POP POP JUMP JUMPDEST PUSH1 0x60 PUSH1 0x40 MLOAD DUP1 PUSH1 0x40 ADD PUSH1 0x40 MSTORE DUP1 PUSH1 0xA DUP2 MSTORE PUSH1 0x20 ADD PUSH32 0x56656C6920557973616C00000000000000000000000000000000000000000000 DUP2 MSTORE POP SWAP1 POP SWAP1 JUMP JUMPDEST PUSH1 0x3 PUSH1 0x0 SWAP1 SLOAD SWAP1 PUSH2 0x100 EXP SWAP1 DIV PUSH20 0xFFFFFFFFFFFFFFFFFFFFFFFFFFFFFFFFFFFFFFFF AND DUP2 JUMP JUMPDEST DUP3 PUSH1 0x6 PUSH1 0x0 ADD SWAP1 DUP2 PUSH2 0xA04 SWAP2 SWAP1 PUSH2 0x1ABD JUMP JUMPDEST POP DUP2 PUSH1 0x6 PUSH1 0x1 ADD SWAP1 DUP2 PUSH2 0xA17 SWAP2 SWAP1 PUSH2 0x1ABD JUMP JUMPDEST POP DUP1 PUSH1 0x6 PUSH1 0x2 ADD DUP2 SWAP1 SSTORE POP POP POP POP JUMP JUMPDEST DUP1 PUSH1 0x2 SLOAD PUSH2 0xA35 SWAP2 SWAP1 PUSH2 0x1D7B JUMP JUMPDEST PUSH1 0x2 DUP2 SWAP1 SSTORE POP POP JUMP JUMPDEST PUSH1 0x5 DUP2 DUP2 SLOAD DUP2 LT PUSH2 0xA4E JUMPI PUSH1 0x0 DUP1 REVERT JUMPDEST SWAP1 PUSH1 0x0 MSTORE PUSH1 0x20 PUSH1 0x0 KECCAK256 ADD PUSH1 0x0 SWAP2 POP SWAP1 POP DUP1 SLOAD PUSH2 0xA69 SWAP1 PUSH2 0x18E0 JUMP JUMPDEST DUP1 PUSH1 0x1F ADD PUSH1 0x20 DUP1 SWAP2 DIV MUL PUSH1 0x20 ADD PUSH1 0x40 MLOAD SWAP1 DUP2 ADD PUSH1 0x40 MSTORE DUP1 SWAP3 SWAP2 SWAP1 DUP2 DUP2 MSTORE PUSH1 0x20 ADD DUP3 DUP1 SLOAD PUSH2 0xA95 SWAP1 PUSH2 0x18E0 JUMP JUMPDEST DUP1 ISZERO PUSH2 0xAE2 JUMPI DUP1 PUSH1 0x1F LT PUSH2 0xAB7 JUMPI PUSH2 0x100 DUP1 DUP4 SLOAD DIV MUL DUP4 MSTORE SWAP2 PUSH1 0x20 ADD SWAP2 PUSH2 0xAE2 JUMP JUMPDEST DUP3 ADD SWAP2 SWAP1 PUSH1 0x0 MSTORE PUSH1 0x20 PUSH1 0x0 KECCAK256 SWAP1 JUMPDEST DUP2 SLOAD DUP2 MSTORE SWAP1 PUSH1 0x1 ADD SWAP1 PUSH1 0x20 ADD DUP1 DUP4 GT PUSH2 0xAC5 JUMPI DUP3 SWAP1 SUB PUSH1 0x1F AND DUP3 ADD SWAP2 JUMPDEST POP POP POP POP POP DUP2 JUMP JUMPDEST PUSH1 0x60 PUSH1 0x40 MLOAD DUP1 PUSH1 0x40 ADD PUSH1 0x40 MSTORE DUP1 PUSH1 0xB DUP2 MSTORE PUSH1 0x20 ADD PUSH32 0x307856656C69557973616C000000000000000000000000000000000000000000 DUP2 MSTORE POP SWAP1 POP SWAP1 JUMP JUMPDEST PUSH2 0xB2F PUSH2 0x100A JUMP JUMPDEST PUSH1 0x0 PUSH1 0x6 PUSH1 0x40 MLOAD DUP1 PUSH1 0x60 ADD PUSH1 0x40 MSTORE SWAP1 DUP2 PUSH1 0x0 DUP3 ADD DUP1 SLOAD PUSH2 0xB4E SWAP1 PUSH2 0x18E0 JUMP JUMPDEST DUP1 PUSH1 0x1F ADD PUSH1 0x20 DUP1 SWAP2 DIV MUL PUSH1 0x20 ADD PUSH1 0x40 MLOAD SWAP1 DUP2 ADD PUSH1 0x40 MSTORE DUP1 SWAP3 SWAP2 SWAP1 DUP2 DUP2 MSTORE PUSH1 0x20 ADD DUP3 DUP1 SLOAD PUSH2 0xB7A SWAP1 PUSH2 0x18E0 JUMP JUMPDEST DUP1 ISZERO PUSH2 0xBC7 JUMPI DUP1 PUSH1 0x1F LT PUSH2 0xB9C JUMPI PUSH2 0x100 DUP1 DUP4 SLOAD DIV MUL DUP4 MSTORE SWAP2 PUSH1 0x20 ADD SWAP2 PUSH2 0xBC7 JUMP JUMPDEST DUP3 ADD SWAP2 SWAP1 PUSH1 0x0 MSTORE PUSH1 0x20 PUSH1 0x0 KECCAK256 SWAP1 JUMPDEST DUP2 SLOAD DUP2 MSTORE SWAP1 PUSH1 0x1 ADD SWAP1 PUSH1 0x20 ADD DUP1 DUP4 GT PUSH2 0xBAA JUMPI DUP3 SWAP1 SUB PUSH1 0x1F AND DUP3 ADD SWAP2 JUMPDEST POP POP POP POP POP DUP2 MSTORE PUSH1 0x20 ADD PUSH1 0x1 DUP3 ADD DUP1 SLOAD PUSH2 0xBE0 SWAP1 PUSH2 0x18E0 JUMP JUMPDEST DUP1 PUSH1 0x1F ADD PUSH1 0x20 DUP1 SWAP2 DIV MUL PUSH1 0x20 ADD PUSH1 0x40 MLOAD SWAP1 DUP2 ADD PUSH1 0x40 MSTORE DUP1 SWAP3 SWAP2 SWAP1 DUP2 DUP2 MSTORE PUSH1 0x20 ADD DUP3 DUP1 SLOAD PUSH2 0xC0C SWAP1 PUSH2 0x18E0 JUMP JUMPDEST DUP1 ISZERO PUSH2 0xC59 JUMPI DUP1 PUSH1 0x1F LT PUSH2 0xC2E JUMPI PUSH2 0x100 DUP1 DUP4 SLOAD DIV MUL DUP4 MSTORE SWAP2 PUSH1 0x20 ADD SWAP2 PUSH2 0xC59 JUMP JUMPDEST DUP3 ADD SWAP2 SWAP1 PUSH1 0x0 MSTORE PUSH1 0x20 PUSH1 0x0 KECCAK256 SWAP1 JUMPDEST DUP2 SLOAD DUP2 MSTORE SWAP1 PUSH1 0x1 ADD SWAP1 PUSH1 0x20 ADD DUP1 DUP4 GT PUSH2 0xC3C JUMPI DUP3 SWAP1 SUB PUSH1 0x1F AND DUP3 ADD SWAP2 JUMPDEST POP POP POP POP POP DUP2 MSTORE PUSH1 0x20 ADD PUSH1 0x2 DUP3 ADD SLOAD DUP2 MSTORE POP POP SWAP1 POP DUP1 SWAP2 POP POP SWAP1 JUMP JUMPDEST PUSH1 0x4 PUSH1 0x20 MSTORE DUP2 PUSH1 0x0 MSTORE PUSH1 0x40 PUSH1 0x0 KECCAK256 PUSH1 0x20 MSTORE DUP1 PUSH1 0x0 MSTORE PUSH1 0x40 PUSH1 0x0 KECCAK256 PUSH1 0x0 SWAP2 POP SWAP2 POP SWAP1 SLOAD SWAP1 PUSH2 0x100 EXP SWAP1 DIV PUSH1 0xFF AND DUP2 JUMP JUMPDEST PUSH2 0xCAC PUSH2 0x102B JUMP JUMPDEST PUSH2 0xCB4 PUSH2 0x102B JUMP JUMPDEST PUSH1 0x0 JUMPDEST PUSH1 0x3 DUP2 LT ISZERO PUSH2 0xE3F JUMPI PUSH1 0xA DUP2 PUSH1 0x3 DUP2 LT PUSH2 0xCD4 JUMPI PUSH2 0xCD3 PUSH2 0x1C72 JUMP JUMPDEST JUMPDEST PUSH1 0x3 MUL ADD PUSH1 0x40 MLOAD DUP1 PUSH1 0x60 ADD PUSH1 0x40 MSTORE SWAP1 DUP2 PUSH1 0x0 DUP3 ADD DUP1 SLOAD PUSH2 0xCF3 SWAP1 PUSH2 0x18E0 JUMP JUMPDEST DUP1 PUSH1 0x1F ADD PUSH1 0x20 DUP1 SWAP2 DIV MUL PUSH1 0x20 ADD PUSH1 0x40 MLOAD SWAP1 DUP2 ADD PUSH1 0x40 MSTORE DUP1 SWAP3 SWAP2 SWAP1 DUP2 DUP2 MSTORE PUSH1 0x20 ADD DUP3 DUP1 SLOAD PUSH2 0xD1F SWAP1 PUSH2 0x18E0 JUMP JUMPDEST DUP1 ISZERO PUSH2 0xD6C JUMPI DUP1 PUSH1 0x1F LT PUSH2 0xD41 JUMPI PUSH2 0x100 DUP1 DUP4 SLOAD DIV MUL DUP4 MSTORE SWAP2 PUSH1 0x20 ADD SWAP2 PUSH2 0xD6C JUMP JUMPDEST DUP3 ADD SWAP2 SWAP1 PUSH1 0x0 MSTORE PUSH1 0x20 PUSH1 0x0 KECCAK256 SWAP1 JUMPDEST DUP2 SLOAD DUP2 MSTORE SWAP1 PUSH1 0x1 ADD SWAP1 PUSH1 0x20 ADD DUP1 DUP4 GT PUSH2 0xD4F JUMPI DUP3 SWAP1 SUB PUSH1 0x1F AND DUP3 ADD SWAP2 JUMPDEST POP POP POP POP POP DUP2 MSTORE PUSH1 0x20 ADD PUSH1 0x1 DUP3 ADD DUP1 SLOAD PUSH2 0xD85 SWAP1 PUSH2 0x18E0 JUMP JUMPDEST DUP1 PUSH1 0x1F ADD PUSH1 0x20 DUP1 SWAP2 DIV MUL PUSH1 0x20 ADD PUSH1 0x40 MLOAD SWAP1 DUP2 ADD PUSH1 0x40 MSTORE DUP1 SWAP3 SWAP2 SWAP1 DUP2 DUP2 MSTORE PUSH1 0x20 ADD DUP3 DUP1 SLOAD PUSH2 0xDB1 SWAP1 PUSH2 0x18E0 JUMP JUMPDEST DUP1 ISZERO PUSH2 0xDFE JUMPI DUP1 PUSH1 0x1F LT PUSH2 0xDD3 JUMPI PUSH2 0x100 DUP1 DUP4 SLOAD DIV MUL DUP4 MSTORE SWAP2 PUSH1 0x20 ADD SWAP2 PUSH2 0xDFE JUMP JUMPDEST DUP3 ADD SWAP2 SWAP1 PUSH1 0x0 MSTORE PUSH1 0x20 PUSH1 0x0 KECCAK256 SWAP1 JUMPDEST DUP2 SLOAD DUP2 MSTORE SWAP1 PUSH1 0x1 ADD SWAP1 PUSH1 0x20 ADD DUP1 DUP4 GT PUSH2 0xDE1 JUMPI DUP3 SWAP1 SUB PUSH1 0x1F AND DUP3 ADD SWAP2 JUMPDEST POP POP POP POP POP DUP2 MSTORE PUSH1 0x20 ADD PUSH1 0x2 DUP3 ADD SLOAD DUP2 MSTORE POP POP DUP3 DUP3 PUSH1 0x3 DUP2 LT PUSH2 0xE24 JUMPI PUSH2 0xE23 PUSH2 0x1C72 JUMP JUMPDEST JUMPDEST PUSH1 0x20 MUL ADD DUP2 SWAP1 MSTORE POP DUP1 DUP1 PUSH2 0xE37 SWAP1 PUSH2 0x1C2A JUMP JUMPDEST SWAP2 POP POP PUSH2 0xCB7 JUMP JUMPDEST POP DUP1 SWAP2 POP POP SWAP1 JUMP JUMPDEST DUP1 PUSH1 0x6 PUSH1 0x0 DUP3 ADD MLOAD DUP2 PUSH1 0x0 ADD SWAP1 DUP2 PUSH2 0xE5F SWAP2 SWAP1 PUSH2 0x1ABD JUMP JUMPDEST POP PUSH1 0x20 DUP3 ADD MLOAD DUP2 PUSH1 0x1 ADD SWAP1 DUP2 PUSH2 0xE75 SWAP2 SWAP1 PUSH2 0x1ABD JUMP JUMPDEST POP PUSH1 0x40 DUP3 ADD MLOAD DUP2 PUSH1 0x2 ADD SSTORE SWAP1 POP POP POP JUMP JUMPDEST CALLER PUSH20 0xFFFFFFFFFFFFFFFFFFFFFFFFFFFFFFFFFFFFFFFF AND PUSH1 0x3 PUSH1 0x0 SWAP1 SLOAD SWAP1 PUSH2 0x100 EXP SWAP1 DIV PUSH20 0xFFFFFFFFFFFFFFFFFFFFFFFFFFFFFFFFFFFFFFFF AND PUSH20 0xFFFFFFFFFFFFFFFFFFFFFFFFFFFFFFFFFFFFFFFF AND EQ PUSH1 0x5 PUSH1 0x1 DUP2 SLOAD DUP2 LT PUSH2 0xEEC JUMPI PUSH2 0xEEB PUSH2 0x1C72 JUMP JUMPDEST JUMPDEST SWAP1 PUSH1 0x0 MSTORE PUSH1 0x20 PUSH1 0x0 KECCAK256 ADD SWAP1 PUSH2 0xF37 JUMPI PUSH1 0x40 MLOAD PUSH32 0x8C379A000000000000000000000000000000000000000000000000000000000 DUP2 MSTORE PUSH1 0x4 ADD PUSH2 0xF2E SWAP2 SWAP1 PUSH2 0x1D25 JUMP JUMPDEST PUSH1 0x40 MLOAD DUP1 SWAP2 SUB SWAP1 REVERT JUMPDEST POP PUSH1 0x1 PUSH1 0x4 PUSH1 0x0 PUSH1 0x3 PUSH1 0x0 SWAP1 SLOAD SWAP1 PUSH2 0x100 EXP SWAP1 DIV PUSH20 0xFFFFFFFFFFFFFFFFFFFFFFFFFFFFFFFFFFFFFFFF AND PUSH20 0xFFFFFFFFFFFFFFFFFFFFFFFFFFFFFFFFFFFFFFFF AND PUSH20 0xFFFFFFFFFFFFFFFFFFFFFFFFFFFFFFFFFFFFFFFF AND DUP2 MSTORE PUSH1 0x20 ADD SWAP1 DUP2 MSTORE PUSH1 0x20 ADD PUSH1 0x0 KECCAK256 PUSH1 0x0 DUP4 PUSH20 0xFFFFFFFFFFFFFFFFFFFFFFFFFFFFFFFFFFFFFFFF AND PUSH20 0xFFFFFFFFFFFFFFFFFFFFFFFFFFFFFFFFFFFFFFFF AND DUP2 MSTORE PUSH1 0x20 ADD SWAP1 DUP2 MSTORE PUSH1 0x20 ADD PUSH1 0x0 KECCAK256 PUSH1 0x0 PUSH2 0x100 EXP DUP2 SLOAD DUP2 PUSH1 0xFF MUL NOT AND SWAP1 DUP4 ISZERO ISZERO MUL OR SWAP1 SSTORE POP POP JUMP JUMPDEST PUSH1 0x1 PUSH1 0x0 DUP2 SLOAD PUSH2 0x1001 SWAP1 PUSH2 0x1C2A JUMP JUMPDEST SWAP2 SWAP1 POP DUP2 SWAP1 SSTORE POP JUMP JUMPDEST PUSH1 0x40 MLOAD DUP1 PUSH1 0x60 ADD PUSH1 0x40 MSTORE DUP1 PUSH1 0x60 DUP2 MSTORE PUSH1 0x20 ADD PUSH1 0x60 DUP2 MSTORE PUSH1 0x20 ADD PUSH1 0x0 DUP2 MSTORE POP SWAP1 JUMP JUMPDEST PUSH1 0x40 MLOAD DUP1 PUSH1 0x60 ADD PUSH1 0x40 MSTORE DUP1 PUSH1 0x3 SWAP1 JUMPDEST PUSH2 0x1042 PUSH2 0x100A JUMP JUMPDEST DUP2 MSTORE PUSH1 0x20 ADD SWAP1 PUSH1 0x1 SWAP1 SUB SWAP1 DUP2 PUSH2 0x103A JUMPI SWAP1 POP POP SWAP1 JUMP JUMPDEST PUSH1 0x0 PUSH1 0x40 MLOAD SWAP1 POP SWAP1 JUMP JUMPDEST PUSH1 0x0 DUP1 REVERT JUMPDEST PUSH1 0x0 DUP1 REVERT JUMPDEST PUSH1 0x0 DUP1 REVERT JUMPDEST PUSH1 0x0 PUSH1 0x1F NOT PUSH1 0x1F DUP4 ADD AND SWAP1 POP SWAP2 SWAP1 POP JUMP JUMPDEST PUSH32 0x4E487B7100000000000000000000000000000000000000000000000000000000 PUSH1 0x0 MSTORE PUSH1 0x41 PUSH1 0x4 MSTORE PUSH1 0x24 PUSH1 0x0 REVERT JUMPDEST PUSH2 0x10BA DUP3 PUSH2 0x1071 JUMP JUMPDEST DUP2 ADD DUP2 DUP2 LT PUSH8 0xFFFFFFFFFFFFFFFF DUP3 GT OR ISZERO PUSH2 0x10D9 JUMPI PUSH2 0x10D8 PUSH2 0x1082 JUMP JUMPDEST JUMPDEST DUP1 PUSH1 0x40 MSTORE POP POP POP JUMP JUMPDEST PUSH1 0x0 PUSH2 0x10EC PUSH2 0x1058 JUMP JUMPDEST SWAP1 POP PUSH2 0x10F8 DUP3 DUP3 PUSH2 0x10B1 JUMP JUMPDEST SWAP2 SWAP1 POP JUMP JUMPDEST PUSH1 0x0 DUP1 REVERT JUMPDEST PUSH1 0x0 DUP1 REVERT JUMPDEST PUSH1 0x0 DUP1 REVERT JUMPDEST PUSH1 0x0 PUSH8 0xFFFFFFFFFFFFFFFF DUP3 GT ISZERO PUSH2 0x1127 JUMPI PUSH2 0x1126 PUSH2 0x1082 JUMP JUMPDEST JUMPDEST PUSH2 0x1130 DUP3 PUSH2 0x1071 JUMP JUMPDEST SWAP1 POP PUSH1 0x20 DUP2 ADD SWAP1 POP SWAP2 SWAP1 POP JUMP JUMPDEST DUP3 DUP2 DUP4 CALLDATACOPY PUSH1 0x0 DUP4 DUP4 ADD MSTORE POP POP POP JUMP JUMPDEST PUSH1 0x0 PUSH2 0x115F PUSH2 0x115A DUP5 PUSH2 0x110C JUMP JUMPDEST PUSH2 0x10E2 JUMP JUMPDEST SWAP1 POP DUP3 DUP2 MSTORE PUSH1 0x20 DUP2 ADD DUP5 DUP5 DUP5 ADD GT ISZERO PUSH2 0x117B JUMPI PUSH2 0x117A PUSH2 0x1107 JUMP JUMPDEST JUMPDEST PUSH2 0x1186 DUP5 DUP3 DUP6 PUSH2 0x113D JUMP JUMPDEST POP SWAP4 SWAP3 POP POP POP JUMP JUMPDEST PUSH1 0x0 DUP3 PUSH1 0x1F DUP4 ADD SLT PUSH2 0x11A3 JUMPI PUSH2 0x11A2 PUSH2 0x1102 JUMP JUMPDEST JUMPDEST DUP2 CALLDATALOAD PUSH2 0x11B3 DUP5 DUP3 PUSH1 0x20 DUP7 ADD PUSH2 0x114C JUMP JUMPDEST SWAP2 POP POP SWAP3 SWAP2 POP POP JUMP JUMPDEST PUSH1 0x0 DUP2 SWAP1 POP SWAP2 SWAP1 POP JUMP JUMPDEST PUSH2 0x11CF DUP2 PUSH2 0x11BC JUMP JUMPDEST DUP2 EQ PUSH2 0x11DA JUMPI PUSH1 0x0 DUP1 REVERT JUMPDEST POP JUMP JUMPDEST PUSH1 0x0 DUP2 CALLDATALOAD SWAP1 POP PUSH2 0x11EC DUP2 PUSH2 0x11C6 JUMP JUMPDEST SWAP3 SWAP2 POP POP JUMP JUMPDEST PUSH1 0x0 PUSH1 0x60 DUP3 DUP5 SUB SLT ISZERO PUSH2 0x1208 JUMPI PUSH2 0x1207 PUSH2 0x106C JUMP JUMPDEST JUMPDEST PUSH2 0x1212 PUSH1 0x60 PUSH2 0x10E2 JUMP JUMPDEST SWAP1 POP PUSH1 0x0 DUP3 ADD CALLDATALOAD PUSH8 0xFFFFFFFFFFFFFFFF DUP2 GT ISZERO PUSH2 0x1232 JUMPI PUSH2 0x1231 PUSH2 0x10FD JUMP JUMPDEST JUMPDEST PUSH2 0x123E DUP5 DUP3 DUP6 ADD PUSH2 0x118E JUMP JUMPDEST PUSH1 0x0 DUP4 ADD MSTORE POP PUSH1 0x20 DUP3 ADD CALLDATALOAD PUSH8 0xFFFFFFFFFFFFFFFF DUP2 GT ISZERO PUSH2 0x1262 JUMPI PUSH2 0x1261 PUSH2 0x10FD JUMP JUMPDEST JUMPDEST PUSH2 0x126E DUP5 DUP3 DUP6 ADD PUSH2 0x118E JUMP JUMPDEST PUSH1 0x20 DUP4 ADD MSTORE POP PUSH1 0x40 PUSH2 0x1282 DUP5 DUP3 DUP6 ADD PUSH2 0x11DD JUMP JUMPDEST PUSH1 0x40 DUP4 ADD MSTORE POP SWAP3 SWAP2 POP POP JUMP JUMPDEST PUSH1 0x0 PUSH1 0x20 DUP3 DUP5 SUB SLT ISZERO PUSH2 0x12A4 JUMPI PUSH2 0x12A3 PUSH2 0x1062 JUMP JUMPDEST JUMPDEST PUSH1 0x0 DUP3 ADD CALLDATALOAD PUSH8 0xFFFFFFFFFFFFFFFF DUP2 GT ISZERO PUSH2 0x12C2 JUMPI PUSH2 0x12C1 PUSH2 0x1067 JUMP JUMPDEST JUMPDEST PUSH2 0x12CE DUP5 DUP3 DUP6 ADD PUSH2 0x11F2 JUMP JUMPDEST SWAP2 POP POP SWAP3 SWAP2 POP POP JUMP JUMPDEST PUSH2 0x12E0 DUP2 PUSH2 0x11BC JUMP JUMPDEST DUP3 MSTORE POP POP JUMP JUMPDEST PUSH1 0x0 PUSH1 0x20 DUP3 ADD SWAP1 POP PUSH2 0x12FB PUSH1 0x0 DUP4 ADD DUP5 PUSH2 0x12D7 JUMP JUMPDEST SWAP3 SWAP2 POP POP JUMP JUMPDEST PUSH1 0x0 PUSH1 0x20 DUP3 DUP5 SUB SLT ISZERO PUSH2 0x1317 JUMPI PUSH2 0x1316 PUSH2 0x1062 JUMP JUMPDEST JUMPDEST PUSH1 0x0 PUSH2 0x1325 DUP5 DUP3 DUP6 ADD PUSH2 0x11DD JUMP JUMPDEST SWAP2 POP POP SWAP3 SWAP2 POP POP JUMP JUMPDEST PUSH1 0x0 DUP2 MLOAD SWAP1 POP SWAP2 SWAP1 POP JUMP JUMPDEST PUSH1 0x0 DUP3 DUP3 MSTORE PUSH1 0x20 DUP3 ADD SWAP1 POP SWAP3 SWAP2 POP POP JUMP JUMPDEST PUSH1 0x0 JUMPDEST DUP4 DUP2 LT ISZERO PUSH2 0x1368 JUMPI DUP1 DUP3 ADD MLOAD DUP2 DUP5 ADD MSTORE PUSH1 0x20 DUP2 ADD SWAP1 POP PUSH2 0x134D JUMP JUMPDEST PUSH1 0x0 DUP5 DUP5 ADD MSTORE POP POP POP POP JUMP JUMPDEST PUSH1 0x0 PUSH2 0x137F DUP3 PUSH2 0x132E JUMP JUMPDEST PUSH2 0x1389 DUP2 DUP6 PUSH2 0x1339 JUMP JUMPDEST SWAP4 POP PUSH2 0x1399 DUP2 DUP6 PUSH1 0x20 DUP7 ADD PUSH2 0x134A JUMP JUMPDEST PUSH2 0x13A2 DUP2 PUSH2 0x1071 JUMP JUMPDEST DUP5 ADD SWAP2 POP POP SWAP3 SWAP2 POP POP JUMP JUMPDEST PUSH1 0x0 PUSH1 0x60 DUP3 ADD SWAP1 POP DUP2 DUP2 SUB PUSH1 0x0 DUP4 ADD MSTORE PUSH2 0x13C7 DUP2 DUP7 PUSH2 0x1374 JUMP JUMPDEST SWAP1 POP DUP2 DUP2 SUB PUSH1 0x20 DUP4 ADD MSTORE PUSH2 0x13DB DUP2 DUP6 PUSH2 0x1374 JUMP JUMPDEST SWAP1 POP PUSH2 0x13EA PUSH1 0x40 DUP4 ADD DUP5 PUSH2 0x12D7 JUMP JUMPDEST SWAP5 SWAP4 POP POP POP POP JUMP JUMPDEST PUSH1 0x0 DUP2 ISZERO ISZERO SWAP1 POP SWAP2 SWAP1 POP JUMP JUMPDEST PUSH2 0x1407 DUP2 PUSH2 0x13F2 JUMP JUMPDEST DUP3 MSTORE POP POP JUMP JUMPDEST PUSH1 0x0 PUSH1 0x20 DUP3 ADD SWAP1 POP PUSH2 0x1422 PUSH1 0x0 DUP4 ADD DUP5 PUSH2 0x13FE JUMP JUMPDEST SWAP3 SWAP2 POP POP JUMP JUMPDEST PUSH2 0x1431 DUP2 PUSH2 0x13F2 JUMP JUMPDEST DUP2 EQ PUSH2 0x143C JUMPI PUSH1 0x0 DUP1 REVERT JUMPDEST POP JUMP JUMPDEST PUSH1 0x0 DUP2 CALLDATALOAD SWAP1 POP PUSH2 0x144E DUP2 PUSH2 0x1428 JUMP JUMPDEST SWAP3 SWAP2 POP POP JUMP JUMPDEST PUSH1 0x0 PUSH1 0x20 DUP3 DUP5 SUB SLT ISZERO PUSH2 0x146A JUMPI PUSH2 0x1469 PUSH2 0x1062 JUMP JUMPDEST JUMPDEST PUSH1 0x0 PUSH2 0x1478 DUP5 DUP3 DUP6 ADD PUSH2 0x143F JUMP JUMPDEST SWAP2 POP POP SWAP3 SWAP2 POP POP JUMP JUMPDEST PUSH1 0x0 PUSH20 0xFFFFFFFFFFFFFFFFFFFFFFFFFFFFFFFFFFFFFFFF DUP3 AND SWAP1 POP SWAP2 SWAP1 POP JUMP JUMPDEST PUSH1 0x0 PUSH2 0x14AC DUP3 PUSH2 0x1481 JUMP JUMPDEST SWAP1 POP SWAP2 SWAP1 POP JUMP JUMPDEST PUSH2 0x14BC DUP2 PUSH2 0x14A1 JUMP JUMPDEST DUP2 EQ PUSH2 0x14C7 JUMPI PUSH1 0x0 DUP1 REVERT JUMPDEST POP JUMP JUMPDEST PUSH1 0x0 DUP2 CALLDATALOAD SWAP1 POP PUSH2 0x14D9 DUP2 PUSH2 0x14B3 JUMP JUMPDEST SWAP3 SWAP2 POP POP JUMP JUMPDEST PUSH1 0x0 PUSH1 0x20 DUP3 DUP5 SUB SLT ISZERO PUSH2 0x14F5 JUMPI PUSH2 0x14F4 PUSH2 0x1062 JUMP JUMPDEST JUMPDEST PUSH1 0x0 PUSH2 0x1503 DUP5 DUP3 DUP6 ADD PUSH2 0x14CA JUMP JUMPDEST SWAP2 POP POP SWAP3 SWAP2 POP POP JUMP JUMPDEST PUSH1 0x0 DUP2 SWAP1 POP SWAP2 SWAP1 POP JUMP JUMPDEST PUSH2 0x151F DUP2 PUSH2 0x150C JUMP JUMPDEST DUP3 MSTORE POP POP JUMP JUMPDEST PUSH1 0x0 PUSH1 0x20 DUP3 ADD SWAP1 POP PUSH2 0x153A PUSH1 0x0 DUP4 ADD DUP5 PUSH2 0x1516 JUMP JUMPDEST SWAP3 SWAP2 POP POP JUMP JUMPDEST PUSH1 0x0 PUSH1 0x20 DUP3 ADD SWAP1 POP DUP2 DUP2 SUB PUSH1 0x0 DUP4 ADD MSTORE PUSH2 0x155A DUP2 DUP5 PUSH2 0x1374 JUMP JUMPDEST SWAP1 POP SWAP3 SWAP2 POP POP JUMP JUMPDEST PUSH2 0x156B DUP2 PUSH2 0x14A1 JUMP JUMPDEST DUP3 MSTORE POP POP JUMP JUMPDEST PUSH1 0x0 PUSH1 0x20 DUP3 ADD SWAP1 POP PUSH2 0x1586 PUSH1 0x0 DUP4 ADD DUP5 PUSH2 0x1562 JUMP JUMPDEST SWAP3 SWAP2 POP POP JUMP JUMPDEST PUSH1 0x0 DUP1 PUSH1 0x0 PUSH1 0x60 DUP5 DUP7 SUB SLT ISZERO PUSH2 0x15A5 JUMPI PUSH2 0x15A4 PUSH2 0x1062 JUMP JUMPDEST JUMPDEST PUSH1 0x0 DUP5 ADD CALLDATALOAD PUSH8 0xFFFFFFFFFFFFFFFF DUP2 GT ISZERO PUSH2 0x15C3 JUMPI PUSH2 0x15C2 PUSH2 0x1067 JUMP JUMPDEST JUMPDEST PUSH2 0x15CF DUP7 DUP3 DUP8 ADD PUSH2 0x118E JUMP JUMPDEST SWAP4 POP POP PUSH1 0x20 DUP5 ADD CALLDATALOAD PUSH8 0xFFFFFFFFFFFFFFFF DUP2 GT ISZERO PUSH2 0x15F0 JUMPI PUSH2 0x15EF PUSH2 0x1067 JUMP JUMPDEST JUMPDEST PUSH2 0x15FC DUP7 DUP3 DUP8 ADD PUSH2 0x118E JUMP JUMPDEST SWAP3 POP POP PUSH1 0x40 PUSH2 0x160D DUP7 DUP3 DUP8 ADD PUSH2 0x11DD JUMP JUMPDEST SWAP2 POP POP SWAP3 POP SWAP3 POP SWAP3 JUMP JUMPDEST PUSH2 0x1620 DUP2 PUSH2 0x150C JUMP JUMPDEST DUP2 EQ PUSH2 0x162B JUMPI PUSH1 0x0 DUP1 REVERT JUMPDEST POP JUMP JUMPDEST PUSH1 0x0 DUP2 CALLDATALOAD SWAP1 POP PUSH2 0x163D DUP2 PUSH2 0x1617 JUMP JUMPDEST SWAP3 SWAP2 POP POP JUMP JUMPDEST PUSH1 0x0 PUSH1 0x20 DUP3 DUP5 SUB SLT ISZERO PUSH2 0x1659 JUMPI PUSH2 0x1658 PUSH2 0x1062 JUMP JUMPDEST JUMPDEST PUSH1 0x0 PUSH2 0x1667 DUP5 DUP3 DUP6 ADD PUSH2 0x162E JUMP JUMPDEST SWAP2 POP POP SWAP3 SWAP2 POP POP JUMP JUMPDEST PUSH1 0x0 DUP3 DUP3 MSTORE PUSH1 0x20 DUP3 ADD SWAP1 POP SWAP3 SWAP2 POP POP JUMP JUMPDEST PUSH1 0x0 PUSH2 0x168C DUP3 PUSH2 0x132E JUMP JUMPDEST PUSH2 0x1696 DUP2 DUP6 PUSH2 0x1670 JUMP JUMPDEST SWAP4 POP PUSH2 0x16A6 DUP2 DUP6 PUSH1 0x20 DUP7 ADD PUSH2 0x134A JUMP JUMPDEST PUSH2 0x16AF DUP2 PUSH2 0x1071 JUMP JUMPDEST DUP5 ADD SWAP2 POP POP SWAP3 SWAP2 POP POP JUMP JUMPDEST PUSH2 0x16C3 DUP2 PUSH2 0x11BC JUMP JUMPDEST DUP3 MSTORE POP POP JUMP JUMPDEST PUSH1 0x0 PUSH1 0x60 DUP4 ADD PUSH1 0x0 DUP4 ADD MLOAD DUP5 DUP3 SUB PUSH1 0x0 DUP7 ADD MSTORE PUSH2 0x16E6 DUP3 DUP3 PUSH2 0x1681 JUMP JUMPDEST SWAP2 POP POP PUSH1 0x20 DUP4 ADD MLOAD DUP5 DUP3 SUB PUSH1 0x20 DUP7 ADD MSTORE PUSH2 0x1700 DUP3 DUP3 PUSH2 0x1681 JUMP JUMPDEST SWAP2 POP POP PUSH1 0x40 DUP4 ADD MLOAD PUSH2 0x1715 PUSH1 0x40 DUP7 ADD DUP3 PUSH2 0x16BA JUMP JUMPDEST POP DUP1 SWAP2 POP POP SWAP3 SWAP2 POP POP JUMP JUMPDEST PUSH1 0x0 PUSH1 0x20 DUP3 ADD SWAP1 POP DUP2 DUP2 SUB PUSH1 0x0 DUP4 ADD MSTORE PUSH2 0x173A DUP2 DUP5 PUSH2 0x16C9 JUMP JUMPDEST SWAP1 POP SWAP3 SWAP2 POP POP JUMP JUMPDEST PUSH1 0x0 DUP1 PUSH1 0x40 DUP4 DUP6 SUB SLT ISZERO PUSH2 0x1759 JUMPI PUSH2 0x1758 PUSH2 0x1062 JUMP JUMPDEST JUMPDEST PUSH1 0x0 PUSH2 0x1767 DUP6 DUP3 DUP7 ADD PUSH2 0x14CA JUMP JUMPDEST SWAP3 POP POP PUSH1 0x20 PUSH2 0x1778 DUP6 DUP3 DUP7 ADD PUSH2 0x14CA JUMP JUMPDEST SWAP2 POP POP SWAP3 POP SWAP3 SWAP1 POP JUMP JUMPDEST PUSH1 0x0 PUSH1 0x3 SWAP1 POP SWAP2 SWAP1 POP JUMP JUMPDEST PUSH1 0x0 DUP2 SWAP1 POP SWAP3 SWAP2 POP POP JUMP JUMPDEST PUSH1 0x0 DUP2 SWAP1 POP SWAP2 SWAP1 POP JUMP JUMPDEST PUSH1 0x0 PUSH1 0x60 DUP4 ADD PUSH1 0x0 DUP4 ADD MLOAD DUP5 DUP3 SUB PUSH1 0x0 DUP7 ADD MSTORE PUSH2 0x17BF DUP3 DUP3 PUSH2 0x1681 JUMP JUMPDEST SWAP2 POP POP PUSH1 0x20 DUP4 ADD MLOAD DUP5 DUP3 SUB PUSH1 0x20 DUP7 ADD MSTORE PUSH2 0x17D9 DUP3 DUP3 PUSH2 0x1681 JUMP JUMPDEST SWAP2 POP POP PUSH1 0x40 DUP4 ADD MLOAD PUSH2 0x17EE PUSH1 0x40 DUP7 ADD DUP3 PUSH2 0x16BA JUMP JUMPDEST POP DUP1 SWAP2 POP POP SWAP3 SWAP2 POP POP JUMP JUMPDEST PUSH1 0x0 PUSH2 0x1805 DUP4 DUP4 PUSH2 0x17A2 JUMP JUMPDEST SWAP1 POP SWAP3 SWAP2 POP POP JUMP JUMPDEST PUSH1 0x0 PUSH1 0x20 DUP3 ADD SWAP1 POP SWAP2 SWAP1 POP JUMP JUMPDEST PUSH1 0x0 PUSH2 0x1825 DUP3 PUSH2 0x1782 JUMP JUMPDEST PUSH2 0x182F DUP2 DUP6 PUSH2 0x178D JUMP JUMPDEST SWAP4 POP DUP4 PUSH1 0x20 DUP3 MUL DUP6 ADD PUSH2 0x1841 DUP6 PUSH2 0x1798 JUMP JUMPDEST DUP1 PUSH1 0x0 JUMPDEST DUP6 DUP2 LT ISZERO PUSH2 0x187D JUMPI DUP5 DUP5 SUB DUP10 MSTORE DUP2 MLOAD PUSH2 0x185E DUP6 DUP3 PUSH2 0x17F9 JUMP JUMPDEST SWAP5 POP PUSH2 0x1869 DUP4 PUSH2 0x180D JUMP JUMPDEST SWAP3 POP PUSH1 0x20 DUP11 ADD SWAP10 POP POP PUSH1 0x1 DUP2 ADD SWAP1 POP PUSH2 0x1845 JUMP JUMPDEST POP DUP3 SWAP8 POP DUP8 SWAP6 POP POP POP POP POP POP SWAP3 SWAP2 POP POP JUMP JUMPDEST PUSH1 0x0 PUSH1 0x20 DUP3 ADD SWAP1 POP DUP2 DUP2 SUB PUSH1 0x0 DUP4 ADD MSTORE PUSH2 0x18A9 DUP2 DUP5 PUSH2 0x181A JUMP JUMPDEST SWAP1 POP SWAP3 SWAP2 POP POP JUMP JUMPDEST PUSH32 0x4E487B7100000000000000000000000000000000000000000000000000000000 PUSH1 0x0 MSTORE PUSH1 0x22 PUSH1 0x4 MSTORE PUSH1 0x24 PUSH1 0x0 REVERT JUMPDEST PUSH1 0x0 PUSH1 0x2 DUP3 DIV SWAP1 POP PUSH1 0x1 DUP3 AND DUP1 PUSH2 0x18F8 JUMPI PUSH1 0x7F DUP3 AND SWAP2 POP JUMPDEST PUSH1 0x20 DUP3 LT DUP2 SUB PUSH2 0x190B JUMPI PUSH2 0x190A PUSH2 0x18B1 JUMP JUMPDEST JUMPDEST POP SWAP2 SWAP1 POP JUMP JUMPDEST PUSH1 0x0 DUP2 SWAP1 POP DUP2 PUSH1 0x0 MSTORE PUSH1 0x20 PUSH1 0x0 KECCAK256 SWAP1 POP SWAP2 SWAP1 POP JUMP JUMPDEST PUSH1 0x0 PUSH1 0x20 PUSH1 0x1F DUP4 ADD DIV SWAP1 POP SWAP2 SWAP1 POP JUMP JUMPDEST PUSH1 0x0 DUP3 DUP3 SHL SWAP1 POP SWAP3 SWAP2 POP POP JUMP JUMPDEST PUSH1 0x0 PUSH1 0x8 DUP4 MUL PUSH2 0x1973 PUSH32 0xFFFFFFFFFFFFFFFFFFFFFFFFFFFFFFFFFFFFFFFFFFFFFFFFFFFFFFFFFFFFFFFF DUP3 PUSH2 0x1936 JUMP JUMPDEST PUSH2 0x197D DUP7 DUP4 PUSH2 0x1936 JUMP JUMPDEST SWAP6 POP DUP1 NOT DUP5 AND SWAP4 POP DUP1 DUP7 AND DUP5 OR SWAP3 POP POP POP SWAP4 SWAP3 POP POP POP JUMP JUMPDEST PUSH1 0x0 DUP2 SWAP1 POP SWAP2 SWAP1 POP JUMP JUMPDEST PUSH1 0x0 PUSH2 0x19BA PUSH2 0x19B5 PUSH2 0x19B0 DUP5 PUSH2 0x11BC JUMP JUMPDEST PUSH2 0x1995 JUMP JUMPDEST PUSH2 0x11BC JUMP JUMPDEST SWAP1 POP SWAP2 SWAP1 POP JUMP JUMPDEST PUSH1 0x0 DUP2 SWAP1 POP SWAP2 SWAP1 POP JUMP JUMPDEST PUSH2 0x19D4 DUP4 PUSH2 0x199F JUMP JUMPDEST PUSH2 0x19E8 PUSH2 0x19E0 DUP3 PUSH2 0x19C1 JUMP JUMPDEST DUP5 DUP5 SLOAD PUSH2 0x1943 JUMP JUMPDEST DUP3 SSTORE POP POP POP POP JUMP JUMPDEST PUSH1 0x0 SWAP1 JUMP JUMPDEST PUSH2 0x19FD PUSH2 0x19F0 JUMP JUMPDEST PUSH2 0x1A08 DUP2 DUP5 DUP5 PUSH2 0x19CB JUMP JUMPDEST POP POP POP JUMP JUMPDEST JUMPDEST DUP2 DUP2 LT ISZERO PUSH2 0x1A2C JUMPI PUSH2 0x1A21 PUSH1 0x0 DUP3 PUSH2 0x19F5 JUMP JUMPDEST PUSH1 0x1 DUP2 ADD SWAP1 POP PUSH2 0x1A0E JUMP JUMPDEST POP POP JUMP JUMPDEST PUSH1 0x1F DUP3 GT ISZERO PUSH2 0x1A71 JUMPI PUSH2 0x1A42 DUP2 PUSH2 0x1911 JUMP JUMPDEST PUSH2 0x1A4B DUP5 PUSH2 0x1926 JUMP JUMPDEST DUP2 ADD PUSH1 0x20 DUP6 LT ISZERO PUSH2 0x1A5A JUMPI DUP2 SWAP1 POP JUMPDEST PUSH2 0x1A6E PUSH2 0x1A66 DUP6 PUSH2 0x1926 JUMP JUMPDEST DUP4 ADD DUP3 PUSH2 0x1A0D JUMP JUMPDEST POP POP JUMPDEST POP POP POP JUMP JUMPDEST PUSH1 0x0 DUP3 DUP3 SHR SWAP1 POP SWAP3 SWAP2 POP POP JUMP JUMPDEST PUSH1 0x0 PUSH2 0x1A94 PUSH1 0x0 NOT DUP5 PUSH1 0x8 MUL PUSH2 0x1A76 JUMP JUMPDEST NOT DUP1 DUP4 AND SWAP2 POP POP SWAP3 SWAP2 POP POP JUMP JUMPDEST PUSH1 0x0 PUSH2 0x1AAD DUP4 DUP4 PUSH2 0x1A83 JUMP JUMPDEST SWAP2 POP DUP3 PUSH1 0x2 MUL DUP3 OR SWAP1 POP SWAP3 SWAP2 POP POP JUMP JUMPDEST PUSH2 0x1AC6 DUP3 PUSH2 0x132E JUMP JUMPDEST PUSH8 0xFFFFFFFFFFFFFFFF DUP2 GT ISZERO PUSH2 0x1ADF JUMPI PUSH2 0x1ADE PUSH2 0x1082 JUMP JUMPDEST JUMPDEST PUSH2 0x1AE9 DUP3 SLOAD PUSH2 0x18E0 JUMP JUMPDEST PUSH2 0x1AF4 DUP3 DUP3 DUP6 PUSH2 0x1A30 JUMP JUMPDEST PUSH1 0x0 PUSH1 0x20 SWAP1 POP PUSH1 0x1F DUP4 GT PUSH1 0x1 DUP2 EQ PUSH2 0x1B27 JUMPI PUSH1 0x0 DUP5 ISZERO PUSH2 0x1B15 JUMPI DUP3 DUP8 ADD MLOAD SWAP1 POP JUMPDEST PUSH2 0x1B1F DUP6 DUP3 PUSH2 0x1AA1 JUMP JUMPDEST DUP7 SSTORE POP PUSH2 0x1B87 JUMP JUMPDEST PUSH1 0x1F NOT DUP5 AND PUSH2 0x1B35 DUP7 PUSH2 0x1911 JUMP JUMPDEST PUSH1 0x0 JUMPDEST DUP3 DUP2 LT ISZERO PUSH2 0x1B5D JUMPI DUP5 DUP10 ADD MLOAD DUP3 SSTORE PUSH1 0x1 DUP3 ADD SWAP2 POP PUSH1 0x20 DUP6 ADD SWAP5 POP PUSH1 0x20 DUP2 ADD SWAP1 POP PUSH2 0x1B38 JUMP JUMPDEST DUP7 DUP4 LT ISZERO PUSH2 0x1B7A JUMPI DUP5 DUP10 ADD MLOAD PUSH2 0x1B76 PUSH1 0x1F DUP10 AND DUP3 PUSH2 0x1A83 JUMP JUMPDEST DUP4 SSTORE POP JUMPDEST PUSH1 0x1 PUSH1 0x2 DUP9 MUL ADD DUP9 SSTORE POP POP POP JUMPDEST POP POP POP POP POP POP JUMP JUMPDEST PUSH32 0x486173206E6F20736C6F74000000000000000000000000000000000000000000 PUSH1 0x0 DUP3 ADD MSTORE POP JUMP JUMPDEST PUSH1 0x0 PUSH2 0x1BC5 PUSH1 0xB DUP4 PUSH2 0x1339 JUMP JUMPDEST SWAP2 POP PUSH2 0x1BD0 DUP3 PUSH2 0x1B8F JUMP JUMPDEST PUSH1 0x20 DUP3 ADD SWAP1 POP SWAP2 SWAP1 POP JUMP JUMPDEST PUSH1 0x0 PUSH1 0x20 DUP3 ADD SWAP1 POP DUP2 DUP2 SUB PUSH1 0x0 DUP4 ADD MSTORE PUSH2 0x1BF4 DUP2 PUSH2 0x1BB8 JUMP JUMPDEST SWAP1 POP SWAP2 SWAP1 POP JUMP JUMPDEST PUSH32 0x4E487B7100000000000000000000000000000000000000000000000000000000 PUSH1 0x0 MSTORE PUSH1 0x11 PUSH1 0x4 MSTORE PUSH1 0x24 PUSH1 0x0 REVERT JUMPDEST PUSH1 0x0 PUSH2 0x1C35 DUP3 PUSH2 0x11BC JUMP JUMPDEST SWAP2 POP PUSH32 0xFFFFFFFFFFFFFFFFFFFFFFFFFFFFFFFFFFFFFFFFFFFFFFFFFFFFFFFFFFFFFFFF DUP3 SUB PUSH2 0x1C67 JUMPI PUSH2 0x1C66 PUSH2 0x1BFB JUMP JUMPDEST JUMPDEST PUSH1 0x1 DUP3 ADD SWAP1 POP SWAP2 SWAP1 POP JUMP JUMPDEST PUSH32 0x4E487B7100000000000000000000000000000000000000000000000000000000 PUSH1 0x0 MSTORE PUSH1 0x32 PUSH1 0x4 MSTORE PUSH1 0x24 PUSH1 0x0 REVERT JUMPDEST PUSH1 0x0 DUP2 SLOAD PUSH2 0x1CAE DUP2 PUSH2 0x18E0 JUMP JUMPDEST PUSH2 0x1CB8 DUP2 DUP7 PUSH2 0x1339 JUMP JUMPDEST SWAP5 POP PUSH1 0x1 DUP3 AND PUSH1 0x0 DUP2 EQ PUSH2 0x1CD3 JUMPI PUSH1 0x1 DUP2 EQ PUSH2 0x1CE9 JUMPI PUSH2 0x1D1C JUMP JUMPDEST PUSH1 0xFF NOT DUP4 AND DUP7 MSTORE DUP2 ISZERO ISZERO PUSH1 0x20 MUL DUP7 ADD SWAP4 POP PUSH2 0x1D1C JUMP JUMPDEST PUSH2 0x1CF2 DUP6 PUSH2 0x1911 JUMP JUMPDEST PUSH1 0x0 JUMPDEST DUP4 DUP2 LT ISZERO PUSH2 0x1D14 JUMPI DUP2 SLOAD DUP2 DUP10 ADD MSTORE PUSH1 0x1 DUP3 ADD SWAP2 POP PUSH1 0x20 DUP2 ADD SWAP1 POP PUSH2 0x1CF5 JUMP JUMPDEST DUP1 DUP9 ADD SWAP6 POP POP POP JUMPDEST POP POP POP SWAP3 SWAP2 POP POP JUMP JUMPDEST PUSH1 0x0 PUSH1 0x20 DUP3 ADD SWAP1 POP DUP2 DUP2 SUB PUSH1 0x0 DUP4 ADD MSTORE PUSH2 0x1D3F DUP2 DUP5 PUSH2 0x1CA1 JUMP JUMPDEST SWAP1 POP SWAP3 SWAP2 POP POP JUMP JUMPDEST PUSH1 0x0 PUSH2 0x1D52 DUP3 PUSH2 0x11BC JUMP JUMPDEST SWAP2 POP PUSH2 0x1D5D DUP4 PUSH2 0x11BC JUMP JUMPDEST SWAP3 POP DUP3 DUP3 ADD SWAP1 POP DUP1 DUP3 GT ISZERO PUSH2 0x1D75 JUMPI PUSH2 0x1D74 PUSH2 0x1BFB JUMP JUMPDEST JUMPDEST SWAP3 SWAP2 POP POP JUMP JUMPDEST PUSH1 0x0 PUSH2 0x1D86 DUP3 PUSH2 0x150C JUMP JUMPDEST SWAP2 POP PUSH2 0x1D91 DUP4 PUSH2 0x150C JUMP JUMPDEST SWAP3 POP DUP3 DUP3 ADD SWAP1 POP DUP3 DUP2 SLT ISZERO PUSH1 0x0 DUP4 SLT AND DUP4 DUP3 SLT PUSH1 0x0 DUP5 SLT ISZERO AND OR ISZERO PUSH2 0x1DB9 JUMPI PUSH2 0x1DB8 PUSH2 0x1BFB JUMP JUMPDEST JUMPDEST SWAP3 SWAP2 POP POP JUMP INVALID LOG2 PUSH5 0x6970667358 0x22 SLT KECCAK256 SWAP14 0x4A 0xB8 DUP3 0xA5 PUSH5 0x139EFB9C7E MSIZE 0xC7 PUSH25 0x9938C9245621874BEBA1EB291A74A0A3F75964736F6C634300 ADDMOD SGT STOP CALLER "
				},
				"gasEstimates": {
					"creation": {
						"codeDepositCost": "1533800",
						"executionCost": "infinite",
						"totalCost": "infinite"
					},
					"external": {
						"accountValues(address)": "infinite",
						"addAdmin((string,string,uint256))": "infinite",
						"admins(uint256)": "infinite",
						"allowance(address,address)": "infinite",
						"allowed()": "2558",
						"assignAllowance(address)": "infinite",
						"assignValue(string,string,uint256)": "infinite",
						"assignValue2((string,string,uint256))": "infinite",
						"assingAddressValues((string,string,uint256))": "infinite",
						"count()": "2475",
						"errorMessages(uint256)": "infinite",
						"extraMethod()": "211",
						"getAccount()": "infinite",
						"getAllAdmins()": "infinite",
						"getFullName()": "infinite",
						"getSizeOfErrorMessages()": "2534",
						"iAmReady()": "infinite",
						"increment(uint256)": "infinite",
						"oneIncrement()": "24627",
						"owner()": "2559",
						"setAllowed(bool)": "24791",
						"signedCount()": "2452",
						"signedIncrement(int256)": "infinite",
						"whoAmI()": "infinite"
					}
				},
				"methodIdentifiers": {
					"accountValues(address)": "4fab2bc9",
					"addAdmin((string,string,uint256))": "5faaf352",
					"admins(uint256)": "14bfd6d0",
					"allowance(address,address)": "dd62ed3e",
					"allowed()": "19e1fca4",
					"assignAllowance(address)": "f6ace8d7",
					"assignValue(string,string,uint256)": "9bead1f8",
					"assignValue2((string,string,uint256))": "f3009c90",
					"assingAddressValues((string,string,uint256))": "00942a94",
					"count()": "06661abd",
					"errorMessages(uint256)": "c539ab78",
					"extraMethod()": "6710a559",
					"getAccount()": "db613e81",
					"getAllAdmins()": "e9523c97",
					"getFullName()": "8c160186",
					"getSizeOfErrorMessages()": "702051f0",
					"iAmReady()": "7c85cfc2",
					"increment(uint256)": "7cf5dab0",
					"oneIncrement()": "ffac3b1d",
					"owner()": "8da5cb5b",
					"setAllowed(bool)": "2babac22",
					"signedCount()": "5f3d8f4a",
					"signedIncrement(int256)": "be7cb506",
					"whoAmI()": "da91254c"
				}
			},
			"storageLayout": {
				"storage": [
					{
						"astId": 34,
						"contract": "contracts/ParibuHub.sol:ParibuHub",
						"label": "allowed",
						"offset": 0,
						"slot": "0",
						"type": "t_bool"
					},
					{
						"astId": 36,
						"contract": "contracts/ParibuHub.sol:ParibuHub",
						"label": "count",
						"offset": 0,
						"slot": "1",
						"type": "t_uint256"
					},
					{
						"astId": 38,
						"contract": "contracts/ParibuHub.sol:ParibuHub",
						"label": "signedCount",
						"offset": 0,
						"slot": "2",
						"type": "t_int256"
					},
					{
						"astId": 40,
						"contract": "contracts/ParibuHub.sol:ParibuHub",
						"label": "owner",
						"offset": 0,
						"slot": "3",
						"type": "t_address"
					},
					{
						"astId": 46,
						"contract": "contracts/ParibuHub.sol:ParibuHub",
						"label": "allowance",
						"offset": 0,
						"slot": "4",
						"type": "t_mapping(t_address,t_mapping(t_address,t_bool))"
					},
					{
						"astId": 49,
						"contract": "contracts/ParibuHub.sol:ParibuHub",
						"label": "errorMessages",
						"offset": 0,
						"slot": "5",
						"type": "t_array(t_string_storage)dyn_storage"
					},
					{
						"astId": 59,
						"contract": "contracts/ParibuHub.sol:ParibuHub",
						"label": "account",
						"offset": 0,
						"slot": "6",
						"type": "t_struct(Account)56_storage"
					},
					{
						"astId": 64,
						"contract": "contracts/ParibuHub.sol:ParibuHub",
						"label": "accountValues",
						"offset": 0,
						"slot": "9",
						"type": "t_mapping(t_address,t_struct(Account)56_storage)"
					},
					{
						"astId": 69,
						"contract": "contracts/ParibuHub.sol:ParibuHub",
						"label": "admins",
						"offset": 0,
						"slot": "10",
						"type": "t_array(t_struct(Account)56_storage)3_storage"
					},
					{
						"astId": 71,
						"contract": "contracts/ParibuHub.sol:ParibuHub",
						"label": "index",
						"offset": 0,
						"slot": "19",
						"type": "t_uint256"
					}
				],
				"types": {
					"t_address": {
						"encoding": "inplace",
						"label": "address",
						"numberOfBytes": "20"
					},
					"t_array(t_string_storage)dyn_storage": {
						"base": "t_string_storage",
						"encoding": "dynamic_array",
						"label": "string[]",
						"numberOfBytes": "32"
					},
					"t_array(t_struct(Account)56_storage)3_storage": {
						"base": "t_struct(Account)56_storage",
						"encoding": "inplace",
						"label": "struct ParibuHub.Account[3]",
						"numberOfBytes": "288"
					},
					"t_bool": {
						"encoding": "inplace",
						"label": "bool",
						"numberOfBytes": "1"
					},
					"t_int256": {
						"encoding": "inplace",
						"label": "int256",
						"numberOfBytes": "32"
					},
					"t_mapping(t_address,t_bool)": {
						"encoding": "mapping",
						"key": "t_address",
						"label": "mapping(address => bool)",
						"numberOfBytes": "32",
						"value": "t_bool"
					},
					"t_mapping(t_address,t_mapping(t_address,t_bool))": {
						"encoding": "mapping",
						"key": "t_address",
						"label": "mapping(address => mapping(address => bool))",
						"numberOfBytes": "32",
						"value": "t_mapping(t_address,t_bool)"
					},
					"t_mapping(t_address,t_struct(Account)56_storage)": {
						"encoding": "mapping",
						"key": "t_address",
						"label": "mapping(address => struct ParibuHub.Account)",
						"numberOfBytes": "32",
						"value": "t_struct(Account)56_storage"
					},
					"t_string_storage": {
						"encoding": "bytes",
						"label": "string",
						"numberOfBytes": "32"
					},
					"t_struct(Account)56_storage": {
						"encoding": "inplace",
						"label": "struct ParibuHub.Account",
						"members": [
							{
								"astId": 51,
								"contract": "contracts/ParibuHub.sol:ParibuHub",
								"label": "name",
								"offset": 0,
								"slot": "0",
								"type": "t_string_storage"
							},
							{
								"astId": 53,
								"contract": "contracts/ParibuHub.sol:ParibuHub",
								"label": "surname",
								"offset": 0,
								"slot": "1",
								"type": "t_string_storage"
							},
							{
								"astId": 55,
								"contract": "contracts/ParibuHub.sol:ParibuHub",
								"label": "balance",
								"offset": 0,
								"slot": "2",
								"type": "t_uint256"
							}
						],
						"numberOfBytes": "96"
					},
					"t_uint256": {
						"encoding": "inplace",
						"label": "uint256",
						"numberOfBytes": "32"
					}
				}
			},
			"userdoc": {
				"kind": "user",
				"methods": {},
				"version": 1
			}
		}
	}
}